{
  "_format": "hh-sol-artifact-1",
  "contractName": "EntryPoint",
  "sourceName": "contracts/EntryPoint.sol",
  "abi": [
    {
      "inputs": [
        {
          "internalType": "address",
          "name": "_create2factory",
          "type": "address"
        },
        {
          "internalType": "uint256",
          "name": "_perOpOverhead",
          "type": "uint256"
        },
        {
          "internalType": "uint32",
          "name": "_unstakeDelayBlocks",
          "type": "uint32"
        }
      ],
      "stateMutability": "nonpayable",
      "type": "constructor"
    },
    {
      "inputs": [
        {
          "internalType": "uint256",
          "name": "opIndex",
          "type": "uint256"
        },
        {
          "internalType": "address",
          "name": "paymaster",
          "type": "address"
        },
        {
          "internalType": "string",
          "name": "reason",
          "type": "string"
        }
      ],
      "name": "FailedOp",
      "type": "error"
    },
    {
      "anonymous": false,
      "inputs": [
        {
          "indexed": true,
          "internalType": "address",
          "name": "sender",
          "type": "address"
        },
        {
          "indexed": true,
          "internalType": "address",
          "name": "paymaster",
          "type": "address"
        },
        {
          "indexed": false,
          "internalType": "uint256",
          "name": "nonce",
          "type": "uint256"
        },
        {
          "indexed": false,
          "internalType": "bytes",
          "name": "reason",
          "type": "bytes"
        }
      ],
      "name": "PaymasterPostOpFailed",
      "type": "event"
    },
    {
      "anonymous": false,
      "inputs": [
        {
          "indexed": true,
          "internalType": "address",
          "name": "paymaster",
          "type": "address"
        },
        {
          "indexed": false,
          "internalType": "uint256",
          "name": "totalStake",
          "type": "uint256"
        },
        {
          "indexed": false,
          "internalType": "uint256",
          "name": "unstakeDelayBlocks",
          "type": "uint256"
        }
      ],
      "name": "StakeAdded",
      "type": "event"
    },
    {
      "anonymous": false,
      "inputs": [
        {
          "indexed": true,
          "internalType": "address",
          "name": "paymaster",
          "type": "address"
        },
        {
          "indexed": false,
          "internalType": "uint256",
          "name": "withdrawBlock",
          "type": "uint256"
        }
      ],
      "name": "StakeUnlocking",
      "type": "event"
    },
    {
      "anonymous": false,
      "inputs": [
        {
          "indexed": true,
          "internalType": "address",
          "name": "paymaster",
          "type": "address"
        },
        {
          "indexed": false,
          "internalType": "address",
          "name": "withdrawAddress",
          "type": "address"
        },
        {
          "indexed": false,
          "internalType": "uint256",
          "name": "amount",
          "type": "uint256"
        }
      ],
      "name": "StakeWithdrawn",
      "type": "event"
    },
    {
      "anonymous": false,
      "inputs": [
        {
          "indexed": true,
          "internalType": "address",
          "name": "sender",
          "type": "address"
        },
        {
          "indexed": true,
          "internalType": "address",
          "name": "paymaster",
          "type": "address"
        },
        {
          "indexed": false,
          "internalType": "uint256",
          "name": "nonce",
          "type": "uint256"
        },
        {
          "indexed": false,
          "internalType": "uint256",
          "name": "actualGasCost",
          "type": "uint256"
        },
        {
          "indexed": false,
          "internalType": "uint256",
          "name": "actualGasPrice",
          "type": "uint256"
        },
        {
          "indexed": false,
          "internalType": "bool",
          "name": "success",
          "type": "bool"
        }
      ],
      "name": "UserOperationEvent",
      "type": "event"
    },
    {
      "anonymous": false,
      "inputs": [
        {
          "indexed": true,
          "internalType": "address",
          "name": "sender",
          "type": "address"
        },
        {
          "indexed": false,
          "internalType": "uint256",
          "name": "nonce",
          "type": "uint256"
        },
        {
          "indexed": false,
          "internalType": "bytes",
          "name": "revertReason",
          "type": "bytes"
        }
      ],
      "name": "UserOperationRevertReason",
      "type": "event"
    },
    {
      "inputs": [],
      "name": "addDeposit",
      "outputs": [],
      "stateMutability": "payable",
      "type": "function"
    },
    {
      "inputs": [
        {
          "internalType": "address",
          "name": "target",
          "type": "address"
        }
      ],
      "name": "addDepositTo",
      "outputs": [],
      "stateMutability": "payable",
      "type": "function"
    },
    {
      "inputs": [
        {
          "internalType": "uint32",
          "name": "_unstakeDelayBlocks",
          "type": "uint32"
        }
      ],
      "name": "addStake",
      "outputs": [],
      "stateMutability": "payable",
      "type": "function"
    },
    {
      "inputs": [],
      "name": "create2factory",
      "outputs": [
        {
          "internalType": "address",
          "name": "",
          "type": "address"
        }
      ],
      "stateMutability": "view",
      "type": "function"
    },
    {
      "inputs": [
        {
          "internalType": "address[]",
          "name": "paymasters",
          "type": "address[]"
        }
      ],
      "name": "getPaymastersStake",
      "outputs": [
        {
          "internalType": "uint256[]",
          "name": "_stakes",
          "type": "uint256[]"
        }
      ],
      "stateMutability": "view",
      "type": "function"
    },
    {
      "inputs": [
        {
          "internalType": "bytes",
          "name": "initCode",
          "type": "bytes"
        },
        {
          "internalType": "uint256",
          "name": "_salt",
          "type": "uint256"
        }
      ],
      "name": "getSenderAddress",
      "outputs": [
        {
          "internalType": "address",
          "name": "",
          "type": "address"
        }
      ],
      "stateMutability": "view",
      "type": "function"
    },
    {
      "inputs": [
        {
          "internalType": "address",
          "name": "paymaster",
          "type": "address"
        }
      ],
      "name": "getStakeInfo",
      "outputs": [
        {
          "components": [
            {
              "internalType": "uint96",
              "name": "stake",
              "type": "uint96"
            },
            {
              "internalType": "uint32",
              "name": "unstakeDelayBlocks",
              "type": "uint32"
            },
            {
              "internalType": "uint96",
              "name": "withdrawStake",
              "type": "uint96"
            },
            {
              "internalType": "uint32",
              "name": "withdrawBlock",
              "type": "uint32"
            }
          ],
          "internalType": "struct StakeManager.StakeInfo",
          "name": "stakeInfo",
          "type": "tuple"
        }
      ],
      "stateMutability": "view",
      "type": "function"
    },
    {
      "inputs": [
        {
          "components": [
            {
              "internalType": "address",
              "name": "sender",
              "type": "address"
            },
            {
              "internalType": "uint256",
              "name": "nonce",
              "type": "uint256"
            },
            {
              "internalType": "bytes",
              "name": "initCode",
              "type": "bytes"
            },
            {
              "internalType": "bytes",
              "name": "callData",
              "type": "bytes"
            },
            {
              "internalType": "uint256",
              "name": "callGas",
              "type": "uint256"
            },
            {
              "internalType": "uint256",
              "name": "verificationGas",
              "type": "uint256"
            },
            {
              "internalType": "uint256",
              "name": "preVerificationGas",
              "type": "uint256"
            },
            {
              "internalType": "uint256",
              "name": "maxFeePerGas",
              "type": "uint256"
            },
            {
              "internalType": "uint256",
              "name": "maxPriorityFeePerGas",
              "type": "uint256"
            },
            {
              "internalType": "address",
              "name": "paymaster",
              "type": "address"
            },
            {
              "internalType": "bytes",
              "name": "paymasterData",
              "type": "bytes"
            },
            {
              "internalType": "bytes",
              "name": "signature",
              "type": "bytes"
            }
          ],
          "internalType": "struct UserOperation",
          "name": "op",
          "type": "tuple"
        },
        {
          "internalType": "address payable",
          "name": "redeemer",
          "type": "address"
        }
      ],
      "name": "handleOp",
      "outputs": [],
      "stateMutability": "nonpayable",
      "type": "function"
    },
    {
      "inputs": [
        {
          "components": [
            {
              "internalType": "address",
              "name": "sender",
              "type": "address"
            },
            {
              "internalType": "uint256",
              "name": "nonce",
              "type": "uint256"
            },
            {
              "internalType": "bytes",
              "name": "initCode",
              "type": "bytes"
            },
            {
              "internalType": "bytes",
              "name": "callData",
              "type": "bytes"
            },
            {
              "internalType": "uint256",
              "name": "callGas",
              "type": "uint256"
            },
            {
              "internalType": "uint256",
              "name": "verificationGas",
              "type": "uint256"
            },
            {
              "internalType": "uint256",
              "name": "preVerificationGas",
              "type": "uint256"
            },
            {
              "internalType": "uint256",
              "name": "maxFeePerGas",
              "type": "uint256"
            },
            {
              "internalType": "uint256",
              "name": "maxPriorityFeePerGas",
              "type": "uint256"
            },
            {
              "internalType": "address",
              "name": "paymaster",
              "type": "address"
            },
            {
              "internalType": "bytes",
              "name": "paymasterData",
              "type": "bytes"
            },
            {
              "internalType": "bytes",
              "name": "signature",
              "type": "bytes"
            }
          ],
          "internalType": "struct UserOperation[]",
          "name": "ops",
          "type": "tuple[]"
        },
        {
          "internalType": "address payable",
          "name": "redeemer",
          "type": "address"
        }
      ],
      "name": "handleOps",
      "outputs": [],
      "stateMutability": "nonpayable",
      "type": "function"
    },
    {
      "inputs": [
        {
          "components": [
            {
              "internalType": "address",
              "name": "sender",
              "type": "address"
            },
            {
              "internalType": "uint256",
              "name": "nonce",
              "type": "uint256"
            },
            {
              "internalType": "bytes",
              "name": "initCode",
              "type": "bytes"
            },
            {
              "internalType": "bytes",
              "name": "callData",
              "type": "bytes"
            },
            {
              "internalType": "uint256",
              "name": "callGas",
              "type": "uint256"
            },
            {
              "internalType": "uint256",
              "name": "verificationGas",
              "type": "uint256"
            },
            {
              "internalType": "uint256",
              "name": "preVerificationGas",
              "type": "uint256"
            },
            {
              "internalType": "uint256",
              "name": "maxFeePerGas",
              "type": "uint256"
            },
            {
              "internalType": "uint256",
              "name": "maxPriorityFeePerGas",
              "type": "uint256"
            },
            {
              "internalType": "address",
              "name": "paymaster",
              "type": "address"
            },
            {
              "internalType": "bytes",
              "name": "paymasterData",
              "type": "bytes"
            },
            {
              "internalType": "bytes",
              "name": "signature",
              "type": "bytes"
            }
          ],
          "internalType": "struct UserOperation",
          "name": "op",
          "type": "tuple"
        },
        {
          "internalType": "bytes",
          "name": "context",
          "type": "bytes"
        },
        {
          "internalType": "uint256",
          "name": "preOpGas",
          "type": "uint256"
        },
        {
          "internalType": "uint256",
          "name": "prefund",
          "type": "uint256"
        },
        {
          "internalType": "enum EntryPoint.PaymentMode",
          "name": "paymentMode",
          "type": "uint8"
        }
      ],
      "name": "internalHandleOp",
      "outputs": [
        {
          "internalType": "uint256",
          "name": "actualGasCost",
          "type": "uint256"
        }
      ],
      "stateMutability": "nonpayable",
      "type": "function"
    },
    {
      "inputs": [
        {
          "internalType": "address",
          "name": "addr",
          "type": "address"
        }
      ],
      "name": "isContractDeployed",
      "outputs": [
        {
          "internalType": "bool",
          "name": "",
          "type": "bool"
        }
      ],
      "stateMutability": "view",
      "type": "function"
    },
    {
      "inputs": [
        {
          "internalType": "address",
          "name": "paymaster",
          "type": "address"
        },
        {
          "internalType": "uint256",
          "name": "stake",
          "type": "uint256"
        }
      ],
      "name": "isPaymasterStaked",
      "outputs": [
        {
          "internalType": "bool",
          "name": "",
          "type": "bool"
        }
      ],
      "stateMutability": "view",
      "type": "function"
    },
    {
      "inputs": [
        {
          "internalType": "address",
          "name": "paymaster",
          "type": "address"
        },
        {
          "internalType": "uint256",
          "name": "requiredStake",
          "type": "uint256"
        },
        {
          "internalType": "uint256",
          "name": "requiredDelayBlocks",
          "type": "uint256"
        }
      ],
      "name": "isStaked",
      "outputs": [
        {
          "internalType": "bool",
          "name": "",
          "type": "bool"
        }
      ],
      "stateMutability": "view",
      "type": "function"
    },
    {
      "inputs": [],
      "name": "perOpOverhead",
      "outputs": [
        {
          "internalType": "uint256",
          "name": "",
          "type": "uint256"
        }
      ],
      "stateMutability": "view",
      "type": "function"
    },
    {
      "inputs": [
        {
          "components": [
            {
              "internalType": "address",
              "name": "sender",
              "type": "address"
            },
            {
              "internalType": "uint256",
              "name": "nonce",
              "type": "uint256"
            },
            {
              "internalType": "bytes",
              "name": "initCode",
              "type": "bytes"
            },
            {
              "internalType": "bytes",
              "name": "callData",
              "type": "bytes"
            },
            {
              "internalType": "uint256",
              "name": "callGas",
              "type": "uint256"
            },
            {
              "internalType": "uint256",
              "name": "verificationGas",
              "type": "uint256"
            },
            {
              "internalType": "uint256",
              "name": "preVerificationGas",
              "type": "uint256"
            },
            {
              "internalType": "uint256",
              "name": "maxFeePerGas",
              "type": "uint256"
            },
            {
              "internalType": "uint256",
              "name": "maxPriorityFeePerGas",
              "type": "uint256"
            },
            {
              "internalType": "address",
              "name": "paymaster",
              "type": "address"
            },
            {
              "internalType": "bytes",
              "name": "paymasterData",
              "type": "bytes"
            },
            {
              "internalType": "bytes",
              "name": "signature",
              "type": "bytes"
            }
          ],
          "internalType": "struct UserOperation",
          "name": "userOp",
          "type": "tuple"
        },
        {
          "internalType": "uint256",
          "name": "gasUsedByPayForSelfOp",
          "type": "uint256"
        }
      ],
      "name": "simulatePaymasterValidation",
      "outputs": [
        {
          "internalType": "bytes",
          "name": "context",
          "type": "bytes"
        },
        {
          "internalType": "uint256",
          "name": "gasUsedByPayForOp",
          "type": "uint256"
        }
      ],
      "stateMutability": "view",
      "type": "function"
    },
    {
      "inputs": [
        {
          "components": [
            {
              "internalType": "address",
              "name": "sender",
              "type": "address"
            },
            {
              "internalType": "uint256",
              "name": "nonce",
              "type": "uint256"
            },
            {
              "internalType": "bytes",
              "name": "initCode",
              "type": "bytes"
            },
            {
              "internalType": "bytes",
              "name": "callData",
              "type": "bytes"
            },
            {
              "internalType": "uint256",
              "name": "callGas",
              "type": "uint256"
            },
            {
              "internalType": "uint256",
              "name": "verificationGas",
              "type": "uint256"
            },
            {
              "internalType": "uint256",
              "name": "preVerificationGas",
              "type": "uint256"
            },
            {
              "internalType": "uint256",
              "name": "maxFeePerGas",
              "type": "uint256"
            },
            {
              "internalType": "uint256",
              "name": "maxPriorityFeePerGas",
              "type": "uint256"
            },
            {
              "internalType": "address",
              "name": "paymaster",
              "type": "address"
            },
            {
              "internalType": "bytes",
              "name": "paymasterData",
              "type": "bytes"
            },
            {
              "internalType": "bytes",
              "name": "signature",
              "type": "bytes"
            }
          ],
          "internalType": "struct UserOperation",
          "name": "userOp",
          "type": "tuple"
        }
      ],
      "name": "simulateWalletValidation",
      "outputs": [
        {
          "internalType": "uint256",
          "name": "gasUsedByPayForSelfOp",
          "type": "uint256"
        }
      ],
      "stateMutability": "nonpayable",
      "type": "function"
    },
    {
      "inputs": [
        {
          "internalType": "address",
          "name": "",
          "type": "address"
        }
      ],
      "name": "stakes",
      "outputs": [
        {
          "internalType": "uint96",
          "name": "stake",
          "type": "uint96"
        },
        {
          "internalType": "uint32",
          "name": "unstakeDelayBlocks",
          "type": "uint32"
        },
        {
          "internalType": "uint96",
          "name": "withdrawStake",
          "type": "uint96"
        },
        {
          "internalType": "uint32",
          "name": "withdrawBlock",
          "type": "uint32"
        }
      ],
      "stateMutability": "view",
      "type": "function"
    },
    {
      "inputs": [],
      "name": "unlockStake",
      "outputs": [],
      "stateMutability": "nonpayable",
      "type": "function"
    },
    {
      "inputs": [],
      "name": "unstakeDelayBlocks",
      "outputs": [
        {
          "internalType": "uint32",
          "name": "",
          "type": "uint32"
        }
      ],
      "stateMutability": "view",
      "type": "function"
    },
    {
      "inputs": [
        {
          "internalType": "address payable",
          "name": "withdrawAddress",
          "type": "address"
        }
      ],
      "name": "withdrawStake",
      "outputs": [],
      "stateMutability": "nonpayable",
      "type": "function"
    },
    {
      "stateMutability": "payable",
      "type": "receive"
    }
  ],
  "bytecode": "0x60e06040523480156200001157600080fd5b5060405162002cc738038062002cc7833981016040819052620000349162000060565b60e01b6001600160e01b03191660805260609190911b6001600160601b03191660c05260a052620000bb565b6000806000606084860312156200007657600080fd5b83516001600160a01b03811681146200008e57600080fd5b60208501516040860151919450925063ffffffff81168114620000b057600080fd5b809150509250925092565b60805160e01c60a05160c05160601c612bac6200011b60003960008181610156015281816103e50152611f350152600081816102af01528181610a0a01528181611330015261187101526000818161056e01526107f50152612bac6000f3fe6080604052600436106101235760003560e01c8063af2ed7d7116100a0578063c345315311610064578063c345315314610446578063dbbabd6a1461053c578063e7c350e31461055c578063f20751eb146105a5578063f3737f19146105c657600080fd5b8063af2ed7d71461033a578063bb9fe6bf1461035a578063bf55512e1461036f578063c23a5cea1461038f578063c31e4354146103af57600080fd5b80632815c17b116100e75780632815c17b146102755780634a58db1914610295578063643407ce1461029d578063739b8950146102df578063828190131461030c57600080fd5b80630396cb601461012f5780630bfb68471461014457806316934fc4146101955780631c112a44146102255780631fa75c861461025557600080fd5b3661012a57005b600080fd5b61014261013d366004612540565b6105d9565b005b34801561015057600080fd5b506101787f000000000000000000000000000000000000000000000000000000000000000081565b6040516001600160a01b0390911681526020015b60405180910390f35b3480156101a157600080fd5b506101ee6101b0366004612161565b6000602081905290815260409020546001600160601b038082169163ffffffff600160601b8204811692600160801b83041691600160e01b90041684565b604080516001600160601b03958616815263ffffffff9485166020820152949092169184019190915216606082015260800161018c565b34801561023157600080fd5b506102456102403660046121c7565b610764565b604051901515815260200161018c565b34801561026157600080fd5b5061024561027036600461219b565b6107ec565b34801561028157600080fd5b5061014261029036600461223d565b610826565b610142610c24565b3480156102a957600080fd5b506102d17f000000000000000000000000000000000000000000000000000000000000000081565b60405190815260200161018c565b3480156102eb57600080fd5b506102ff6102fa3660046121fc565b610c30565b60405161018c91906126dd565b34801561031857600080fd5b5061032c6103273660046124e3565b610d09565b60405161018c929190612745565b34801561034657600080fd5b506102d161035536600461242a565b610d70565b34801561036657600080fd5b50610142610ee2565b34801561037b57600080fd5b506102d161038a36600461239d565b611055565b34801561039b57600080fd5b506101426103aa366004612161565b6110e0565b3480156103bb57600080fd5b506101786103ca366004612314565b8151602092830120604080516001600160f81b0319818601527f000000000000000000000000000000000000000000000000000000000000000060601b6bffffffffffffffffffffffff191660218201526035810193909352605580840192909252805180840390920182526075909201909152805191012090565b34801561045257600080fd5b506104eb610461366004612161565b604080516080810182526000808252602082018190529181018290526060810191909152506001600160a01b031660009081526020818152604091829020825160808101845290546001600160601b03808216835263ffffffff600160601b8304811694840194909452600160801b82041693820193909352600160e01b90920416606082015290565b60405161018c919060006080820190506001600160601b03808451168352602084015163ffffffff808216602086015282604087015116604086015280606087015116606086015250505092915050565b34801561054857600080fd5b506101426105573660046123d9565b611311565b34801561056857600080fd5b506105907f000000000000000000000000000000000000000000000000000000000000000081565b60405163ffffffff909116815260200161018c565b3480156105b157600080fd5b506102456105c0366004612161565b3f151590565b6101426105d4366004612161565b61142b565b3360009081526020819052604090205463ffffffff600160601b9091048116908216101561064e5760405162461bcd60e51b815260206004820152601e60248201527f63616e6e6f7420646563726561736520756e7374616b6520626c6f636b73000060448201526064015b60405180910390fd5b336000908152602081905260408120546001600160601b03600160801b820481169161067c9134911661290f565b610686919061290f565b604080516080810182526001600160601b0383811680835263ffffffff878116602080860182815260008789018181526060890182815233808452838652928b902099518a54945192519151908a166001600160801b031990951694909417600160601b92881692909202919091176001600160801b0316600160801b91909816026001600160e01b031696909617600160e01b91909416029290921790945584519182528101929092529293507f270d6dd254edd1d985c81cf7861b8f28fb06b6d719df04d90464034d4341244091015b60405180910390a25050565b6001600160a01b038316600090815260208181526040808320815160808101835290546001600160601b0380821680845263ffffffff600160601b8404811696850196909652600160801b830490911693830193909352600160e01b9004909216606083015284118015906107e3575082816020015163ffffffff1610155b95945050505050565b600061081f83837f000000000000000000000000000000000000000000000000000000000000000063ffffffff16610764565b9392505050565b816000816001600160401b0381111561084157610841612a88565b60405190808252806020026020018201604052801561086a578160200160208202803683370190505b5090506000826001600160401b0381111561088757610887612a88565b6040519080825280602002602001820160405280156108b0578160200160208202803683370190505b5090506000836001600160401b038111156108cd576108cd612a88565b6040519080825280602002602001820160405280156108f6578160200160208202803683370190505b5090506000846001600160401b0381111561091357610913612a88565b60405190808252806020026020018201604052801561093c578160200160208202803683370190505b50905060005b85811015610a735760005a9050368a8a8481811061096257610962612a72565b90506020028101906109749190612882565b9050606060006109848584611483565b89888151811061099657610996612a72565b602002602001018989815181106109af576109af612a72565b602002602001018296508360028111156109cb576109cb612a5c565b60028111156109dc576109dc612a5c565b81525083815250505050819050808886815181106109fc576109fc612a72565b6020026020010181815250507f00000000000000000000000000000000000000000000000000000000000000005a610a349086612990565b610a3e919061290f565b898681518110610a5057610a50612a72565b602002602001018181525050505050508080610a6b90612a2b565b915050610942565b506000805b88811015610c0e5760005a9050368b8b84818110610a9857610a98612a72565b9050602002810190610aaa9190612882565b90506000878481518110610ac057610ac0612a72565b60200260200101519050606081905060008a8681518110610ae357610ae3612a72565b602002602001015190506000898781518110610b0157610b01612a72565b602002602001015190506000898881518110610b1f57610b1f612a72565b60200260200101519050306001600160a01b031663af2ed7d787868686866040518663ffffffff1660e01b8152600401610b5d959493929190612799565b602060405180830381600087803b158015610b7757600080fd5b505af1925050508015610ba7575060408051601f3d908101601f19168201909252610ba491810190612527565b60015b610be6576000835a610bb9908a612990565b610bc3919061290f565b9050610bd460028887848787611589565b610bde908b61290f565b995050610bf4565b610bf0818b61290f565b9950505b505050505050508080610c0690612a2b565b915050610a78565b50610c19878261182d565b505050505050505050565b610c2e60006105d9565b565b6060816001600160401b03811115610c4a57610c4a612a88565b604051908082528060200260200182016040528015610c73578160200160208202803683370190505b50905060005b82811015610d0257600080858584818110610c9657610c96612a72565b9050602002016020810190610cab9190612161565b6001600160a01b0316815260208101919091526040016000205482516001600160601b0390911690839083908110610ce557610ce5612a72565b602090810291909101015280610cfa81612a2b565b915050610c79565b5092915050565b60606000806000610d1986611868565b90925090506000816002811115610d3257610d32612a5c565b14610d555760006040518060200160405280600081525090935093505050610d69565b610d6260008784886118cf565b9350935050505b9250929050565b6000805a9050333014610d8257600080fd5b600080610d9260608b018b61283c565b90501115610e74576000808a356001600160a01b031660808c0135610dba60608e018e61283c565b604051610dc89291906126cd565b60006040518083038160008787f1925050503d8060008114610e06576040519150601f19603f3d011682016040523d82523d6000602084013e610e0b565b606091505b509150915081158015610e1f575060008151115b15610e71578a356001600160a01b03167fbe4889eb241fb33bc0e9873f6e442f4c5dc653a55e7ad8bca2f001c9b3d818fb8c6020013583604051610e64929190612823565b60405180910390a2600192505b50505b6000865a610e829085612990565b610e8c919061290f565b9050610ed4828b8b8b8080601f0160208091040260200160405190810160405280939291908181526020018383808284376000920191909152508792508c91508b9050611589565b9a9950505050505050505050565b3360009081526020819052604090208054600160e01b900463ffffffff1615610f3f5760405162461bcd60e51b815260206004820152600f60248201526e616c72656164792070656e64696e6760881b6044820152606401610645565b80546001600160601b031615801590610f6557508054600160601b900463ffffffff1615155b610fa65760405162461bcd60e51b81526020600482015260126024820152716e6f207374616b6520746f20756e6c6f636b60701b6044820152606401610645565b8054600090610fc290600160601b900463ffffffff1643612927565b82546001600160801b0381166bffffffffffffffffffffffff60801b19600160e01b63ffffffff8516908102918216929092176001600160601b039384169190931617600160801b02919091176bffffffffffffffffffffffff1916845560405190815290915033907fab3a43860ac8cdb29929ba1a1f556b4decf9617f4811c190010e1672e55839b190602001610758565b600033156110ba5760405162461bcd60e51b815260206004820152602c60248201527f6d7573742062652063616c6c6564206f66662d636861696e207769746820667260448201526b37b69ebd32b93796b0b2323960a11b6064820152608401610645565b6000806110c684611868565b915091506110d76000858484611aab565b50949350505050565b3360009081526020818152604091829020825160808101845290546001600160601b03808216835263ffffffff600160601b83048116948401859052600160801b830490911694830194909452600160e01b90049092166060830152156111e457600081604001516001600160601b0316116111925760405162461bcd60e51b81526020600482015260116024820152706e6f20756e6c6f636b6564207374616b6560781b6044820152606401610645565b43816060015163ffffffff1611156111e45760405162461bcd60e51b81526020600482015260156024820152745769746864726177616c206973206e6f742064756560581b6044820152606401610645565b805160408201516000916111f79161294f565b60408051608081018252600080825260208681015163ffffffff9081168285019081528486018481526060860185815233865293859052868520955186549251915194518416600160e01b026001600160e01b036001600160601b03968716600160801b02166001600160801b0393909516600160601b026001600160801b031990941691861691909117929092171691909117179092559151921692506001600160a01b0385169183156108fc0291849190818181858888f193505050501580156112c7573d6000803e3d6000fd5b50604080516001600160a01b03851681526020810183905233917fb7c918e0e249f999e965cafeb6c664271b3f4317d296461500e71da39f0cbda3910160405180910390a2505050565b60005a90506000806000611326600087611483565b92509250925060007f00000000000000000000000000000000000000000000000000000000000000005a61135a9087612990565b611364919061290f565b60405163af2ed7d760e01b8152909150600090309063af2ed7d790611395908b90879087908b908b90600401612799565b602060405180830381600087803b1580156113af57600080fd5b505af19250505080156113df575060408051601f3d908101601f191682019092526113dc91810190612527565b60015b611414576000825a6113f19089612990565b6113fb919061290f565b905061140c60028a86848a8a611589565b915050611417565b90505b611421878261182d565b5050505050505050565b6001600160a01b0381166000908152602081905260408120805434929061145c9084906001600160601b031661294f565b92506101000a8154816001600160601b0302191690836001600160601b0316021790555050565b600080606060005a905060008061149987611868565b955090506114a988888388611aab565b965091506000808660028111156114c2576114c2612a5c565b14156114de576114d4898984866118cf565b90955090506114f1565b6040518060200160405280600081525094505b60005a6114fe9086612990565b9050808960a00135101561157d578961151f6101408b016101208c01612161565b60405162fa072b60e01b815260048101929092526001600160a01b0316602482015260606044820152601e60648201527f55736564206d6f7265207468616e20766572696669636174696f6e4761730000608482015260a401610645565b50505050509250925092565b6000805a9050600061159a88611d77565b90506115a68187612971565b925060008460028111156115bc576115bc612a5c565b14611663578285101561161c5760405162461bcd60e51b815260206004820152602260248201527f77616c6c65742070726566756e642062656c6f772061637475616c476173436f6044820152611cdd60f21b6064820152608401610645565b60006116288487612990565b9050600185600281111561163e5761163e612a5c565b14156116535761164e8982611d94565b61165d565b61165d8982611dee565b50611801565b86511561176f5761167c61014089016101208a01612161565b6001600160a01b031663a9a234098a89866040518463ffffffff1660e01b81526004016116ab93929190612767565b600060405180830381600087803b1580156116c557600080fd5b505af19250505080156116d6575060015b61176f573d808015611704576040519150601f19603f3d011682016040523d82523d6000602084013e611709565b606091505b5061171c6101408a016101208b01612161565b6001600160a01b031689356001600160a01b03167f45197bfe91c32368fd75a4fcab42a1eff7699e79df0e171a343537be7657efb68b6020013584604051611765929190612823565b60405180910390a3505b5a61177a9083612990565b611784908761290f565b95506117908187612971565b9250826000806117a86101408c016101208d01612161565b6001600160a01b031681526020810191909152604001600090812080549091906117dc9084906001600160601b03166129a7565b92506101000a8154816001600160601b0302191690836001600160601b031602179055505b61182188848360008d600281111561181b5761181b612a5c565b14611e1b565b50509695505050505050565b6040516001600160a01b0383169082156108fc029083906000818181858888f19350505050158015611863573d6000803e3d6000fd5b505050565b600080611895837f0000000000000000000000000000000000000000000000000000000000000000611e97565b91506118a083611ec6565b156118ad57506000915091565b6118ba8335836000610764565b156118c757506001915091565b506002915091565b60606000805a90506118e18686611eec565b61194957866118f861014088016101208901612161565b60405162fa072b60e01b815260048101929092526001600160a01b0316602482015260606044820152601060648201526f6e6f7420656e6f756768207374616b6560801b608482015260a401610645565b60006119598560a0890135612990565b905061196d61014088016101208901612161565b6001600160a01b03166380fd44d58289896040518463ffffffff1660e01b815260040161199b9291906127e6565b60006040518083038187803b1580156119b357600080fd5b5086fa935050505080156119e957506040513d6000823e601f3d908101601f191682016040526119e69190810190612293565b60015b611a91576119f5612a9e565b806308c379a01415611a445750611a0a612aba565b80611a155750611a46565b88611a286101408a016101208b01612161565b8260405162fa072b60e01b8152600401610645939291906127f9565b505b87611a5961014089016101208a01612161565b60405162fa072b60e01b815260048101929092526001600160a01b031660248201526060604482015260006064820152608401610645565b93505a611a9e9083612990565b9250505094509492505050565b60008060005a9050611abc86611f15565b4760006002866002811115611ad357611ad3612a5c565b1415611ae0575085611b04565b6001866002811115611af457611af4612a5c565b1415611b0457611b04888861209d565b6040516307dfd9cf60e51b81526001600160a01b038935169063fbfb39e09060a08b013590611b39908c9086906004016127e6565b600060405180830381600088803b158015611b5357600080fd5b5087f193505050508015611b65575060015b611be257611b71612a9e565b806308c379a01415611bb05750611b86612aba565b80611b915750611bb2565b8960008260405162fa072b60e01b8152600401610645939291906127f9565b505b60405162fa072b60e01b8152600481018a9052600060248201819052606060448301526064820152608401610645565b6000611bee8347612990565b90506002876002811115611c0457611c04612a5c565b1415611c705781811015611c685760405162fa072b60e01b8152600481018b90526000602482015260606044820152601960648201527f77616c6c6574206469646e2774207061792070726566756e6400000000000000608482015260a401610645565b809450611d5d565b6001876002811115611c8457611c84612a5c565b1415611cfd578015611cf55760405162fa072b60e01b8152600481018b90526000602482015260606044820152602660648201527f7573696e672077616c6c6574207374616b65206275742077616c6c65742070616084820152650d2c840cae8d60d31b60a482015260c401610645565b879450611d5d565b8015611d595760405162fa072b60e01b8152600481018b90526000602482015260606044820152601d60648201527f686173207061796d6173746572206275742077616c6c65742070616964000000608482015260a401610645565b8794505b5a611d689085612990565b95505050505094509492505050565b6000611d8e8260e0013548846101000135016120cf565b92915050565b6001600160a01b0382351660009081526020819052604081208054839290611dc69084906001600160601b031661294f565b92506101000a8154816001600160601b0302191690836001600160601b031602179055505050565b6040516000906001600160a01b038435169083156108fc0290849084818181858888f15050505050505050565b611e2d61014085016101208601612161565b6001600160a01b03168435604080516020808901358252810187905290810185905283151560608201526001600160a01b0391909116907fc27a60e61c14607957b41fa2dad696de47b2d80e390d0eaaf1514c0cd20342939060800160405180910390a350505050565b6000611ea283611d77565b611ebc83608086013560a08701350160c08701350161290f565b61081f9190612971565b600080611edb61014084016101208501612161565b6001600160a01b0316141592915050565b600061081f611f0361014085016101208601612161565b61027084670de0b6b3a764000061290f565b611f22604082018261283c565b15905061209a5760006001600160a01b037f000000000000000000000000000000000000000000000000000000000000000016634af63f02611f67604085018561283c565b6040516001600160e01b031960e085901b168152611f8f929190602088013590600401612721565b602060405180830381600087803b158015611fa957600080fd5b505af1158015611fbd573d6000803e3d6000fd5b505050506040513d601f19601f82011682018060405250810190611fe1919061217e565b90506001600160a01b03811661202a5760405162461bcd60e51b815260206004820152600e60248201526d18dc99585d194c8819985a5b195960921b6044820152606401610645565b81356001600160a01b0316816001600160a01b0316146120985760405162461bcd60e51b8152602060048201526024808201527f73656e64657220646f65736e2774206d617463682063726561746532206164646044820152637265737360e01b6064820152608401610645565b505b50565b6001600160a01b0382351660009081526020819052604081208054839290611dc69084906001600160601b03166129a7565b60008183106120de578161081f565b5090919050565b80356120f081612b61565b919050565b60008083601f84011261210757600080fd5b5081356001600160401b0381111561211e57600080fd5b6020830191508360208260051b8501011115610d6957600080fd5b8035600381106120f057600080fd5b6000610180828403121561215b57600080fd5b50919050565b60006020828403121561217357600080fd5b813561081f81612b61565b60006020828403121561219057600080fd5b815161081f81612b61565b600080604083850312156121ae57600080fd5b82356121b981612b61565b946020939093013593505050565b6000806000606084860312156121dc57600080fd5b83356121e781612b61565b95602085013595506040909401359392505050565b6000806020838503121561220f57600080fd5b82356001600160401b0381111561222557600080fd5b612231858286016120f5565b90969095509350505050565b60008060006040848603121561225257600080fd5b83356001600160401b0381111561226857600080fd5b612274868287016120f5565b909450925050602084013561228881612b61565b809150509250925092565b6000602082840312156122a557600080fd5b81516001600160401b038111156122bb57600080fd5b8201601f810184136122cc57600080fd5b80516122d7816128a3565b6040516122e482826129ff565b8281528660208486010111156122f957600080fd5b61230a8360208301602087016129cf565b9695505050505050565b6000806040838503121561232757600080fd5b82356001600160401b0381111561233d57600080fd5b8301601f8101851361234e57600080fd5b8035612359816128a3565b60405161236682826129ff565b82815287602084860101111561237b57600080fd5b8260208501602083013760006020938201840152979590910135955050505050565b6000602082840312156123af57600080fd5b81356001600160401b038111156123c557600080fd5b6123d184828501612148565b949350505050565b600080604083850312156123ec57600080fd5b82356001600160401b0381111561240257600080fd5b61240e85828601612148565b925050602083013561241f81612b61565b809150509250929050565b60008060008060008060a0878903121561244357600080fd5b86356001600160401b038082111561245a57600080fd5b6124668a838b01612148565b9750602089013591508082111561247c57600080fd5b818901915089601f83011261249057600080fd5b81358181111561249f57600080fd5b8a60208285010111156124b157600080fd5b60208301975080965050505060408701359250606087013591506124d760808801612139565b90509295509295509295565b600080604083850312156124f657600080fd5b82356001600160401b0381111561250c57600080fd5b61251885828601612148565b95602094909401359450505050565b60006020828403121561253957600080fd5b5051919050565b60006020828403121561255257600080fd5b813563ffffffff8116811461081f57600080fd5b81835281816020850137506000828201602090810191909152601f909101601f19169091010190565b600081518084526125a78160208601602086016129cf565b601f01601f19169290920160200192915050565b60006101806125da846125cd856120e5565b6001600160a01b03169052565b602083013560208501526125f160408401846128ca565b8260408701526126048387018284612566565b9250505061261560608401846128ca565b8583036060870152612628838284612566565b925050506080830135608085015260a083013560a085015260c083013560c085015260e083013560e085015261010080840135818601525061012061266e8185016120e5565b6001600160a01b03169085015261014061268a848201856128ca565b8684038388015261269c848284612566565b93505050506101606126b0818501856128ca565b868403838801526126c2848284612566565b979650505050505050565b8183823760009101908152919050565b6020808252825182820181905260009190848201906040850190845b81811015612715578351835292840192918401916001016126f9565b50909695505050505050565b604081526000612735604083018587612566565b9050826020830152949350505050565b604081526000612758604083018561258f565b90508260208301529392505050565b61277084612b43565b838152606060208201526000612789606083018561258f565b9050826040830152949350505050565b60a0815260006127ac60a08301886125bb565b82810360208401526127be818861258f565b9150508460408301528360608301526127d683612b43565b8260808301529695505050505050565b60408152600061275860408301856125bb565b8381526001600160a01b03831660208201526060604082018190526000906107e39083018461258f565b8281526040602082015260006123d1604083018461258f565b6000808335601e1984360301811261285357600080fd5b8301803591506001600160401b0382111561286d57600080fd5b602001915036819003821315610d6957600080fd5b6000823561017e1983360301811261289957600080fd5b9190910192915050565b60006001600160401b038211156128bc576128bc612a88565b50601f01601f191660200190565b6000808335601e198436030181126128e157600080fd5b83016020810192503590506001600160401b0381111561290057600080fd5b803603831315610d6957600080fd5b6000821982111561292257612922612a46565b500190565b600063ffffffff80831681851680830382111561294657612946612a46565b01949350505050565b60006001600160601b0380831681851680830382111561294657612946612a46565b600081600019048311821515161561298b5761298b612a46565b500290565b6000828210156129a2576129a2612a46565b500390565b60006001600160601b03838116908316818110156129c7576129c7612a46565b039392505050565b60005b838110156129ea5781810151838201526020016129d2565b838111156129f9576000848401525b50505050565b601f8201601f191681016001600160401b0381118282101715612a2457612a24612a88565b6040525050565b6000600019821415612a3f57612a3f612a46565b5060010190565b634e487b7160e01b600052601160045260246000fd5b634e487b7160e01b600052602160045260246000fd5b634e487b7160e01b600052603260045260246000fd5b634e487b7160e01b600052604160045260246000fd5b600060033d1115612ab75760046000803e5060005160e01c5b90565b600060443d1015612ac85790565b6040516003193d81016004833e81513d6001600160401b038160248401118184111715612af757505050505090565b8285019150815181811115612b0f5750505050505090565b843d8701016020828501011115612b295750505050505090565b612b38602082860101876129ff565b509095945050505050565b6003811061209a57634e487b7160e01b600052602160045260246000fd5b6001600160a01b038116811461209a57600080fdfea26469706673582212207d15049d6b9c7e811e26d8092a0a93a7d0ccb320de507c9e54141a4480435a1c64736f6c63430008070033",
  "linkReferences": {},
  "deployedLinkReferences": {}
}