{
  "_format": "hh-sol-artifact-1",
  "contractName": "SimpleWallet",
  "sourceName": "contracts/samples/SimpleWallet.sol",
  "abi": [
    {
      "inputs": [
        {
          "internalType": "address",
          "name": "_singleton",
          "type": "address"
        },
        {
          "internalType": "address",
          "name": "_owner",
          "type": "address"
        }
      ],
      "stateMutability": "nonpayable",
      "type": "constructor"
    },
    {
      "anonymous": false,
      "inputs": [
        {
          "indexed": false,
          "internalType": "address",
          "name": "oldSingleton",
          "type": "address"
        },
        {
          "indexed": false,
          "internalType": "address",
          "name": "newSingleton",
          "type": "address"
        }
      ],
      "name": "SingletonChanged",
      "type": "event"
    },
    {
      "inputs": [
        {
          "internalType": "address",
          "name": "dest",
          "type": "address"
        },
        {
          "internalType": "bytes",
          "name": "func",
          "type": "bytes"
        }
      ],
      "name": "exec",
      "outputs": [],
      "stateMutability": "nonpayable",
      "type": "function"
    },
    {
      "inputs": [
        {
          "internalType": "bytes",
          "name": "func",
          "type": "bytes"
        }
      ],
      "name": "execFromSingleton",
      "outputs": [],
      "stateMutability": "nonpayable",
      "type": "function"
    },
    {
      "inputs": [],
      "name": "nonce",
      "outputs": [
        {
          "internalType": "uint256",
          "name": "",
          "type": "uint256"
        }
      ],
      "stateMutability": "view",
      "type": "function"
    },
    {
      "inputs": [],
      "name": "owner",
      "outputs": [
        {
          "internalType": "address",
          "name": "",
          "type": "address"
        }
      ],
      "stateMutability": "view",
      "type": "function"
    },
    {
      "inputs": [
        {
          "components": [
            {
              "internalType": "address",
              "name": "target",
              "type": "address"
            },
            {
              "internalType": "uint256",
              "name": "nonce",
              "type": "uint256"
            },
            {
              "internalType": "bytes",
              "name": "initCode",
              "type": "bytes"
            },
            {
              "internalType": "bytes",
              "name": "callData",
              "type": "bytes"
            },
            {
              "internalType": "uint256",
              "name": "callGas",
              "type": "uint256"
            },
            {
              "internalType": "uint256",
              "name": "verificationGas",
              "type": "uint256"
            },
            {
              "internalType": "uint256",
              "name": "maxFeePerGas",
              "type": "uint256"
            },
            {
              "internalType": "uint256",
              "name": "maxPriorityFeePerGas",
              "type": "uint256"
            },
            {
              "internalType": "address",
              "name": "paymaster",
              "type": "address"
            },
            {
              "internalType": "bytes",
              "name": "paymasterData",
              "type": "bytes"
            },
            {
              "internalType": "bytes",
              "name": "signature",
              "type": "bytes"
            }
          ],
          "internalType": "struct UserOperation",
          "name": "userOp",
          "type": "tuple"
        },
        {
          "internalType": "uint256",
          "name": "requiredPrefund",
          "type": "uint256"
        }
      ],
      "name": "payForSelfOp",
      "outputs": [],
      "stateMutability": "nonpayable",
      "type": "function"
    },
    {
      "inputs": [],
      "name": "singleton",
      "outputs": [
        {
          "internalType": "address",
          "name": "",
          "type": "address"
        }
      ],
      "stateMutability": "view",
      "type": "function"
    },
    {
      "inputs": [
        {
          "internalType": "address payable",
          "name": "dest",
          "type": "address"
        },
        {
          "internalType": "uint256",
          "name": "amount",
          "type": "uint256"
        }
      ],
      "name": "transfer",
      "outputs": [],
      "stateMutability": "nonpayable",
      "type": "function"
    },
    {
      "inputs": [
        {
          "internalType": "address",
          "name": "_singleton",
          "type": "address"
        }
      ],
      "name": "updateSingleton",
      "outputs": [],
      "stateMutability": "nonpayable",
      "type": "function"
    },
    {
      "stateMutability": "payable",
      "type": "receive"
    }
  ],
  "bytecode": "0x60806040523480156200001157600080fd5b50604051620017d2380380620017d28339818101604052810190620000379190620000d8565b81600260006101000a81548173ffffffffffffffffffffffffffffffffffffffff021916908373ffffffffffffffffffffffffffffffffffffffff16021790555080600160006101000a81548173ffffffffffffffffffffffffffffffffffffffff021916908373ffffffffffffffffffffffffffffffffffffffff160217905550505062000172565b600081519050620000d28162000158565b92915050565b60008060408385031215620000f257620000f162000153565b5b60006200010285828601620000c1565b92505060206200011585828601620000c1565b9150509250929050565b60006200012c8262000133565b9050919050565b600073ffffffffffffffffffffffffffffffffffffffff82169050919050565b600080fd5b62000163816200011f565b81146200016f57600080fd5b50565b61165080620001826000396000f3fe60806040526004361061007f5760003560e01c8063affed0e01161004e578063affed0e014610131578063b62654fb1461015c578063be6002c214610187578063d45109f4146101b057610086565b806341ed0e591461008b5780637c260d48146100b45780638da5cb5b146100dd578063a9059cbb1461010857610086565b3661008657005b600080fd5b34801561009757600080fd5b506100b260048036038101906100ad9190610c0a565b6101d9565b005b3480156100c057600080fd5b506100db60048036038101906100d69190610d64565b610280565b005b3480156100e957600080fd5b506100f2610369565b6040516100ff9190610f76565b60405180910390f35b34801561011457600080fd5b5061012f600480360381019061012a9190610c37565b61038f565b005b34801561013d57600080fd5b506101466103e2565b604051610153919061115b565b60405180910390f35b34801561016857600080fd5b506101716103e8565b60405161017e9190610f76565b60405180910390f35b34801561019357600080fd5b506101ae60048036038101906101a99190610c77565b61040e565b005b3480156101bc57600080fd5b506101d760048036038101906101d29190610d17565b610469565b005b6101e161054b565b7fbf7405b81de3cf3dde24b3ee97cd49371cee922e21a8a7960dfe8e31a0ef9425600260009054906101000a900473ffffffffffffffffffffffffffffffffffffffff1682604051610234929190610f91565b60405180910390a180600260006101000a81548173ffffffffffffffffffffffffffffffffffffffff021916908373ffffffffffffffffffffffffffffffffffffffff16021790555050565b600260009054906101000a900473ffffffffffffffffffffffffffffffffffffffff1673ffffffffffffffffffffffffffffffffffffffff163373ffffffffffffffffffffffffffffffffffffffff1614610310576040517f08c379a0000000000000000000000000000000000000000000000000000000008152600401610307906110fb565b60405180910390fd5b61031982610613565b610322826107b3565b600081146103655760003373ffffffffffffffffffffffffffffffffffffffff166108fc839081150290604051600060405180830381858888f193505050509050505b5050565b600160009054906101000a900473ffffffffffffffffffffffffffffffffffffffff1681565b61039761054b565b8173ffffffffffffffffffffffffffffffffffffffff166108fc829081150290604051600060405180830381858888f193505050501580156103dd573d6000803e3d6000fd5b505050565b60005481565b600260009054906101000a900473ffffffffffffffffffffffffffffffffffffffff1681565b61041661054b565b6104648383838080601f016020809104026020016040519081016040528093929190818152602001838380828437600081840152601f19601f82011690508083019250505050505050610811565b505050565b600260009054906101000a900473ffffffffffffffffffffffffffffffffffffffff1673ffffffffffffffffffffffffffffffffffffffff163373ffffffffffffffffffffffffffffffffffffffff16146104f9576040517f08c379a00000000000000000000000000000000000000000000000000000000081526004016104f0906110db565b60405180910390fd5b6105473083838080601f016020809104026020016040519081016040528093929190818152602001838380828437600081840152601f19601f82011690508083019250505050505050610811565b5050565b600160009054906101000a900473ffffffffffffffffffffffffffffffffffffffff1673ffffffffffffffffffffffffffffffffffffffff163373ffffffffffffffffffffffffffffffffffffffff1614806105d257503073ffffffffffffffffffffffffffffffffffffffff163373ffffffffffffffffffffffffffffffffffffffff16145b610611576040517f08c379a00000000000000000000000000000000000000000000000000000000081526004016106089061113b565b60405180910390fd5b565b600061061e82610892565b90506041828061014001906106339190611176565b905014610675576040517f08c379a000000000000000000000000000000000000000000000000000000000815260040161066c9061109b565b60405180910390fd5b600080838061014001906106899190611176565b8101906106969190610cd7565b915091506000848061014001906106ad9190611176565b60408181106106bf576106be6113ce565b5b9050013560f81c60f81b60f81c9050600184828585604051600081526020016040526040516106f19493929190611056565b6020604051602081039080840390855afa158015610713573d6000803e3d6000fd5b5050506020604051035173ffffffffffffffffffffffffffffffffffffffff16600160009054906101000a900473ffffffffffffffffffffffffffffffffffffffff1673ffffffffffffffffffffffffffffffffffffffff16146107ac576040517f08c379a00000000000000000000000000000000000000000000000000000000081526004016107a3906110bb565b60405180910390fd5b5050505050565b80602001356000808154809291906107ca9061134c565b919050551461080e576040517f08c379a00000000000000000000000000000000000000000000000000000000081526004016108059061111b565b60405180910390fd5b50565b6000808373ffffffffffffffffffffffffffffffffffffffff16836040516108399190610f39565b6000604051808303816000865af19150503d8060008114610876576040519150601f19603f3d011682016040523d82523d6000602084013e61087b565b606091505b50915091508161088c576020810181fd5b50505050565b60006108a6826108a1906112c6565b6108da565b805190602001206040516020016108bd9190610f50565b604051602081830303815290604052805190602001209050919050565b60608160000151826020015183604001518051906020012084606001518051906020012085608001518660a001518760c001518860e001518961010001518a61012001518051906020012060405160200161093e9a99989796959493929190610fba565b6040516020818303038152906040529050919050565b6000610967610962846111fe565b6111d9565b90508281526020810184848401111561098357610982611459565b5b61098e8482856112d9565b509392505050565b6000813590506109a5816115be565b92915050565b6000813590506109ba816115d5565b92915050565b6000813590506109cf816115ec565b92915050565b60008083601f8401126109eb576109ea611431565b5b8235905067ffffffffffffffff811115610a0857610a0761142c565b5b602083019150836001820283011115610a2457610a2361144f565b5b9250929050565b600082601f830112610a4057610a3f611431565b5b8135610a50848260208601610954565b91505092915050565b60006101608284031215610a7057610a6f61143b565b5b81905092915050565b60006101608284031215610a9057610a8f611440565b5b610a9b6101606111d9565b90506000610aab84828501610996565b6000830152506020610abf84828501610bf5565b602083015250604082013567ffffffffffffffff811115610ae357610ae261144a565b5b610aef84828501610a2b565b604083015250606082013567ffffffffffffffff811115610b1357610b1261144a565b5b610b1f84828501610a2b565b6060830152506080610b3384828501610bf5565b60808301525060a0610b4784828501610bf5565b60a08301525060c0610b5b84828501610bf5565b60c08301525060e0610b6f84828501610bf5565b60e083015250610100610b8484828501610996565b6101008301525061012082013567ffffffffffffffff811115610baa57610ba961144a565b5b610bb684828501610a2b565b6101208301525061014082013567ffffffffffffffff811115610bdc57610bdb61144a565b5b610be884828501610a2b565b6101408301525092915050565b600081359050610c0481611603565b92915050565b600060208284031215610c2057610c1f611463565b5b6000610c2e84828501610996565b91505092915050565b60008060408385031215610c4e57610c4d611463565b5b6000610c5c858286016109ab565b9250506020610c6d85828601610bf5565b9150509250929050565b600080600060408486031215610c9057610c8f611463565b5b6000610c9e86828701610996565b935050602084013567ffffffffffffffff811115610cbf57610cbe61145e565b5b610ccb868287016109d5565b92509250509250925092565b60008060408385031215610cee57610ced611463565b5b6000610cfc858286016109c0565b9250506020610d0d858286016109c0565b9150509250929050565b60008060208385031215610d2e57610d2d611463565b5b600083013567ffffffffffffffff811115610d4c57610d4b61145e565b5b610d58858286016109d5565b92509250509250929050565b60008060408385031215610d7b57610d7a611463565b5b600083013567ffffffffffffffff811115610d9957610d9861145e565b5b610da585828601610a59565b9250506020610db685828601610bf5565b9150509250929050565b610dc981611261565b82525050565b610dd881611285565b82525050565b610def610dea82611285565b611395565b82525050565b6000610e008261122f565b610e0a818561123a565b9350610e1a8185602086016112e8565b80840191505092915050565b6000610e33601c83611256565b9150610e3e82611479565b601c82019050919050565b6000610e56602083611245565b9150610e61826114a2565b602082019050919050565b6000610e79601783611245565b9150610e84826114cb565b602082019050919050565b6000610e9c602683611245565b9150610ea7826114f4565b604082019050919050565b6000610ebf601a83611245565b9150610eca82611543565b602082019050919050565b6000610ee2601583611245565b9150610eed8261156c565b602082019050919050565b6000610f05600a83611245565b9150610f1082611595565b602082019050919050565b610f24816112af565b82525050565b610f33816112b9565b82525050565b6000610f458284610df5565b915081905092915050565b6000610f5b82610e26565b9150610f678284610dde565b60208201915081905092915050565b6000602082019050610f8b6000830184610dc0565b92915050565b6000604082019050610fa66000830185610dc0565b610fb36020830184610dc0565b9392505050565b600061014082019050610fd0600083018d610dc0565b610fdd602083018c610f1b565b610fea604083018b610dcf565b610ff7606083018a610dcf565b6110046080830189610f1b565b61101160a0830188610f1b565b61101e60c0830187610f1b565b61102b60e0830186610f1b565b611039610100830185610dc0565b611047610120830184610dcf565b9b9a5050505050505050505050565b600060808201905061106b6000830187610dcf565b6110786020830186610f2a565b6110856040830185610dcf565b6110926060830184610dcf565b95945050505050565b600060208201905081810360008301526110b481610e49565b9050919050565b600060208201905081810360008301526110d481610e6c565b9050919050565b600060208201905081810360008301526110f481610e8f565b9050919050565b6000602082019050818103600083015261111481610eb2565b9050919050565b6000602082019050818103600083015261113481610ed5565b9050919050565b6000602082019050818103600083015261115481610ef8565b9050919050565b60006020820190506111706000830184610f1b565b92915050565b6000808335600160200384360303811261119357611192611445565b5b80840192508235915067ffffffffffffffff8211156111b5576111b4611436565b5b6020830192506001820236038313156111d1576111d0611454565b5b509250929050565b60006111e36111f4565b90506111ef828261131b565b919050565b6000604051905090565b600067ffffffffffffffff821115611219576112186113fd565b5b61122282611468565b9050602081019050919050565b600081519050919050565b600081905092915050565b600082825260208201905092915050565b600081905092915050565b600061126c8261128f565b9050919050565b600061127e8261128f565b9050919050565b6000819050919050565b600073ffffffffffffffffffffffffffffffffffffffff82169050919050565b6000819050919050565b600060ff82169050919050565b60006112d23683610a79565b9050919050565b82818337600083830152505050565b60005b838110156113065780820151818401526020810190506112eb565b83811115611315576000848401525b50505050565b61132482611468565b810181811067ffffffffffffffff82111715611343576113426113fd565b5b80604052505050565b6000611357826112af565b91507fffffffffffffffffffffffffffffffffffffffffffffffffffffffffffffffff82141561138a5761138961139f565b5b600182019050919050565b6000819050919050565b7f4e487b7100000000000000000000000000000000000000000000000000000000600052601160045260246000fd5b7f4e487b7100000000000000000000000000000000000000000000000000000000600052603260045260246000fd5b7f4e487b7100000000000000000000000000000000000000000000000000000000600052604160045260246000fd5b600080fd5b600080fd5b600080fd5b600080fd5b600080fd5b600080fd5b600080fd5b600080fd5b600080fd5b600080fd5b600080fd5b600080fd5b6000601f19601f8301169050919050565b7f19457468657265756d205369676e6564204d6573736167653a0a333200000000600082015250565b7f77616c6c65743a20696e76616c6964207369676e6174757265206c656e677468600082015250565b7f77616c6c65743a2077726f6e67207369676e6174757265000000000000000000600082015250565b7f6578656346726f6d53696e676c65746f6e3a206f6e6c792066726f6d2073696e60008201527f676c65746f6e0000000000000000000000000000000000000000000000000000602082015250565b7f77616c6c65743a206e6f742066726f6d2053696e676c65746f6e000000000000600082015250565b7f77616c6c65743a20696e76616c6964206e6f6e63650000000000000000000000600082015250565b7f6f6e6c79206f776e657200000000000000000000000000000000000000000000600082015250565b6115c781611261565b81146115d257600080fd5b50565b6115de81611273565b81146115e957600080fd5b50565b6115f581611285565b811461160057600080fd5b50565b61160c816112af565b811461161757600080fd5b5056fea2646970667358221220e61f795fdc590e50053dc11d204362c7ccaefb209c40413ccc9792f78576fe8264736f6c63430008070033",
  "linkReferences": {},
  "deployedLinkReferences": {}
}