{
  "_format": "hh-sol-artifact-1",
  "contractName": "SimpleWallet",
  "sourceName": "contracts/samples/SimpleWallet.sol",
  "abi": [
    {
      "inputs": [
        {
          "internalType": "address",
          "name": "_entryPoint",
          "type": "address"
        },
        {
          "internalType": "address",
          "name": "_owner",
          "type": "address"
        }
      ],
      "stateMutability": "nonpayable",
      "type": "constructor"
    },
    {
      "anonymous": false,
      "inputs": [
        {
          "indexed": false,
          "internalType": "address",
          "name": "oldEntryPoint",
          "type": "address"
        },
        {
          "indexed": false,
          "internalType": "address",
          "name": "newEntryPoint",
          "type": "address"
        }
      ],
      "name": "EntryPointChanged",
      "type": "event"
    },
    {
      "inputs": [],
      "name": "entryPoint",
      "outputs": [
        {
          "internalType": "address",
          "name": "",
          "type": "address"
        }
      ],
      "stateMutability": "view",
      "type": "function"
    },
    {
      "inputs": [
        {
          "internalType": "address",
          "name": "dest",
          "type": "address"
        },
        {
          "internalType": "bytes",
          "name": "func",
          "type": "bytes"
        }
      ],
      "name": "exec",
      "outputs": [],
      "stateMutability": "nonpayable",
      "type": "function"
    },
    {
      "inputs": [
        {
          "internalType": "bytes",
          "name": "func",
          "type": "bytes"
        }
      ],
      "name": "execFromEntryPoint",
      "outputs": [],
      "stateMutability": "nonpayable",
      "type": "function"
    },
    {
      "inputs": [],
      "name": "nonce",
      "outputs": [
        {
          "internalType": "uint256",
          "name": "",
          "type": "uint256"
        }
      ],
      "stateMutability": "view",
      "type": "function"
    },
    {
      "inputs": [],
      "name": "owner",
      "outputs": [
        {
          "internalType": "address",
          "name": "",
          "type": "address"
        }
      ],
      "stateMutability": "view",
      "type": "function"
    },
    {
      "inputs": [
        {
          "internalType": "address payable",
          "name": "dest",
          "type": "address"
        },
        {
          "internalType": "uint256",
          "name": "amount",
          "type": "uint256"
        }
      ],
      "name": "transfer",
      "outputs": [],
      "stateMutability": "nonpayable",
      "type": "function"
    },
    {
      "inputs": [
        {
          "internalType": "address",
          "name": "_entryPoint",
          "type": "address"
        }
      ],
      "name": "updateEntryPoint",
      "outputs": [],
      "stateMutability": "nonpayable",
      "type": "function"
    },
    {
      "inputs": [
        {
          "components": [
            {
              "internalType": "address",
              "name": "sender",
              "type": "address"
            },
            {
              "internalType": "uint256",
              "name": "nonce",
              "type": "uint256"
            },
            {
              "internalType": "bytes",
              "name": "initCode",
              "type": "bytes"
            },
            {
              "internalType": "bytes",
              "name": "callData",
              "type": "bytes"
            },
            {
              "internalType": "uint256",
              "name": "callGas",
              "type": "uint256"
            },
            {
              "internalType": "uint256",
              "name": "verificationGas",
              "type": "uint256"
            },
            {
              "internalType": "uint256",
              "name": "preVerificationGas",
              "type": "uint256"
            },
            {
              "internalType": "uint256",
              "name": "maxFeePerGas",
              "type": "uint256"
            },
            {
              "internalType": "uint256",
              "name": "maxPriorityFeePerGas",
              "type": "uint256"
            },
            {
              "internalType": "address",
              "name": "paymaster",
              "type": "address"
            },
            {
              "internalType": "bytes",
              "name": "paymasterData",
              "type": "bytes"
            },
            {
              "internalType": "bytes",
              "name": "signature",
              "type": "bytes"
            }
          ],
          "internalType": "struct UserOperation",
          "name": "userOp",
          "type": "tuple"
        },
        {
          "internalType": "uint256",
          "name": "requiredPrefund",
          "type": "uint256"
        }
      ],
      "name": "verifyUserOp",
      "outputs": [],
      "stateMutability": "nonpayable",
      "type": "function"
    },
    {
      "stateMutability": "payable",
      "type": "receive"
    }
  ],
  "bytecode": "0x608060405234801561001057600080fd5b50604051610d47380380610d4783398101604081905261002f9161007c565b600280546001600160a01b039384166001600160a01b031991821617909155600180549290931691161790556100af565b80516001600160a01b038116811461007757600080fd5b919050565b6000806040838503121561008f57600080fd5b61009883610060565b91506100a660208401610060565b90509250929050565b610c89806100be6000396000f3fe60806040526004361061007f5760003560e01c8063affed0e01161004e578063affed0e01461012a578063b0d691fe1461014e578063be6002c21461016e578063fbfb39e01461018e57600080fd5b80631b71bb6e1461008b57806381375a68146100ad5780638da5cb5b146100cd578063a9059cbb1461010a57600080fd5b3661008657005b600080fd5b34801561009757600080fd5b506100ab6100a63660046108d4565b6101ae565b005b3480156100b957600080fd5b506100ab6100c836600461099b565b61021f565b3480156100d957600080fd5b506001546100ed906001600160a01b031681565b6040516001600160a01b0390911681526020015b60405180910390f35b34801561011657600080fd5b506100ab6101253660046108f8565b6102d3565b34801561013657600080fd5b5061014060005481565b604051908152602001610101565b34801561015a57600080fd5b506002546100ed906001600160a01b031681565b34801561017a57600080fd5b506100ab610189366004610924565b610316565b34801561019a57600080fd5b506100ab6101a93660046109dd565b61035e565b6101b66103f3565b600254604080516001600160a01b03928316815291831660208301527f450909c1478d09248269d4ad4fa8cba61ca3f50faed58c7aedefa51c7f62b83a910160405180910390a1600280546001600160a01b0319166001600160a01b0392909216919091179055565b6002546001600160a01b0316331461028f5760405162461bcd60e51b815260206004820152602860248201527f6578656346726f6d456e747279506f696e743a206f6e6c792066726f6d20656e6044820152671d1c9e541bda5b9d60c21b60648201526084015b60405180910390fd5b6102cf3083838080601f01602080910402602001604051908101604052809392919081815260200183838082843760009201919091525061044692505050565b5050565b6102db6103f3565b6040516001600160a01b0383169082156108fc029083906000818181858888f19350505050158015610311573d6000803e3d6000fd5b505050565b61031e6103f3565b6103118383838080601f01602080910402602001604051908101604052809392919081815260200183838082843760009201919091525061044692505050565b6002546001600160a01b031633146103b85760405162461bcd60e51b815260206004820152601b60248201527f77616c6c65743a206e6f742066726f6d20456e747279506f696e7400000000006044820152606401610286565b6103c1826104ba565b6103ca82610634565b80156102cf57604051600090339083156108fc0290849084818181858888f15050505050505050565b6001546001600160a01b031633148061040b57503330145b6104445760405162461bcd60e51b815260206004820152600a60248201526937b7363c9037bbb732b960b11b6044820152606401610286565b565b600080836001600160a01b0316836040516104619190610a1a565b6000604051808303816000865af19150503d806000811461049e576040519150601f19603f3d011682016040523d82523d6000602084013e6104a3565b606091505b5091509150816104b4576020810181fd5b50505050565b60006104c5826106a9565b90506104d5610160830183610a55565b90506041146105265760405162461bcd60e51b815260206004820181905260248201527f77616c6c65743a20696e76616c6964207369676e6174757265206c656e6774686044820152606401610286565b600080610537610160850185610a55565b8101906105449190610979565b90925090506000610559610160860186610a55565b604081811061056a5761056a610c12565b604080516000815260208101808352899052939091013560f81c9083018190526060830186905260808301859052925060019160a00190506020604051602081039080840390855afa1580156105c4573d6000803e3d6000fd5b5050604051601f1901516001546001600160a01b03908116911614905061062d5760405162461bcd60e51b815260206004820152601760248201527f77616c6c65743a2077726f6e67207369676e61747572650000000000000000006044820152606401610286565b5050505050565b6106416040820182610a55565b151590506106a657600080546020830135918061065d83610be9565b91905055146106a65760405162461bcd60e51b815260206004820152601560248201527477616c6c65743a20696e76616c6964206e6f6e636560581b6044820152606401610286565b50565b60006106bc6106b783610ac6565b610714565b80516020918201206040517f19457468657265756d205369676e6564204d6573736167653a0a33320000000092810192909252603c820152605c01604051602081830303815290604052805190602001209050919050565b60608160000151826020015183604001518051906020012084606001518051906020012085608001518660a001518760c001518860e001518961010001518a61012001518b6101400151805190602001206040516020016107d89b9a999897969594939291906001600160a01b039b8c168152602081019a909a5260408a01989098526060890196909652608088019490945260a087019290925260c086015260e08501526101008401529092166101208201526101408101919091526101600190565b6040516020818303038152906040529050919050565b80356107f981610c3e565b919050565b60008083601f84011261081057600080fd5b50813567ffffffffffffffff81111561082857600080fd5b60208301915083602082850101111561084057600080fd5b9250929050565b600082601f83011261085857600080fd5b813567ffffffffffffffff8082111561087357610873610c28565b604051601f8301601f19908116603f0116810190828211818310171561089b5761089b610c28565b816040528381528660208588010111156108b457600080fd5b836020870160208301376000602085830101528094505050505092915050565b6000602082840312156108e657600080fd5b81356108f181610c3e565b9392505050565b6000806040838503121561090b57600080fd5b823561091681610c3e565b946020939093013593505050565b60008060006040848603121561093957600080fd5b833561094481610c3e565b9250602084013567ffffffffffffffff81111561096057600080fd5b61096c868287016107fe565b9497909650939450505050565b6000806040838503121561098c57600080fd5b50508035926020909101359150565b600080602083850312156109ae57600080fd5b823567ffffffffffffffff8111156109c557600080fd5b6109d1858286016107fe565b90969095509350505050565b600080604083850312156109f057600080fd5b823567ffffffffffffffff811115610a0757600080fd5b8301610180818603121561091657600080fd5b6000825160005b81811015610a3b5760208186018101518583015201610a21565b81811115610a4a576000828501525b509190910192915050565b6000808335601e19843603018112610a6c57600080fd5b83018035915067ffffffffffffffff821115610a8757600080fd5b60200191503681900382131561084057600080fd5b604051610180810167ffffffffffffffff81118282101715610ac057610ac0610c28565b60405290565b60006101808236031215610ad957600080fd5b610ae1610a9c565b610aea836107ee565b815260208301356020820152604083013567ffffffffffffffff80821115610b1157600080fd5b610b1d36838701610847565b60408401526060850135915080821115610b3657600080fd5b610b4236838701610847565b60608401526080850135608084015260a085013560a084015260c085013560c084015260e085013560e0840152610100915081850135828401526101209150610b8c8286016107ee565b8284015261014091508185013581811115610ba657600080fd5b610bb236828801610847565b838501525061016091508185013581811115610bcd57600080fd5b610bd936828801610847565b8385015250505080915050919050565b6000600019821415610c0b57634e487b7160e01b600052601160045260246000fd5b5060010190565b634e487b7160e01b600052603260045260246000fd5b634e487b7160e01b600052604160045260246000fd5b6001600160a01b03811681146106a657600080fdfea264697066735822122049bad2979ef7c4237469d6feff854a85fcad3553e4ec9389229cc1c5e0b3e9bf64736f6c63430008070033",
  "linkReferences": {},
  "deployedLinkReferences": {}
}