{
  "_format": "hh-sol-artifact-1",
  "contractName": "SimpleWallet",
  "sourceName": "contracts/samples/SimpleWallet.sol",
  "abi": [
    {
      "inputs": [
        {
          "internalType": "contract EntryPoint",
          "name": "_entryPoint",
          "type": "address"
        },
        {
          "internalType": "address",
          "name": "_owner",
          "type": "address"
        }
      ],
      "stateMutability": "nonpayable",
      "type": "constructor"
    },
    {
      "anonymous": false,
      "inputs": [
        {
          "indexed": false,
          "internalType": "contract EntryPoint",
          "name": "oldEntryPoint",
          "type": "address"
        },
        {
          "indexed": false,
          "internalType": "contract EntryPoint",
          "name": "newEntryPoint",
          "type": "address"
        }
      ],
      "name": "EntryPointChanged",
      "type": "event"
    },
    {
      "inputs": [],
      "name": "addDeposit",
      "outputs": [],
      "stateMutability": "payable",
      "type": "function"
    },
    {
      "inputs": [],
      "name": "entryPoint",
      "outputs": [
        {
          "internalType": "contract EntryPoint",
          "name": "",
          "type": "address"
        }
      ],
      "stateMutability": "view",
      "type": "function"
    },
    {
      "inputs": [
        {
          "internalType": "address",
          "name": "dest",
          "type": "address"
        },
        {
          "internalType": "uint256",
          "name": "value",
          "type": "uint256"
        },
        {
          "internalType": "bytes",
          "name": "func",
          "type": "bytes"
        }
      ],
      "name": "exec",
      "outputs": [],
      "stateMutability": "nonpayable",
      "type": "function"
    },
    {
      "inputs": [
        {
          "internalType": "address[]",
          "name": "dest",
          "type": "address[]"
        },
        {
          "internalType": "bytes[]",
          "name": "func",
          "type": "bytes[]"
        }
      ],
      "name": "execBatch",
      "outputs": [],
      "stateMutability": "nonpayable",
      "type": "function"
    },
    {
      "inputs": [
        {
          "internalType": "address",
          "name": "dest",
          "type": "address"
        },
        {
          "internalType": "uint256",
          "name": "value",
          "type": "uint256"
        },
        {
          "internalType": "bytes",
          "name": "func",
          "type": "bytes"
        }
      ],
      "name": "execFromEntryPoint",
      "outputs": [],
      "stateMutability": "nonpayable",
      "type": "function"
    },
    {
      "inputs": [],
      "name": "getDeposit",
      "outputs": [
        {
          "internalType": "uint256",
          "name": "",
          "type": "uint256"
        }
      ],
      "stateMutability": "view",
      "type": "function"
    },
    {
      "inputs": [],
      "name": "nonce",
      "outputs": [
        {
          "internalType": "uint256",
          "name": "",
          "type": "uint256"
        }
      ],
      "stateMutability": "view",
      "type": "function"
    },
    {
      "inputs": [],
      "name": "owner",
      "outputs": [
        {
          "internalType": "address",
          "name": "",
          "type": "address"
        }
      ],
      "stateMutability": "view",
      "type": "function"
    },
    {
      "inputs": [
        {
          "internalType": "address payable",
          "name": "dest",
          "type": "address"
        },
        {
          "internalType": "uint256",
          "name": "amount",
          "type": "uint256"
        }
      ],
      "name": "transfer",
      "outputs": [],
      "stateMutability": "nonpayable",
      "type": "function"
    },
    {
      "inputs": [
        {
          "internalType": "contract EntryPoint",
          "name": "_entryPoint",
          "type": "address"
        }
      ],
      "name": "updateEntryPoint",
      "outputs": [],
      "stateMutability": "nonpayable",
      "type": "function"
    },
    {
      "inputs": [
        {
          "components": [
            {
              "internalType": "address",
              "name": "sender",
              "type": "address"
            },
            {
              "internalType": "uint256",
              "name": "nonce",
              "type": "uint256"
            },
            {
              "internalType": "bytes",
              "name": "initCode",
              "type": "bytes"
            },
            {
              "internalType": "bytes",
              "name": "callData",
              "type": "bytes"
            },
            {
              "internalType": "uint256",
              "name": "callGas",
              "type": "uint256"
            },
            {
              "internalType": "uint256",
              "name": "verificationGas",
              "type": "uint256"
            },
            {
              "internalType": "uint256",
              "name": "preVerificationGas",
              "type": "uint256"
            },
            {
              "internalType": "uint256",
              "name": "maxFeePerGas",
              "type": "uint256"
            },
            {
              "internalType": "uint256",
              "name": "maxPriorityFeePerGas",
              "type": "uint256"
            },
            {
              "internalType": "address",
              "name": "paymaster",
              "type": "address"
            },
            {
              "internalType": "bytes",
              "name": "paymasterData",
              "type": "bytes"
            },
            {
              "internalType": "bytes",
              "name": "signature",
              "type": "bytes"
            }
          ],
          "internalType": "struct UserOperation",
          "name": "userOp",
          "type": "tuple"
        },
        {
          "internalType": "bytes32",
          "name": "requestId",
          "type": "bytes32"
        },
        {
          "internalType": "uint256",
          "name": "requiredPrefund",
          "type": "uint256"
        }
      ],
      "name": "validateUserOp",
      "outputs": [],
      "stateMutability": "nonpayable",
      "type": "function"
    },
    {
      "inputs": [
        {
          "internalType": "address payable",
          "name": "withdrawAddress",
          "type": "address"
        },
        {
          "internalType": "uint256",
          "name": "amount",
          "type": "uint256"
        }
      ],
      "name": "withdrawDepositTo",
      "outputs": [],
      "stateMutability": "nonpayable",
      "type": "function"
    },
    {
      "stateMutability": "payable",
      "type": "receive"
    }
  ],
  "bytecode": "0x608060405234801561001057600080fd5b5060405161107738038061107783398101604081905261002f91610077565b600180546001600160a01b039384166001600160a01b031990911617905560008054919092166c01000000000000000000000000026001600160601b039091161790556100c9565b6000806040838503121561008a57600080fd5b8251610095816100b1565b60208401519092506100a6816100b1565b809150509250929050565b6001600160a01b03811681146100c657600080fd5b50565b610f9f806100d86000396000f3fe6080604052600436106100ab5760003560e01c8063a9059cbb11610064578063a9059cbb1461017f578063affed0e01461019f578063b0d691fe146101c7578063c399ec88146101e7578063d0cb75fa146101fc578063fcbac1f41461021c57600080fd5b80630565bb67146100b75780631b71bb6e146100d95780634a58db19146100f95780634d44560d1461010157806380c5c7d0146101215780638da5cb5b1461014157600080fd5b366100b257005b600080fd5b3480156100c357600080fd5b506100d76100d2366004610cec565b61023c565b005b3480156100e557600080fd5b506100d76100f4366004610c9c565b61028b565b6100d76102fc565b34801561010d57600080fd5b506100d761011c366004610cc0565b61035f565b34801561012d57600080fd5b506100d761013c366004610cec565b6103d1565b34801561014d57600080fd5b50600054600160601b90046001600160a01b03165b6040516001600160a01b0390911681526020015b60405180910390f35b34801561018b57600080fd5b506100d761019a366004610cc0565b6103d9565b3480156101ab57600080fd5b506000546001600160601b03165b604051908152602001610176565b3480156101d357600080fd5b50600154610162906001600160a01b031681565b3480156101f357600080fd5b506101b961041c565b34801561020857600080fd5b506100d7610217366004610d75565b61049d565b34801561022857600080fd5b506100d7610237366004610de1565b61059d565b6102446105c1565b610285848484848080601f01602080910402602001604051908101604052809392919081815260200183838082843760009201919091525061061b92505050565b50505050565b6102936105c1565b600154604080516001600160a01b03928316815291831660208301527f450909c1478d09248269d4ad4fa8cba61ca3f50faed58c7aedefa51c7f62b83a910160405180910390a1600180546001600160a01b0319166001600160a01b0392909216919091179055565b6001546040516000916001600160a01b03169034908381818185875af1925050503d8060008114610349576040519150601f19603f3d011682016040523d82523d6000602084013e61034e565b606091505b505090508061035c57600080fd5b50565b6103676105c1565b60015460405163040b850f60e31b81526001600160a01b038481166004830152602482018490529091169063205c287890604401600060405180830381600087803b1580156103b557600080fd5b505af11580156103c9573d6000803e3d6000fd5b505050505050565b61024461068b565b6103e16105c1565b6040516001600160a01b0383169082156108fc029083906000818181858888f19350505050158015610417573d6000803e3d6000fd5b505050565b6001546040516370a0823160e01b81523060048201526000916001600160a01b0316906370a082319060240160206040518083038186803b15801561046057600080fd5b505afa158015610474573d6000803e3d6000fd5b505050506040513d601f19601f820116820180604052508101906104989190610e35565b905090565b6104a56105c1565b8281146104ef5760405162461bcd60e51b815260206004820152601360248201527277726f6e67206172726179206c656e6774687360681b60448201526064015b60405180910390fd5b60005b838110156105965761058485858381811061050f5761050f610f3e565b90506020020160208101906105249190610c9c565b600085858581811061053857610538610f3e565b905060200281019061054a9190610e89565b8080601f01602080910402602001604051908101604052809392919081815260200183838082843760009201919091525061061b92505050565b8061058e81610ed0565b9150506104f2565b5050505050565b6105a561068b565b6105af83836106e5565b6105b883610807565b610417816108ae565b600054600160601b90046001600160a01b03163314806105e057503330145b6106195760405162461bcd60e51b815260206004820152600a60248201526937b7363c9037bbb732b960b11b60448201526064016104e6565b565b600080846001600160a01b031684846040516106379190610e4e565b60006040518083038185875af1925050503d8060008114610674576040519150601f19603f3d011682016040523d82523d6000602084013e610679565b606091505b50915091508161059657805160208201fd5b6001546001600160a01b031633146106195760405162461bcd60e51b815260206004820152601b60248201527f77616c6c65743a206e6f742066726f6d20456e747279506f696e74000000000060448201526064016104e6565b600061073e826040517f19457468657265756d205369676e6564204d6573736167653a0a3332000000006020820152603c8101829052600090605c01604051602081830303815290604052805190602001209050919050565b905061078e610751610160850185610e89565b8080601f01602080910402602001604051908101604052809392919081815260200183838082843760009201919091525085939250506108fb9050565b6001600160a01b03166107b16000546001600160a01b03600160601b9091041690565b6001600160a01b0316146104175760405162461bcd60e51b815260206004820152601760248201527f77616c6c65743a2077726f6e67207369676e617475726500000000000000000060448201526064016104e6565b6108146040820182610e89565b1515905061035c57600080546020830135916001600160601b03909116908061083c83610eeb565b91906101000a8154816001600160601b0302191690836001600160601b031602179055506001600160601b03161461035c5760405162461bcd60e51b815260206004820152601560248201527477616c6c65743a20696e76616c6964206e6f6e636560581b60448201526064016104e6565b801561035c57604051600090339060001990849084818181858888f193505050503d8060008114610596576040519150601f19603f3d011682016040523d82523d6000602084013e610596565b600080600061090a858561091f565b915091506109178161098f565b509392505050565b6000808251604114156109565760208301516040840151606085015160001a61094a87828585610b4a565b94509450505050610988565b8251604014156109805760208301516040840151610975868383610be6565b935093505050610988565b506000905060025b9250929050565b60008160048111156109a3576109a3610f28565b14156109ac5750565b60018160048111156109c0576109c0610f28565b1415610a0e5760405162461bcd60e51b815260206004820152601860248201527f45434453413a20696e76616c6964207369676e6174757265000000000000000060448201526064016104e6565b6002816004811115610a2257610a22610f28565b1415610a705760405162461bcd60e51b815260206004820152601f60248201527f45434453413a20696e76616c6964207369676e6174757265206c656e6774680060448201526064016104e6565b6003816004811115610a8457610a84610f28565b1415610add5760405162461bcd60e51b815260206004820152602260248201527f45434453413a20696e76616c6964207369676e6174757265202773272076616c604482015261756560f01b60648201526084016104e6565b6004816004811115610af157610af1610f28565b141561035c5760405162461bcd60e51b815260206004820152602260248201527f45434453413a20696e76616c6964207369676e6174757265202776272076616c604482015261756560f01b60648201526084016104e6565b6000807f7fffffffffffffffffffffffffffffff5d576e7357a4501ddfe92f46681b20a0831115610b815750600090506003610bdd565b8460ff16601b14158015610b9957508460ff16601c14155b15610baa5750600090506004610bdd565b6000610bb887878787610c15565b90506001600160a01b038116610bd657600060019250925050610bdd565b9150600090505b94509492505050565b6000806001600160ff1b03831660ff84901c601b01610c0787828885610b4a565b935093505050935093915050565b6000806040518681528560208201528460408201528360608201526020816080836001600019fa91508051925060008152600060208201525050949350505050565b60008083601f840112610c6957600080fd5b50813567ffffffffffffffff811115610c8157600080fd5b6020830191508360208260051b850101111561098857600080fd5b600060208284031215610cae57600080fd5b8135610cb981610f54565b9392505050565b60008060408385031215610cd357600080fd5b8235610cde81610f54565b946020939093013593505050565b60008060008060608587031215610d0257600080fd5b8435610d0d81610f54565b935060208501359250604085013567ffffffffffffffff80821115610d3157600080fd5b818701915087601f830112610d4557600080fd5b813581811115610d5457600080fd5b886020828501011115610d6657600080fd5b95989497505060200194505050565b60008060008060408587031215610d8b57600080fd5b843567ffffffffffffffff80821115610da357600080fd5b610daf88838901610c57565b90965094506020870135915080821115610dc857600080fd5b50610dd587828801610c57565b95989497509550505050565b600080600060608486031215610df657600080fd5b833567ffffffffffffffff811115610e0d57600080fd5b84016101808187031215610e2057600080fd5b95602085013595506040909401359392505050565b600060208284031215610e4757600080fd5b5051919050565b6000825160005b81811015610e6f5760208186018101518583015201610e55565b81811115610e7e576000828501525b509190910192915050565b6000808335601e19843603018112610ea057600080fd5b83018035915067ffffffffffffffff821115610ebb57600080fd5b60200191503681900382131561098857600080fd5b6000600019821415610ee457610ee4610f12565b5060010190565b60006001600160601b0380831681811415610f0857610f08610f12565b6001019392505050565b634e487b7160e01b600052601160045260246000fd5b634e487b7160e01b600052602160045260246000fd5b634e487b7160e01b600052603260045260246000fd5b6001600160a01b038116811461035c57600080fdfea26469706673582212209f50e3390f4408ad1afc9decdfac665777617615ff81e0d0e7c7e5f9a95277e264736f6c63430008070033",
  "linkReferences": {},
  "deployedLinkReferences": {}
}