{
  "_format": "hh-sol-artifact-1",
  "contractName": "TestCounter",
  "sourceName": "contracts/test/TestCounter.sol",
  "abi": [
    {
      "inputs": [],
      "name": "count",
      "outputs": [],
      "stateMutability": "nonpayable",
      "type": "function"
    },
    {
      "inputs": [
        {
          "internalType": "address",
          "name": "",
          "type": "address"
        }
      ],
      "name": "counters",
      "outputs": [
        {
          "internalType": "uint256",
          "name": "",
          "type": "uint256"
        }
      ],
      "stateMutability": "view",
      "type": "function"
    }
  ],
  "bytecode": "0x608060405234801561001057600080fd5b5061029b806100206000396000f3fe608060405234801561001057600080fd5b50600436106100365760003560e01c806306661abd1461003b578063be65ab8c14610045575b600080fd5b610043610075565b005b61005f600480360381019061005a9190610131565b610104565b60405161006c919061016d565b60405180910390f35b60016000803373ffffffffffffffffffffffffffffffffffffffff1673ffffffffffffffffffffffffffffffffffffffff168152602001908152602001600020546100c09190610188565b6000803373ffffffffffffffffffffffffffffffffffffffff1673ffffffffffffffffffffffffffffffffffffffff16815260200190815260200160002081905550565b60006020528060005260406000206000915090505481565b60008135905061012b8161024e565b92915050565b60006020828403121561014757610146610249565b5b60006101558482850161011c565b91505092915050565b61016781610210565b82525050565b6000602082019050610182600083018461015e565b92915050565b600061019382610210565b915061019e83610210565b9250827fffffffffffffffffffffffffffffffffffffffffffffffffffffffffffffffff038211156101d3576101d261021a565b5b828201905092915050565b60006101e9826101f0565b9050919050565b600073ffffffffffffffffffffffffffffffffffffffff82169050919050565b6000819050919050565b7f4e487b7100000000000000000000000000000000000000000000000000000000600052601160045260246000fd5b600080fd5b610257816101de565b811461026257600080fd5b5056fea2646970667358221220ba41fe5e517bc735b5c25503c6c692d4c3c48324c27db52a1f077812bb00a8b664736f6c63430008070033",
  "linkReferences": {},
  "deployedLinkReferences": {}
}