{
  "_format": "hh-sol-artifact-1",
  "contractName": "TestCounter",
  "sourceName": "contracts/test/TestCounter.sol",
  "abi": [
    {
      "anonymous": false,
      "inputs": [
        {
          "indexed": false,
          "internalType": "address",
          "name": "sender",
          "type": "address"
        }
      ],
      "name": "CalledFrom",
      "type": "event"
    },
    {
      "inputs": [],
      "name": "count",
      "outputs": [],
      "stateMutability": "nonpayable",
      "type": "function"
    },
    {
      "inputs": [
        {
          "internalType": "address",
          "name": "",
          "type": "address"
        }
      ],
      "name": "counters",
      "outputs": [
        {
          "internalType": "uint256",
          "name": "",
          "type": "uint256"
        }
      ],
      "stateMutability": "view",
      "type": "function"
    },
    {
      "inputs": [
        {
          "internalType": "uint256",
          "name": "repeat",
          "type": "uint256"
        },
        {
          "internalType": "string",
          "name": "",
          "type": "string"
        }
      ],
      "name": "gasWaster",
      "outputs": [],
      "stateMutability": "nonpayable",
      "type": "function"
    },
    {
      "inputs": [],
      "name": "justemit",
      "outputs": [],
      "stateMutability": "nonpayable",
      "type": "function"
    }
  ],
  "bytecode": "0x608060405234801561001057600080fd5b50610280806100206000396000f3fe608060405234801561001057600080fd5b506004361061004c5760003560e01c806306661abd14610051578063278ddd3c1461005b578063a1b4689014610063578063be65ab8c14610076575b600080fd5b6100596100a8565b005b6100596100d5565b610059610071366004610185565b61010a565b610096610084366004610155565b60006020819052908152604090205481565b60405190815260200160405180910390f35b336000908152602081905260409020546100c3906001610201565b33600090815260208190526040902055565b6040513381527ffb3b4d6258432a9a3d78dd9bffbcb6cfb1bd94f58da35fd530d08da7d1d058329060200160405180910390a1565b60015b83811161014f576002805490600061012483610219565b909155505060025460009081526001602052604090208190558061014781610219565b91505061010d565b50505050565b60006020828403121561016757600080fd5b81356001600160a01b038116811461017e57600080fd5b9392505050565b60008060006040848603121561019a57600080fd5b83359250602084013567ffffffffffffffff808211156101b957600080fd5b818601915086601f8301126101cd57600080fd5b8135818111156101dc57600080fd5b8760208285010111156101ee57600080fd5b6020830194508093505050509250925092565b6000821982111561021457610214610234565b500190565b600060001982141561022d5761022d610234565b5060010190565b634e487b7160e01b600052601160045260246000fdfea2646970667358221220a445e3893e35dc3e86621d77c82a4fe7c1e55c68cf8d7218672deff32c186fe564736f6c63430008070033",
  "linkReferences": {},
  "deployedLinkReferences": {}
}