{
  "_format": "hh-sol-artifact-1",
  "contractName": "TokenPaymaster",
  "sourceName": "contracts/samples/TokenPaymaster.sol",
  "abi": [
    {
      "inputs": [
        {
          "internalType": "string",
          "name": "_symbol",
          "type": "string"
        },
        {
          "internalType": "contract EntryPoint",
          "name": "_entryPoint",
          "type": "address"
        }
      ],
      "stateMutability": "nonpayable",
      "type": "constructor"
    },
    {
      "anonymous": false,
      "inputs": [
        {
          "indexed": true,
          "internalType": "address",
          "name": "owner",
          "type": "address"
        },
        {
          "indexed": true,
          "internalType": "address",
          "name": "spender",
          "type": "address"
        },
        {
          "indexed": false,
          "internalType": "uint256",
          "name": "value",
          "type": "uint256"
        }
      ],
      "name": "Approval",
      "type": "event"
    },
    {
      "anonymous": false,
      "inputs": [
        {
          "indexed": true,
          "internalType": "address",
          "name": "previousOwner",
          "type": "address"
        },
        {
          "indexed": true,
          "internalType": "address",
          "name": "newOwner",
          "type": "address"
        }
      ],
      "name": "OwnershipTransferred",
      "type": "event"
    },
    {
      "anonymous": false,
      "inputs": [
        {
          "indexed": true,
          "internalType": "address",
          "name": "from",
          "type": "address"
        },
        {
          "indexed": true,
          "internalType": "address",
          "name": "to",
          "type": "address"
        },
        {
          "indexed": false,
          "internalType": "uint256",
          "name": "value",
          "type": "uint256"
        }
      ],
      "name": "Transfer",
      "type": "event"
    },
    {
      "inputs": [],
      "name": "addStake",
      "outputs": [],
      "stateMutability": "payable",
      "type": "function"
    },
    {
      "inputs": [
        {
          "internalType": "address",
          "name": "owner",
          "type": "address"
        },
        {
          "internalType": "address",
          "name": "spender",
          "type": "address"
        }
      ],
      "name": "allowance",
      "outputs": [
        {
          "internalType": "uint256",
          "name": "",
          "type": "uint256"
        }
      ],
      "stateMutability": "view",
      "type": "function"
    },
    {
      "inputs": [
        {
          "internalType": "address",
          "name": "spender",
          "type": "address"
        },
        {
          "internalType": "uint256",
          "name": "amount",
          "type": "uint256"
        }
      ],
      "name": "approve",
      "outputs": [
        {
          "internalType": "bool",
          "name": "",
          "type": "bool"
        }
      ],
      "stateMutability": "nonpayable",
      "type": "function"
    },
    {
      "inputs": [
        {
          "internalType": "address",
          "name": "account",
          "type": "address"
        }
      ],
      "name": "balanceOf",
      "outputs": [
        {
          "internalType": "uint256",
          "name": "",
          "type": "uint256"
        }
      ],
      "stateMutability": "view",
      "type": "function"
    },
    {
      "inputs": [],
      "name": "decimals",
      "outputs": [
        {
          "internalType": "uint8",
          "name": "",
          "type": "uint8"
        }
      ],
      "stateMutability": "view",
      "type": "function"
    },
    {
      "inputs": [
        {
          "internalType": "address",
          "name": "spender",
          "type": "address"
        },
        {
          "internalType": "uint256",
          "name": "subtractedValue",
          "type": "uint256"
        }
      ],
      "name": "decreaseAllowance",
      "outputs": [
        {
          "internalType": "bool",
          "name": "",
          "type": "bool"
        }
      ],
      "stateMutability": "nonpayable",
      "type": "function"
    },
    {
      "inputs": [
        {
          "internalType": "address",
          "name": "spender",
          "type": "address"
        },
        {
          "internalType": "uint256",
          "name": "addedValue",
          "type": "uint256"
        }
      ],
      "name": "increaseAllowance",
      "outputs": [
        {
          "internalType": "bool",
          "name": "",
          "type": "bool"
        }
      ],
      "stateMutability": "nonpayable",
      "type": "function"
    },
    {
      "inputs": [
        {
          "internalType": "address",
          "name": "recipient",
          "type": "address"
        },
        {
          "internalType": "uint256",
          "name": "amount",
          "type": "uint256"
        }
      ],
      "name": "mintTokens",
      "outputs": [],
      "stateMutability": "nonpayable",
      "type": "function"
    },
    {
      "inputs": [],
      "name": "name",
      "outputs": [
        {
          "internalType": "string",
          "name": "",
          "type": "string"
        }
      ],
      "stateMutability": "view",
      "type": "function"
    },
    {
      "inputs": [],
      "name": "owner",
      "outputs": [
        {
          "internalType": "address",
          "name": "",
          "type": "address"
        }
      ],
      "stateMutability": "view",
      "type": "function"
    },
    {
      "inputs": [
        {
          "internalType": "enum IPaymaster.PostOpMode",
          "name": "mode",
          "type": "uint8"
        },
        {
          "internalType": "bytes",
          "name": "context",
          "type": "bytes"
        },
        {
          "internalType": "uint256",
          "name": "actualGasCost",
          "type": "uint256"
        }
      ],
      "name": "postOp",
      "outputs": [],
      "stateMutability": "nonpayable",
      "type": "function"
    },
    {
      "inputs": [],
      "name": "renounceOwnership",
      "outputs": [],
      "stateMutability": "nonpayable",
      "type": "function"
    },
    {
      "inputs": [],
      "name": "symbol",
      "outputs": [
        {
          "internalType": "string",
          "name": "",
          "type": "string"
        }
      ],
      "stateMutability": "view",
      "type": "function"
    },
    {
      "inputs": [],
      "name": "totalSupply",
      "outputs": [
        {
          "internalType": "uint256",
          "name": "",
          "type": "uint256"
        }
      ],
      "stateMutability": "view",
      "type": "function"
    },
    {
      "inputs": [
        {
          "internalType": "address",
          "name": "recipient",
          "type": "address"
        },
        {
          "internalType": "uint256",
          "name": "amount",
          "type": "uint256"
        }
      ],
      "name": "transfer",
      "outputs": [
        {
          "internalType": "bool",
          "name": "",
          "type": "bool"
        }
      ],
      "stateMutability": "nonpayable",
      "type": "function"
    },
    {
      "inputs": [
        {
          "internalType": "address",
          "name": "sender",
          "type": "address"
        },
        {
          "internalType": "address",
          "name": "recipient",
          "type": "address"
        },
        {
          "internalType": "uint256",
          "name": "amount",
          "type": "uint256"
        }
      ],
      "name": "transferFrom",
      "outputs": [
        {
          "internalType": "bool",
          "name": "",
          "type": "bool"
        }
      ],
      "stateMutability": "nonpayable",
      "type": "function"
    },
    {
      "inputs": [
        {
          "internalType": "address",
          "name": "newOwner",
          "type": "address"
        }
      ],
      "name": "transferOwnership",
      "outputs": [],
      "stateMutability": "nonpayable",
      "type": "function"
    },
    {
      "inputs": [
        {
          "components": [
            {
              "internalType": "address",
              "name": "sender",
              "type": "address"
            },
            {
              "internalType": "uint256",
              "name": "nonce",
              "type": "uint256"
            },
            {
              "internalType": "bytes",
              "name": "initCode",
              "type": "bytes"
            },
            {
              "internalType": "bytes",
              "name": "callData",
              "type": "bytes"
            },
            {
              "internalType": "uint256",
              "name": "callGas",
              "type": "uint256"
            },
            {
              "internalType": "uint256",
              "name": "verificationGas",
              "type": "uint256"
            },
            {
              "internalType": "uint256",
              "name": "preVerificationGas",
              "type": "uint256"
            },
            {
              "internalType": "uint256",
              "name": "maxFeePerGas",
              "type": "uint256"
            },
            {
              "internalType": "uint256",
              "name": "maxPriorityFeePerGas",
              "type": "uint256"
            },
            {
              "internalType": "address",
              "name": "paymaster",
              "type": "address"
            },
            {
              "internalType": "bytes",
              "name": "paymasterData",
              "type": "bytes"
            },
            {
              "internalType": "bytes",
              "name": "signature",
              "type": "bytes"
            }
          ],
          "internalType": "struct UserOperation",
          "name": "userOp",
          "type": "tuple"
        },
        {
          "internalType": "uint256",
          "name": "requiredPreFund",
          "type": "uint256"
        }
      ],
      "name": "verifyPaymasterUserOp",
      "outputs": [
        {
          "internalType": "bytes",
          "name": "context",
          "type": "bytes"
        }
      ],
      "stateMutability": "view",
      "type": "function"
    }
  ],
  "bytecode": "0x60a0604052610bb86006553480156200001757600080fd5b50604051620023f6380380620023f68339810160408190526200003a916200034e565b81806200004733620000e9565b81516200005c9060049060208501906200027d565b508051620000729060059060208401906200027d565b5050600780546001600160a01b0319166001600160a01b03841617905550604051620000a1602082016200030c565b601f1982820381018352601f90910116604052805160209190910120608052620000e0620000d76000546001600160a01b031690565b60001962000139565b50505062000492565b600080546001600160a01b038381166001600160a01b0319831681178455604051919092169283917f8be0079c531659141344cd1fd0a4f28419497f9722a3daafe3b4186f6b6457e09190a35050565b60006200014833848462000151565b50600192915050565b6001600160a01b038316620001b95760405162461bcd60e51b8152602060048201526024808201527f45524332303a20617070726f76652066726f6d20746865207a65726f206164646044820152637265737360e01b60648201526084015b60405180910390fd5b6001600160a01b0382166200021c5760405162461bcd60e51b815260206004820152602260248201527f45524332303a20617070726f766520746f20746865207a65726f206164647265604482015261737360f01b6064820152608401620001b0565b6001600160a01b0383811660008181526002602090815260408083209487168084529482529182902085905590518481527f8c5be1e5ebec7d5bd14f71427d1e84f3dd0314c0f7b2291e5b200ac8c7c3b925910160405180910390a3505050565b8280546200028b906200043f565b90600052602060002090601f016020900481019282620002af5760008555620002fa565b82601f10620002ca57805160ff1916838001178555620002fa565b82800160010185558215620002fa579182015b82811115620002fa578251825591602001919060010190620002dd565b50620003089291506200031a565b5090565b610d4780620016af83390190565b5b808211156200030857600081556001016200031b565b80516001600160a01b03811681146200034957600080fd5b919050565b600080604083850312156200036257600080fd5b82516001600160401b03808211156200037a57600080fd5b818501915085601f8301126200038f57600080fd5b815181811115620003a457620003a46200047c565b604051601f8201601f19908116603f01168101908382118183101715620003cf57620003cf6200047c565b81604052828152602093508884848701011115620003ec57600080fd5b600091505b82821015620004105784820184015181830185015290830190620003f1565b82821115620004225760008484830101525b95506200043491505085820162000331565b925050509250929050565b600181811c908216806200045457607f821691505b602082108114156200047657634e487b7160e01b600052602260045260246000fd5b50919050565b634e487b7160e01b600052604160045260246000fd5b608051611201620004ae600039600061062701526112016000f3fe6080604052600436106101095760003560e01c806380fd44d511610095578063a9059cbb11610064578063a9059cbb146102b6578063a9a23409146102d6578063dd62ed3e146102f6578063f0dda65c1461033c578063f2fde38b1461035c57600080fd5b806380fd44d5146102395780638da5cb5b1461025957806395d89b4114610281578063a457c2d71461029657600080fd5b8063313ce567116100dc578063313ce567146101a857806339509351146101c45780635a627dbc146101e457806370a08231146101ee578063715018a61461022457600080fd5b806306fdde031461010e578063095ea7b31461013957806318160ddd1461016957806323b872dd14610188575b600080fd5b34801561011a57600080fd5b5061012361037c565b6040516101309190611036565b60405180910390f35b34801561014557600080fd5b50610159610154366004610ee1565b61040e565b6040519015158152602001610130565b34801561017557600080fd5b506003545b604051908152602001610130565b34801561019457600080fd5b506101596101a3366004610ea0565b610425565b3480156101b457600080fd5b5060405160128152602001610130565b3480156101d057600080fd5b506101596101df366004610ee1565b6104d4565b6101ec610510565b005b3480156101fa57600080fd5b5061017a610209366004610e43565b6001600160a01b031660009081526001602052604090205490565b34801561023057600080fd5b506101ec61057b565b34801561024557600080fd5b50610123610254366004610f9c565b6105b1565b34801561026557600080fd5b506000546040516001600160a01b039091168152602001610130565b34801561028d57600080fd5b5061012361084f565b3480156102a257600080fd5b506101596102b1366004610ee1565b61085e565b3480156102c257600080fd5b506101596102d1366004610ee1565b6108f7565b3480156102e257600080fd5b506101ec6102f1366004610f0d565b610904565b34801561030257600080fd5b5061017a610311366004610e67565b6001600160a01b03918216600090815260026020908152604080832093909416825291909152205490565b34801561034857600080fd5b506101ec610357366004610ee1565b610941565b34801561036857600080fd5b506101ec610377366004610e43565b610979565b60606004805461038b90611165565b80601f01602080910402602001604051908101604052809291908181526020018280546103b790611165565b80156104045780601f106103d957610100808354040283529160200191610404565b820191906000526020600020905b8154815290600101906020018083116103e757829003601f168201915b5050505050905090565b600061041b338484610a14565b5060015b92915050565b6000610432848484610b38565b6001600160a01b0384166000908152600260209081526040808320338452909152902054828110156104bc5760405162461bcd60e51b815260206004820152602860248201527f45524332303a207472616e7366657220616d6f756e74206578636565647320616044820152676c6c6f77616e636560c01b60648201526084015b60405180910390fd5b6104c98533858403610a14565b506001949350505050565b3360008181526002602090815260408083206001600160a01b0387168452909152812054909161041b91859061050b9086906110f6565b610a14565b600760009054906101000a90046001600160a01b03166001600160a01b0316635a627dbc346040518263ffffffff1660e01b81526004016000604051808303818588803b15801561056057600080fd5b505af1158015610574573d6000803e3d6000fd5b5050505050565b6000546001600160a01b031633146105a55760405162461bcd60e51b81526004016104b390611049565b6105af6000610d07565b565b606060006105be83610d57565b90506105cd604085018561107e565b1590506107b75760006105e3604086018661107e565b60009060406105f48982018a61107e565b6105ff929150611130565b9261060c939291906110cc565b60405161061a929190611026565b60405180910390209050807f0000000000000000000000000000000000000000000000000000000000000000146106a65760405162461bcd60e51b815260206004820152602a60248201527f546f6b656e5061796d61737465723a20756e6b6e6f776e2077616c6c6574206360448201526937b739ba393ab1ba37b960b11b60648201526084016104b3565b60006106b5604087018761107e565b60406106c38982018a61107e565b6106ce929150611130565b6106d99282906110cc565b6106e291611147565b6007549091506001600160a01b038083169116146107425760405162461bcd60e51b815260206004820152601e60248201527f77726f6e67207061796d617374657220696e20636f6e7374727563746f72000060448201526064016104b3565b826107536102096020890189610e43565b116107b05760405162461bcd60e51b815260206004820152602760248201527f546f6b656e5061796d61737465723a206e6f2062616c616e636520287072652d6044820152666372656174652960c81b60648201526084016104b3565b5050610815565b806107c86102096020870187610e43565b116108155760405162461bcd60e51b815260206004820152601a60248201527f546f6b656e5061796d61737465723a206e6f2062616c616e636500000000000060448201526064016104b3565b6108226020850185610e43565b604080516001600160a01b0390921660208301520160405160208183030381529060405291505092915050565b60606005805461038b90611165565b3360009081526002602090815260408083206001600160a01b0386168452909152812054828110156108e05760405162461bcd60e51b815260206004820152602560248201527f45524332303a2064656372656173656420616c6c6f77616e63652062656c6f77604482015264207a65726f60d81b60648201526084016104b3565b6108ed3385858403610a14565b5060019392505050565b600061041b338484610b38565b600061091283850185610e43565b9050600061092c6006548461092791906110f6565b610d57565b9050610939823083610b38565b505050505050565b6000546001600160a01b0316331461096b5760405162461bcd60e51b81526004016104b390611049565b6109758282610d64565b5050565b6000546001600160a01b031633146109a35760405162461bcd60e51b81526004016104b390611049565b6001600160a01b038116610a085760405162461bcd60e51b815260206004820152602660248201527f4f776e61626c653a206e6577206f776e657220697320746865207a65726f206160448201526564647265737360d01b60648201526084016104b3565b610a1181610d07565b50565b6001600160a01b038316610a765760405162461bcd60e51b8152602060048201526024808201527f45524332303a20617070726f76652066726f6d20746865207a65726f206164646044820152637265737360e01b60648201526084016104b3565b6001600160a01b038216610ad75760405162461bcd60e51b815260206004820152602260248201527f45524332303a20617070726f766520746f20746865207a65726f206164647265604482015261737360f01b60648201526084016104b3565b6001600160a01b0383811660008181526002602090815260408083209487168084529482529182902085905590518481527f8c5be1e5ebec7d5bd14f71427d1e84f3dd0314c0f7b2291e5b200ac8c7c3b925910160405180910390a3505050565b6001600160a01b038316610b9c5760405162461bcd60e51b815260206004820152602560248201527f45524332303a207472616e736665722066726f6d20746865207a65726f206164604482015264647265737360d81b60648201526084016104b3565b6001600160a01b038216610bfe5760405162461bcd60e51b815260206004820152602360248201527f45524332303a207472616e7366657220746f20746865207a65726f206164647260448201526265737360e81b60648201526084016104b3565b6001600160a01b03831660009081526001602052604090205481811015610c765760405162461bcd60e51b815260206004820152602660248201527f45524332303a207472616e7366657220616d6f756e7420657863656564732062604482015265616c616e636560d01b60648201526084016104b3565b6001600160a01b03808516600090815260016020526040808220858503905591851681529081208054849290610cad9084906110f6565b92505081905550826001600160a01b0316846001600160a01b03167fddf252ad1be2c89b69c2b068fc378daa952ba7f163c4a11628f55a4df523b3ef84604051610cf991815260200190565b60405180910390a350505050565b600080546001600160a01b038381166001600160a01b0319831681178455604051919092169283917f8be0079c531659141344cd1fd0a4f28419497f9722a3daafe3b4186f6b6457e09190a35050565b600061041f60648361110e565b6001600160a01b038216610dba5760405162461bcd60e51b815260206004820152601f60248201527f45524332303a206d696e7420746f20746865207a65726f20616464726573730060448201526064016104b3565b8060036000828254610dcc91906110f6565b90915550506001600160a01b03821660009081526001602052604081208054839290610df99084906110f6565b90915550506040518181526001600160a01b038316906000907fddf252ad1be2c89b69c2b068fc378daa952ba7f163c4a11628f55a4df523b3ef9060200160405180910390a35050565b600060208284031215610e5557600080fd5b8135610e60816111b6565b9392505050565b60008060408385031215610e7a57600080fd5b8235610e85816111b6565b91506020830135610e95816111b6565b809150509250929050565b600080600060608486031215610eb557600080fd5b8335610ec0816111b6565b92506020840135610ed0816111b6565b929592945050506040919091013590565b60008060408385031215610ef457600080fd5b8235610eff816111b6565b946020939093013593505050565b60008060008060608587031215610f2357600080fd5b843560038110610f3257600080fd5b9350602085013567ffffffffffffffff80821115610f4f57600080fd5b818701915087601f830112610f6357600080fd5b813581811115610f7257600080fd5b886020828501011115610f8457600080fd5b95986020929092019750949560400135945092505050565b60008060408385031215610faf57600080fd5b823567ffffffffffffffff811115610fc657600080fd5b83016101808186031215610eff57600080fd5b6000815180845260005b81811015610fff57602081850181015186830182015201610fe3565b81811115611011576000602083870101525b50601f01601f19169290920160200192915050565b8183823760009101908152919050565b602081526000610e606020830184610fd9565b6020808252818101527f4f776e61626c653a2063616c6c6572206973206e6f7420746865206f776e6572604082015260600190565b6000808335601e1984360301811261109557600080fd5b83018035915067ffffffffffffffff8211156110b057600080fd5b6020019150368190038213156110c557600080fd5b9250929050565b600080858511156110dc57600080fd5b838611156110e957600080fd5b5050820193919092039150565b60008219821115611109576111096111a0565b500190565b60008261112b57634e487b7160e01b600052601260045260246000fd5b500490565b600082821015611142576111426111a0565b500390565b8035602083101561041f57600019602084900360031b1b1692915050565b600181811c9082168061117957607f821691505b6020821081141561119a57634e487b7160e01b600052602260045260246000fd5b50919050565b634e487b7160e01b600052601160045260246000fd5b6001600160a01b0381168114610a1157600080fdfea2646970667358221220d74ea588ca89c102d60aa1446c6e0a2374acf62cdfc3ac6b1d3ea6977ca2deae64736f6c63430008070033608060405234801561001057600080fd5b50604051610d47380380610d4783398101604081905261002f9161007c565b600280546001600160a01b039384166001600160a01b031991821617909155600180549290931691161790556100af565b80516001600160a01b038116811461007757600080fd5b919050565b6000806040838503121561008f57600080fd5b61009883610060565b91506100a660208401610060565b90509250929050565b610c89806100be6000396000f3fe60806040526004361061007f5760003560e01c8063affed0e01161004e578063affed0e01461012a578063b0d691fe1461014e578063be6002c21461016e578063fbfb39e01461018e57600080fd5b80631b71bb6e1461008b57806381375a68146100ad5780638da5cb5b146100cd578063a9059cbb1461010a57600080fd5b3661008657005b600080fd5b34801561009757600080fd5b506100ab6100a63660046108d4565b6101ae565b005b3480156100b957600080fd5b506100ab6100c836600461099b565b61021f565b3480156100d957600080fd5b506001546100ed906001600160a01b031681565b6040516001600160a01b0390911681526020015b60405180910390f35b34801561011657600080fd5b506100ab6101253660046108f8565b6102d3565b34801561013657600080fd5b5061014060005481565b604051908152602001610101565b34801561015a57600080fd5b506002546100ed906001600160a01b031681565b34801561017a57600080fd5b506100ab610189366004610924565b610316565b34801561019a57600080fd5b506100ab6101a93660046109dd565b61035e565b6101b66103f3565b600254604080516001600160a01b03928316815291831660208301527f450909c1478d09248269d4ad4fa8cba61ca3f50faed58c7aedefa51c7f62b83a910160405180910390a1600280546001600160a01b0319166001600160a01b0392909216919091179055565b6002546001600160a01b0316331461028f5760405162461bcd60e51b815260206004820152602860248201527f6578656346726f6d456e747279506f696e743a206f6e6c792066726f6d20656e6044820152671d1c9e541bda5b9d60c21b60648201526084015b60405180910390fd5b6102cf3083838080601f01602080910402602001604051908101604052809392919081815260200183838082843760009201919091525061044692505050565b5050565b6102db6103f3565b6040516001600160a01b0383169082156108fc029083906000818181858888f19350505050158015610311573d6000803e3d6000fd5b505050565b61031e6103f3565b6103118383838080601f01602080910402602001604051908101604052809392919081815260200183838082843760009201919091525061044692505050565b6002546001600160a01b031633146103b85760405162461bcd60e51b815260206004820152601b60248201527f77616c6c65743a206e6f742066726f6d20456e747279506f696e7400000000006044820152606401610286565b6103c1826104ba565b6103ca82610634565b80156102cf57604051600090339083156108fc0290849084818181858888f15050505050505050565b6001546001600160a01b031633148061040b57503330145b6104445760405162461bcd60e51b815260206004820152600a60248201526937b7363c9037bbb732b960b11b6044820152606401610286565b565b600080836001600160a01b0316836040516104619190610a1a565b6000604051808303816000865af19150503d806000811461049e576040519150601f19603f3d011682016040523d82523d6000602084013e6104a3565b606091505b5091509150816104b4576020810181fd5b50505050565b60006104c5826106a9565b90506104d5610160830183610a55565b90506041146105265760405162461bcd60e51b815260206004820181905260248201527f77616c6c65743a20696e76616c6964207369676e6174757265206c656e6774686044820152606401610286565b600080610537610160850185610a55565b8101906105449190610979565b90925090506000610559610160860186610a55565b604081811061056a5761056a610c12565b604080516000815260208101808352899052939091013560f81c9083018190526060830186905260808301859052925060019160a00190506020604051602081039080840390855afa1580156105c4573d6000803e3d6000fd5b5050604051601f1901516001546001600160a01b03908116911614905061062d5760405162461bcd60e51b815260206004820152601760248201527f77616c6c65743a2077726f6e67207369676e61747572650000000000000000006044820152606401610286565b5050505050565b6106416040820182610a55565b151590506106a657600080546020830135918061065d83610be9565b91905055146106a65760405162461bcd60e51b815260206004820152601560248201527477616c6c65743a20696e76616c6964206e6f6e636560581b6044820152606401610286565b50565b60006106bc6106b783610ac6565b610714565b80516020918201206040517f19457468657265756d205369676e6564204d6573736167653a0a33320000000092810192909252603c820152605c01604051602081830303815290604052805190602001209050919050565b60608160000151826020015183604001518051906020012084606001518051906020012085608001518660a001518760c001518860e001518961010001518a61012001518b6101400151805190602001206040516020016107d89b9a999897969594939291906001600160a01b039b8c168152602081019a909a5260408a01989098526060890196909652608088019490945260a087019290925260c086015260e08501526101008401529092166101208201526101408101919091526101600190565b6040516020818303038152906040529050919050565b80356107f981610c3e565b919050565b60008083601f84011261081057600080fd5b50813567ffffffffffffffff81111561082857600080fd5b60208301915083602082850101111561084057600080fd5b9250929050565b600082601f83011261085857600080fd5b813567ffffffffffffffff8082111561087357610873610c28565b604051601f8301601f19908116603f0116810190828211818310171561089b5761089b610c28565b816040528381528660208588010111156108b457600080fd5b836020870160208301376000602085830101528094505050505092915050565b6000602082840312156108e657600080fd5b81356108f181610c3e565b9392505050565b6000806040838503121561090b57600080fd5b823561091681610c3e565b946020939093013593505050565b60008060006040848603121561093957600080fd5b833561094481610c3e565b9250602084013567ffffffffffffffff81111561096057600080fd5b61096c868287016107fe565b9497909650939450505050565b6000806040838503121561098c57600080fd5b50508035926020909101359150565b600080602083850312156109ae57600080fd5b823567ffffffffffffffff8111156109c557600080fd5b6109d1858286016107fe565b90969095509350505050565b600080604083850312156109f057600080fd5b823567ffffffffffffffff811115610a0757600080fd5b8301610180818603121561091657600080fd5b6000825160005b81811015610a3b5760208186018101518583015201610a21565b81811115610a4a576000828501525b509190910192915050565b6000808335601e19843603018112610a6c57600080fd5b83018035915067ffffffffffffffff821115610a8757600080fd5b60200191503681900382131561084057600080fd5b604051610180810167ffffffffffffffff81118282101715610ac057610ac0610c28565b60405290565b60006101808236031215610ad957600080fd5b610ae1610a9c565b610aea836107ee565b815260208301356020820152604083013567ffffffffffffffff80821115610b1157600080fd5b610b1d36838701610847565b60408401526060850135915080821115610b3657600080fd5b610b4236838701610847565b60608401526080850135608084015260a085013560a084015260c085013560c084015260e085013560e0840152610100915081850135828401526101209150610b8c8286016107ee565b8284015261014091508185013581811115610ba657600080fd5b610bb236828801610847565b838501525061016091508185013581811115610bcd57600080fd5b610bd936828801610847565b8385015250505080915050919050565b6000600019821415610c0b57634e487b7160e01b600052601160045260246000fd5b5060010190565b634e487b7160e01b600052603260045260246000fd5b634e487b7160e01b600052604160045260246000fd5b6001600160a01b03811681146106a657600080fdfea264697066735822122049bad2979ef7c4237469d6feff854a85fcad3553e4ec9389229cc1c5e0b3e9bf64736f6c63430008070033",
  "linkReferences": {},
  "deployedLinkReferences": {}
}