{
  "_format": "hh-sol-artifact-1",
  "contractName": "TokenPaymaster",
  "sourceName": "contracts/samples/TokenPaymaster.sol",
  "abi": [
    {
      "inputs": [
        {
          "internalType": "string",
          "name": "_symbol",
          "type": "string"
        },
        {
          "internalType": "contract Singleton",
          "name": "_singleton",
          "type": "address"
        }
      ],
      "stateMutability": "nonpayable",
      "type": "constructor"
    },
    {
      "anonymous": false,
      "inputs": [
        {
          "indexed": true,
          "internalType": "address",
          "name": "owner",
          "type": "address"
        },
        {
          "indexed": true,
          "internalType": "address",
          "name": "spender",
          "type": "address"
        },
        {
          "indexed": false,
          "internalType": "uint256",
          "name": "value",
          "type": "uint256"
        }
      ],
      "name": "Approval",
      "type": "event"
    },
    {
      "anonymous": false,
      "inputs": [
        {
          "indexed": true,
          "internalType": "address",
          "name": "previousOwner",
          "type": "address"
        },
        {
          "indexed": true,
          "internalType": "address",
          "name": "newOwner",
          "type": "address"
        }
      ],
      "name": "OwnershipTransferred",
      "type": "event"
    },
    {
      "anonymous": false,
      "inputs": [
        {
          "indexed": true,
          "internalType": "address",
          "name": "from",
          "type": "address"
        },
        {
          "indexed": true,
          "internalType": "address",
          "name": "to",
          "type": "address"
        },
        {
          "indexed": false,
          "internalType": "uint256",
          "name": "value",
          "type": "uint256"
        }
      ],
      "name": "Transfer",
      "type": "event"
    },
    {
      "inputs": [],
      "name": "addStake",
      "outputs": [],
      "stateMutability": "payable",
      "type": "function"
    },
    {
      "inputs": [
        {
          "internalType": "address",
          "name": "owner",
          "type": "address"
        },
        {
          "internalType": "address",
          "name": "spender",
          "type": "address"
        }
      ],
      "name": "allowance",
      "outputs": [
        {
          "internalType": "uint256",
          "name": "",
          "type": "uint256"
        }
      ],
      "stateMutability": "view",
      "type": "function"
    },
    {
      "inputs": [
        {
          "internalType": "address",
          "name": "spender",
          "type": "address"
        },
        {
          "internalType": "uint256",
          "name": "amount",
          "type": "uint256"
        }
      ],
      "name": "approve",
      "outputs": [
        {
          "internalType": "bool",
          "name": "",
          "type": "bool"
        }
      ],
      "stateMutability": "nonpayable",
      "type": "function"
    },
    {
      "inputs": [
        {
          "internalType": "address",
          "name": "account",
          "type": "address"
        }
      ],
      "name": "balanceOf",
      "outputs": [
        {
          "internalType": "uint256",
          "name": "",
          "type": "uint256"
        }
      ],
      "stateMutability": "view",
      "type": "function"
    },
    {
      "inputs": [],
      "name": "decimals",
      "outputs": [
        {
          "internalType": "uint8",
          "name": "",
          "type": "uint8"
        }
      ],
      "stateMutability": "view",
      "type": "function"
    },
    {
      "inputs": [
        {
          "internalType": "address",
          "name": "spender",
          "type": "address"
        },
        {
          "internalType": "uint256",
          "name": "subtractedValue",
          "type": "uint256"
        }
      ],
      "name": "decreaseAllowance",
      "outputs": [
        {
          "internalType": "bool",
          "name": "",
          "type": "bool"
        }
      ],
      "stateMutability": "nonpayable",
      "type": "function"
    },
    {
      "inputs": [
        {
          "internalType": "address",
          "name": "spender",
          "type": "address"
        },
        {
          "internalType": "uint256",
          "name": "addedValue",
          "type": "uint256"
        }
      ],
      "name": "increaseAllowance",
      "outputs": [
        {
          "internalType": "bool",
          "name": "",
          "type": "bool"
        }
      ],
      "stateMutability": "nonpayable",
      "type": "function"
    },
    {
      "inputs": [
        {
          "internalType": "address",
          "name": "recipient",
          "type": "address"
        },
        {
          "internalType": "uint256",
          "name": "amount",
          "type": "uint256"
        }
      ],
      "name": "mintTokens",
      "outputs": [],
      "stateMutability": "nonpayable",
      "type": "function"
    },
    {
      "inputs": [],
      "name": "name",
      "outputs": [
        {
          "internalType": "string",
          "name": "",
          "type": "string"
        }
      ],
      "stateMutability": "view",
      "type": "function"
    },
    {
      "inputs": [],
      "name": "owner",
      "outputs": [
        {
          "internalType": "address",
          "name": "",
          "type": "address"
        }
      ],
      "stateMutability": "view",
      "type": "function"
    },
    {
      "inputs": [
        {
          "components": [
            {
              "internalType": "address",
              "name": "target",
              "type": "address"
            },
            {
              "internalType": "uint256",
              "name": "nonce",
              "type": "uint256"
            },
            {
              "internalType": "bytes",
              "name": "initCode",
              "type": "bytes"
            },
            {
              "internalType": "bytes",
              "name": "callData",
              "type": "bytes"
            },
            {
              "internalType": "uint256",
              "name": "callGas",
              "type": "uint256"
            },
            {
              "internalType": "uint256",
              "name": "verificationGas",
              "type": "uint256"
            },
            {
              "internalType": "uint256",
              "name": "maxFeePerGas",
              "type": "uint256"
            },
            {
              "internalType": "uint256",
              "name": "maxPriorityFeePerGas",
              "type": "uint256"
            },
            {
              "internalType": "address",
              "name": "paymaster",
              "type": "address"
            },
            {
              "internalType": "bytes",
              "name": "paymasterData",
              "type": "bytes"
            },
            {
              "internalType": "bytes",
              "name": "signature",
              "type": "bytes"
            }
          ],
          "internalType": "struct UserOperation",
          "name": "userOp",
          "type": "tuple"
        },
        {
          "internalType": "uint256",
          "name": "requiredPreFund",
          "type": "uint256"
        }
      ],
      "name": "payForOp",
      "outputs": [
        {
          "internalType": "bytes",
          "name": "context",
          "type": "bytes"
        }
      ],
      "stateMutability": "view",
      "type": "function"
    },
    {
      "inputs": [
        {
          "internalType": "enum IPaymaster.PostOpMode",
          "name": "mode",
          "type": "uint8"
        },
        {
          "internalType": "bytes",
          "name": "context",
          "type": "bytes"
        },
        {
          "internalType": "uint256",
          "name": "actualGasCost",
          "type": "uint256"
        }
      ],
      "name": "postOp",
      "outputs": [],
      "stateMutability": "nonpayable",
      "type": "function"
    },
    {
      "inputs": [],
      "name": "renounceOwnership",
      "outputs": [],
      "stateMutability": "nonpayable",
      "type": "function"
    },
    {
      "inputs": [],
      "name": "symbol",
      "outputs": [
        {
          "internalType": "string",
          "name": "",
          "type": "string"
        }
      ],
      "stateMutability": "view",
      "type": "function"
    },
    {
      "inputs": [],
      "name": "totalSupply",
      "outputs": [
        {
          "internalType": "uint256",
          "name": "",
          "type": "uint256"
        }
      ],
      "stateMutability": "view",
      "type": "function"
    },
    {
      "inputs": [
        {
          "internalType": "address",
          "name": "recipient",
          "type": "address"
        },
        {
          "internalType": "uint256",
          "name": "amount",
          "type": "uint256"
        }
      ],
      "name": "transfer",
      "outputs": [
        {
          "internalType": "bool",
          "name": "",
          "type": "bool"
        }
      ],
      "stateMutability": "nonpayable",
      "type": "function"
    },
    {
      "inputs": [
        {
          "internalType": "address",
          "name": "sender",
          "type": "address"
        },
        {
          "internalType": "address",
          "name": "recipient",
          "type": "address"
        },
        {
          "internalType": "uint256",
          "name": "amount",
          "type": "uint256"
        }
      ],
      "name": "transferFrom",
      "outputs": [
        {
          "internalType": "bool",
          "name": "",
          "type": "bool"
        }
      ],
      "stateMutability": "nonpayable",
      "type": "function"
    },
    {
      "inputs": [
        {
          "internalType": "address",
          "name": "newOwner",
          "type": "address"
        }
      ],
      "name": "transferOwnership",
      "outputs": [],
      "stateMutability": "nonpayable",
      "type": "function"
    }
  ],
  "bytecode": "0x60a0604052610bb86006553480156200001757600080fd5b50604051620046f8380380620046f883398181016040528101906200003d91906200059b565b81826200005f620000536200015260201b60201c565b6200015a60201b60201c565b81600490805190602001906200007792919062000448565b5080600590805190602001906200009092919062000448565b50505080600760006101000a81548173ffffffffffffffffffffffffffffffffffffffff021916908373ffffffffffffffffffffffffffffffffffffffff16021790555060405180602001620000e690620004d9565b6020820181038252601f19601f820116604052508051906020012060808181525050620001496200011c6200021e60201b60201c565b7fffffffffffffffffffffffffffffffffffffffffffffffffffffffffffffffff6200024760201b60201c565b50505062000960565b600033905090565b60008060009054906101000a900473ffffffffffffffffffffffffffffffffffffffff169050816000806101000a81548173ffffffffffffffffffffffffffffffffffffffff021916908373ffffffffffffffffffffffffffffffffffffffff1602179055508173ffffffffffffffffffffffffffffffffffffffff168173ffffffffffffffffffffffffffffffffffffffff167f8be0079c531659141344cd1fd0a4f28419497f9722a3daafe3b4186f6b6457e060405160405180910390a35050565b60008060009054906101000a900473ffffffffffffffffffffffffffffffffffffffff16905090565b60006200026b6200025d6200015260201b60201c565b84846200027560201b60201c565b6001905092915050565b600073ffffffffffffffffffffffffffffffffffffffff168373ffffffffffffffffffffffffffffffffffffffff161415620002e8576040517f08c379a0000000000000000000000000000000000000000000000000000000008152600401620002df9062000682565b60405180910390fd5b600073ffffffffffffffffffffffffffffffffffffffff168273ffffffffffffffffffffffffffffffffffffffff1614156200035b576040517f08c379a0000000000000000000000000000000000000000000000000000000008152600401620003529062000660565b60405180910390fd5b80600260008573ffffffffffffffffffffffffffffffffffffffff1673ffffffffffffffffffffffffffffffffffffffff16815260200190815260200160002060008473ffffffffffffffffffffffffffffffffffffffff1673ffffffffffffffffffffffffffffffffffffffff168152602001908152602001600020819055508173ffffffffffffffffffffffffffffffffffffffff168373ffffffffffffffffffffffffffffffffffffffff167f8c5be1e5ebec7d5bd14f71427d1e84f3dd0314c0f7b2291e5b200ac8c7c3b925836040516200043b9190620006a4565b60405180910390a3505050565b8280546200045690620007b9565b90600052602060002090601f0160209004810192826200047a5760008555620004c6565b82601f106200049557805160ff1916838001178555620004c6565b82800160010185558215620004c6579182015b82811115620004c5578251825591602001919060010190620004a8565b5b509050620004d59190620004e7565b5090565b6117d28062002f2683390190565b5b8082111562000502576000816000905550600101620004e8565b5090565b60006200051d6200051784620006ea565b620006c1565b9050828152602081018484840111156200053c576200053b62000888565b5b6200054984828562000783565b509392505050565b600081519050620005628162000946565b92915050565b600082601f83011262000580576200057f62000883565b5b81516200059284826020860162000506565b91505092915050565b60008060408385031215620005b557620005b462000892565b5b600083015167ffffffffffffffff811115620005d657620005d56200088d565b5b620005e48582860162000568565b9250506020620005f78582860162000551565b9150509250929050565b60006200061060228362000720565b91506200061d82620008a8565b604082019050919050565b60006200063760248362000720565b91506200064482620008f7565b604082019050919050565b6200065a8162000779565b82525050565b600060208201905081810360008301526200067b8162000601565b9050919050565b600060208201905081810360008301526200069d8162000628565b9050919050565b6000602082019050620006bb60008301846200064f565b92915050565b6000620006cd620006e0565b9050620006db8282620007ef565b919050565b6000604051905090565b600067ffffffffffffffff82111562000708576200070762000854565b5b620007138262000897565b9050602081019050919050565b600082825260208201905092915050565b60006200073e8262000759565b9050919050565b6000620007528262000731565b9050919050565b600073ffffffffffffffffffffffffffffffffffffffff82169050919050565b6000819050919050565b60005b83811015620007a357808201518184015260208101905062000786565b83811115620007b3576000848401525b50505050565b60006002820490506001821680620007d257607f821691505b60208210811415620007e957620007e862000825565b5b50919050565b620007fa8262000897565b810181811067ffffffffffffffff821117156200081c576200081b62000854565b5b80604052505050565b7f4e487b7100000000000000000000000000000000000000000000000000000000600052602260045260246000fd5b7f4e487b7100000000000000000000000000000000000000000000000000000000600052604160045260246000fd5b600080fd5b600080fd5b600080fd5b600080fd5b6000601f19601f8301169050919050565b7f45524332303a20617070726f766520746f20746865207a65726f20616464726560008201527f7373000000000000000000000000000000000000000000000000000000000000602082015250565b7f45524332303a20617070726f76652066726f6d20746865207a65726f2061646460008201527f7265737300000000000000000000000000000000000000000000000000000000602082015250565b620009518162000745565b81146200095d57600080fd5b50565b6080516125aa6200097c60003960006106a701526125aa6000f3fe6080604052600436106101095760003560e01c8063715018a611610095578063a9059cbb11610064578063a9059cbb14610374578063a9a23409146103b1578063dd62ed3e146103da578063f0dda65c14610417578063f2fde38b1461044057610109565b8063715018a6146102ca5780638da5cb5b146102e157806395d89b411461030c578063a457c2d71461033757610109565b8063313ce567116100dc578063313ce567146101de57806333d8f0181461020957806339509351146102465780635a627dbc1461028357806370a082311461028d57610109565b806306fdde031461010e578063095ea7b31461013957806318160ddd1461017657806323b872dd146101a1575b600080fd5b34801561011a57600080fd5b50610123610469565b6040516101309190611b80565b60405180910390f35b34801561014557600080fd5b50610160600480360381019061015b9190611742565b6104fb565b60405161016d9190611b43565b60405180910390f35b34801561018257600080fd5b5061018b610519565b6040516101989190611d62565b60405180910390f35b3480156101ad57600080fd5b506101c860048036038101906101c391906116ef565b610523565b6040516101d59190611b43565b60405180910390f35b3480156101ea57600080fd5b506101f361061b565b6040516102009190611d7d565b60405180910390f35b34801561021557600080fd5b50610230600480360381019061022b91906117f6565b610624565b60405161023d9190611b5e565b60405180910390f35b34801561025257600080fd5b5061026d60048036038101906102689190611742565b6108e0565b60405161027a9190611b43565b60405180910390f35b61028b61098c565b005b34801561029957600080fd5b506102b460048036038101906102af9190611655565b610a11565b6040516102c19190611d62565b60405180910390f35b3480156102d657600080fd5b506102df610a5a565b005b3480156102ed57600080fd5b506102f6610ae2565b6040516103039190611b28565b60405180910390f35b34801561031857600080fd5b50610321610b0b565b60405161032e9190611b80565b60405180910390f35b34801561034357600080fd5b5061035e60048036038101906103599190611742565b610b9d565b60405161036b9190611b43565b60405180910390f35b34801561038057600080fd5b5061039b60048036038101906103969190611742565b610c88565b6040516103a89190611b43565b60405180910390f35b3480156103bd57600080fd5b506103d860048036038101906103d39190611782565b610ca6565b005b3480156103e657600080fd5b5061040160048036038101906103fc91906116af565b610ce6565b60405161040e9190611d62565b60405180910390f35b34801561042357600080fd5b5061043e60048036038101906104399190611742565b610d6d565b005b34801561044c57600080fd5b5061046760048036038101906104629190611655565b610df7565b005b60606004805461047890612051565b80601f01602080910402602001604051908101604052809291908181526020018280546104a490612051565b80156104f15780601f106104c6576101008083540402835291602001916104f1565b820191906000526020600020905b8154815290600101906020018083116104d457829003601f168201915b5050505050905090565b600061050f610508610eef565b8484610ef7565b6001905092915050565b6000600354905090565b60006105308484846110c2565b6000600260008673ffffffffffffffffffffffffffffffffffffffff1673ffffffffffffffffffffffffffffffffffffffff168152602001908152602001600020600061057b610eef565b73ffffffffffffffffffffffffffffffffffffffff1673ffffffffffffffffffffffffffffffffffffffff168152602001908152602001600020549050828110156105fb576040517f08c379a00000000000000000000000000000000000000000000000000000000081526004016105f290611c62565b60405180910390fd5b61060f85610607610eef565b858403610ef7565b60019150509392505050565b60006012905090565b6060600061063183611346565b905060008480604001906106459190611d98565b90501461084857600084806040019061065e9190611d98565b60009060408880604001906106739190611d98565b905061067f9190611f0b565b9261068c93929190611e49565b60405161069a929190611b0f565b60405180910390209050807f000000000000000000000000000000000000000000000000000000000000000014610706576040517f08c379a00000000000000000000000000000000000000000000000000000000081526004016106fd90611c42565b60405180910390fd5b60008580604001906107189190611d98565b604088806040019061072a9190611d98565b90506107369190611f0b565b90809261074593929190611e49565b906107509190611fb0565b9050600760009054906101000a900473ffffffffffffffffffffffffffffffffffffffff1673ffffffffffffffffffffffffffffffffffffffff168160001c73ffffffffffffffffffffffffffffffffffffffff16146107e5576040517f08c379a00000000000000000000000000000000000000000000000000000000081526004016107dc90611c02565b60405180910390fd5b826108018760000160208101906107fc9190611655565b610a11565b11610841576040517f08c379a000000000000000000000000000000000000000000000000000000000815260040161083890611ca2565b60405180910390fd5b50506108a5565b8061086485600001602081019061085f9190611655565b610a11565b116108a4576040517f08c379a000000000000000000000000000000000000000000000000000000000815260040161089b90611cc2565b60405180910390fd5b5b8360000160208101906108b89190611655565b6040516020016108c89190611b28565b60405160208183030381529060405291505092915050565b60006109826108ed610eef565b8484600260006108fb610eef565b73ffffffffffffffffffffffffffffffffffffffff1673ffffffffffffffffffffffffffffffffffffffff16815260200190815260200160002060008873ffffffffffffffffffffffffffffffffffffffff1673ffffffffffffffffffffffffffffffffffffffff1681526020019081526020016000205461097d9190611e84565b610ef7565b6001905092915050565b600760009054906101000a900473ffffffffffffffffffffffffffffffffffffffff1673ffffffffffffffffffffffffffffffffffffffff16635a627dbc346040518263ffffffff1660e01b81526004016000604051808303818588803b1580156109f657600080fd5b505af1158015610a0a573d6000803e3d6000fd5b5050505050565b6000600160008373ffffffffffffffffffffffffffffffffffffffff1673ffffffffffffffffffffffffffffffffffffffff168152602001908152602001600020549050919050565b610a62610eef565b73ffffffffffffffffffffffffffffffffffffffff16610a80610ae2565b73ffffffffffffffffffffffffffffffffffffffff1614610ad6576040517f08c379a0000000000000000000000000000000000000000000000000000000008152600401610acd90611c82565b60405180910390fd5b610ae0600061135c565b565b60008060009054906101000a900473ffffffffffffffffffffffffffffffffffffffff16905090565b606060058054610b1a90612051565b80601f0160208091040260200160405190810160405280929190818152602001828054610b4690612051565b8015610b935780601f10610b6857610100808354040283529160200191610b93565b820191906000526020600020905b815481529060010190602001808311610b7657829003601f168201915b5050505050905090565b60008060026000610bac610eef565b73ffffffffffffffffffffffffffffffffffffffff1673ffffffffffffffffffffffffffffffffffffffff16815260200190815260200160002060008573ffffffffffffffffffffffffffffffffffffffff1673ffffffffffffffffffffffffffffffffffffffff16815260200190815260200160002054905082811015610c69576040517f08c379a0000000000000000000000000000000000000000000000000000000008152600401610c6090611d22565b60405180910390fd5b610c7d610c74610eef565b85858403610ef7565b600191505092915050565b6000610c9c610c95610eef565b84846110c2565b6001905092915050565b60008383810190610cb79190611682565b90506000610cd160065484610ccc9190611e84565b611346565b9050610cde8230836110c2565b505050505050565b6000600260008473ffffffffffffffffffffffffffffffffffffffff1673ffffffffffffffffffffffffffffffffffffffff16815260200190815260200160002060008373ffffffffffffffffffffffffffffffffffffffff1673ffffffffffffffffffffffffffffffffffffffff16815260200190815260200160002054905092915050565b610d75610eef565b73ffffffffffffffffffffffffffffffffffffffff16610d93610ae2565b73ffffffffffffffffffffffffffffffffffffffff1614610de9576040517f08c379a0000000000000000000000000000000000000000000000000000000008152600401610de090611c82565b60405180910390fd5b610df38282611420565b5050565b610dff610eef565b73ffffffffffffffffffffffffffffffffffffffff16610e1d610ae2565b73ffffffffffffffffffffffffffffffffffffffff1614610e73576040517f08c379a0000000000000000000000000000000000000000000000000000000008152600401610e6a90611c82565b60405180910390fd5b600073ffffffffffffffffffffffffffffffffffffffff168173ffffffffffffffffffffffffffffffffffffffff161415610ee3576040517f08c379a0000000000000000000000000000000000000000000000000000000008152600401610eda90611bc2565b60405180910390fd5b610eec8161135c565b50565b600033905090565b600073ffffffffffffffffffffffffffffffffffffffff168373ffffffffffffffffffffffffffffffffffffffff161415610f67576040517f08c379a0000000000000000000000000000000000000000000000000000000008152600401610f5e90611d02565b60405180910390fd5b600073ffffffffffffffffffffffffffffffffffffffff168273ffffffffffffffffffffffffffffffffffffffff161415610fd7576040517f08c379a0000000000000000000000000000000000000000000000000000000008152600401610fce90611be2565b60405180910390fd5b80600260008573ffffffffffffffffffffffffffffffffffffffff1673ffffffffffffffffffffffffffffffffffffffff16815260200190815260200160002060008473ffffffffffffffffffffffffffffffffffffffff1673ffffffffffffffffffffffffffffffffffffffff168152602001908152602001600020819055508173ffffffffffffffffffffffffffffffffffffffff168373ffffffffffffffffffffffffffffffffffffffff167f8c5be1e5ebec7d5bd14f71427d1e84f3dd0314c0f7b2291e5b200ac8c7c3b925836040516110b59190611d62565b60405180910390a3505050565b600073ffffffffffffffffffffffffffffffffffffffff168373ffffffffffffffffffffffffffffffffffffffff161415611132576040517f08c379a000000000000000000000000000000000000000000000000000000000815260040161112990611ce2565b60405180910390fd5b600073ffffffffffffffffffffffffffffffffffffffff168273ffffffffffffffffffffffffffffffffffffffff1614156111a2576040517f08c379a000000000000000000000000000000000000000000000000000000000815260040161119990611ba2565b60405180910390fd5b6111ad838383611581565b6000600160008573ffffffffffffffffffffffffffffffffffffffff1673ffffffffffffffffffffffffffffffffffffffff16815260200190815260200160002054905081811015611234576040517f08c379a000000000000000000000000000000000000000000000000000000000815260040161122b90611c22565b60405180910390fd5b818103600160008673ffffffffffffffffffffffffffffffffffffffff1673ffffffffffffffffffffffffffffffffffffffff1681526020019081526020016000208190555081600160008573ffffffffffffffffffffffffffffffffffffffff1673ffffffffffffffffffffffffffffffffffffffff16815260200190815260200160002060008282546112c99190611e84565b925050819055508273ffffffffffffffffffffffffffffffffffffffff168473ffffffffffffffffffffffffffffffffffffffff167fddf252ad1be2c89b69c2b068fc378daa952ba7f163c4a11628f55a4df523b3ef8460405161132d9190611d62565b60405180910390a3611340848484611586565b50505050565b60006064826113559190611eda565b9050919050565b60008060009054906101000a900473ffffffffffffffffffffffffffffffffffffffff169050816000806101000a81548173ffffffffffffffffffffffffffffffffffffffff021916908373ffffffffffffffffffffffffffffffffffffffff1602179055508173ffffffffffffffffffffffffffffffffffffffff168173ffffffffffffffffffffffffffffffffffffffff167f8be0079c531659141344cd1fd0a4f28419497f9722a3daafe3b4186f6b6457e060405160405180910390a35050565b600073ffffffffffffffffffffffffffffffffffffffff168273ffffffffffffffffffffffffffffffffffffffff161415611490576040517f08c379a000000000000000000000000000000000000000000000000000000000815260040161148790611d42565b60405180910390fd5b61149c60008383611581565b80600360008282546114ae9190611e84565b9250508190555080600160008473ffffffffffffffffffffffffffffffffffffffff1673ffffffffffffffffffffffffffffffffffffffff16815260200190815260200160002060008282546115049190611e84565b925050819055508173ffffffffffffffffffffffffffffffffffffffff16600073ffffffffffffffffffffffffffffffffffffffff167fddf252ad1be2c89b69c2b068fc378daa952ba7f163c4a11628f55a4df523b3ef836040516115699190611d62565b60405180910390a361157d60008383611586565b5050565b505050565b505050565b60008135905061159a8161251f565b92915050565b6000813590506115af81612536565b92915050565b60008083601f8401126115cb576115ca612115565b5b8235905067ffffffffffffffff8111156115e8576115e7612110565b5b60208301915083600182028301111561160457611603612133565b5b9250929050565b60008135905061161a8161254d565b92915050565b600061016082840312156116375761163661211f565b5b81905092915050565b60008135905061164f8161255d565b92915050565b60006020828403121561166b5761166a612142565b5b60006116798482850161158b565b91505092915050565b60006020828403121561169857611697612142565b5b60006116a6848285016115a0565b91505092915050565b600080604083850312156116c6576116c5612142565b5b60006116d48582860161158b565b92505060206116e58582860161158b565b9150509250929050565b60008060006060848603121561170857611707612142565b5b60006117168682870161158b565b93505060206117278682870161158b565b925050604061173886828701611640565b9150509250925092565b6000806040838503121561175957611758612142565b5b60006117678582860161158b565b925050602061177885828601611640565b9150509250929050565b6000806000806060858703121561179c5761179b612142565b5b60006117aa8782880161160b565b945050602085013567ffffffffffffffff8111156117cb576117ca61213d565b5b6117d7878288016115b5565b935093505060406117ea87828801611640565b91505092959194509250565b6000806040838503121561180d5761180c612142565b5b600083013567ffffffffffffffff81111561182b5761182a61213d565b5b61183785828601611620565b925050602061184885828601611640565b9150509250929050565b61185b81611f3f565b82525050565b61186a81611f63565b82525050565b600061187c8385611e2d565b935061188983858461200f565b82840190509392505050565b60006118a082611e06565b6118aa8185611e1c565b93506118ba81856020860161201e565b6118c381612147565b840191505092915050565b60006118d982611e11565b6118e38185611e38565b93506118f381856020860161201e565b6118fc81612147565b840191505092915050565b6000611914602383611e38565b915061191f82612165565b604082019050919050565b6000611937602683611e38565b9150611942826121b4565b604082019050919050565b600061195a602283611e38565b915061196582612203565b604082019050919050565b600061197d601e83611e38565b915061198882612252565b602082019050919050565b60006119a0602683611e38565b91506119ab8261227b565b604082019050919050565b60006119c3602a83611e38565b91506119ce826122ca565b604082019050919050565b60006119e6602883611e38565b91506119f182612319565b604082019050919050565b6000611a09602083611e38565b9150611a1482612368565b602082019050919050565b6000611a2c602783611e38565b9150611a3782612391565b604082019050919050565b6000611a4f601a83611e38565b9150611a5a826123e0565b602082019050919050565b6000611a72602583611e38565b9150611a7d82612409565b604082019050919050565b6000611a95602483611e38565b9150611aa082612458565b604082019050919050565b6000611ab8602583611e38565b9150611ac3826124a7565b604082019050919050565b6000611adb601f83611e38565b9150611ae6826124f6565b602082019050919050565b611afa81611f99565b82525050565b611b0981611fa3565b82525050565b6000611b1c828486611870565b91508190509392505050565b6000602082019050611b3d6000830184611852565b92915050565b6000602082019050611b586000830184611861565b92915050565b60006020820190508181036000830152611b788184611895565b905092915050565b60006020820190508181036000830152611b9a81846118ce565b905092915050565b60006020820190508181036000830152611bbb81611907565b9050919050565b60006020820190508181036000830152611bdb8161192a565b9050919050565b60006020820190508181036000830152611bfb8161194d565b9050919050565b60006020820190508181036000830152611c1b81611970565b9050919050565b60006020820190508181036000830152611c3b81611993565b9050919050565b60006020820190508181036000830152611c5b816119b6565b9050919050565b60006020820190508181036000830152611c7b816119d9565b9050919050565b60006020820190508181036000830152611c9b816119fc565b9050919050565b60006020820190508181036000830152611cbb81611a1f565b9050919050565b60006020820190508181036000830152611cdb81611a42565b9050919050565b60006020820190508181036000830152611cfb81611a65565b9050919050565b60006020820190508181036000830152611d1b81611a88565b9050919050565b60006020820190508181036000830152611d3b81611aab565b9050919050565b60006020820190508181036000830152611d5b81611ace565b9050919050565b6000602082019050611d776000830184611af1565b92915050565b6000602082019050611d926000830184611b00565b92915050565b60008083356001602003843603038112611db557611db4612124565b5b80840192508235915067ffffffffffffffff821115611dd757611dd661211a565b5b602083019250600182023603831315611df357611df2612138565b5b509250929050565b600082905092915050565b600081519050919050565b600081519050919050565b600082825260208201905092915050565b600081905092915050565b600082825260208201905092915050565b60008085851115611e5d57611e5c61212e565b5b83861115611e6e57611e6d612129565b5b6001850283019150848603905094509492505050565b6000611e8f82611f99565b9150611e9a83611f99565b9250827fffffffffffffffffffffffffffffffffffffffffffffffffffffffffffffffff03821115611ecf57611ece612083565b5b828201905092915050565b6000611ee582611f99565b9150611ef083611f99565b925082611f0057611eff6120b2565b5b828204905092915050565b6000611f1682611f99565b9150611f2183611f99565b925082821015611f3457611f33612083565b5b828203905092915050565b6000611f4a82611f79565b9050919050565b6000611f5c82611f79565b9050919050565b60008115159050919050565b6000819050919050565b600073ffffffffffffffffffffffffffffffffffffffff82169050919050565b6000819050919050565b600060ff82169050919050565b6000611fbc8383611dfb565b82611fc78135611f6f565b92506020821015612007576120027fffffffffffffffffffffffffffffffffffffffffffffffffffffffffffffffff83602003600802612158565b831692505b505092915050565b82818337600083830152505050565b60005b8381101561203c578082015181840152602081019050612021565b8381111561204b576000848401525b50505050565b6000600282049050600182168061206957607f821691505b6020821081141561207d5761207c6120e1565b5b50919050565b7f4e487b7100000000000000000000000000000000000000000000000000000000600052601160045260246000fd5b7f4e487b7100000000000000000000000000000000000000000000000000000000600052601260045260246000fd5b7f4e487b7100000000000000000000000000000000000000000000000000000000600052602260045260246000fd5b600080fd5b600080fd5b600080fd5b600080fd5b600080fd5b600080fd5b600080fd5b600080fd5b600080fd5b600080fd5b600080fd5b6000601f19601f8301169050919050565b600082821b905092915050565b7f45524332303a207472616e7366657220746f20746865207a65726f206164647260008201527f6573730000000000000000000000000000000000000000000000000000000000602082015250565b7f4f776e61626c653a206e6577206f776e657220697320746865207a65726f206160008201527f6464726573730000000000000000000000000000000000000000000000000000602082015250565b7f45524332303a20617070726f766520746f20746865207a65726f20616464726560008201527f7373000000000000000000000000000000000000000000000000000000000000602082015250565b7f77726f6e67207061796d617374657220696e20636f6e7374727563746f720000600082015250565b7f45524332303a207472616e7366657220616d6f756e742065786365656473206260008201527f616c616e63650000000000000000000000000000000000000000000000000000602082015250565b7f546f6b656e5061796d61737465723a20756e6b6e6f776e2077616c6c6574206360008201527f6f6e7374727563746f7200000000000000000000000000000000000000000000602082015250565b7f45524332303a207472616e7366657220616d6f756e742065786365656473206160008201527f6c6c6f77616e6365000000000000000000000000000000000000000000000000602082015250565b7f4f776e61626c653a2063616c6c6572206973206e6f7420746865206f776e6572600082015250565b7f546f6b656e5061796d61737465723a206e6f2062616c616e636520287072652d60008201527f6372656174652900000000000000000000000000000000000000000000000000602082015250565b7f546f6b656e5061796d61737465723a206e6f2062616c616e6365000000000000600082015250565b7f45524332303a207472616e736665722066726f6d20746865207a65726f20616460008201527f6472657373000000000000000000000000000000000000000000000000000000602082015250565b7f45524332303a20617070726f76652066726f6d20746865207a65726f2061646460008201527f7265737300000000000000000000000000000000000000000000000000000000602082015250565b7f45524332303a2064656372656173656420616c6c6f77616e63652062656c6f7760008201527f207a65726f000000000000000000000000000000000000000000000000000000602082015250565b7f45524332303a206d696e7420746f20746865207a65726f206164647265737300600082015250565b61252881611f3f565b811461253357600080fd5b50565b61253f81611f51565b811461254a57600080fd5b50565b6003811061255a57600080fd5b50565b61256681611f99565b811461257157600080fd5b5056fea2646970667358221220e3409aaea5b5ed0061dbbf281f589cefd95fabbd5d706c5fbaad32362dee413164736f6c6343000807003360806040523480156200001157600080fd5b50604051620017d2380380620017d28339818101604052810190620000379190620000d8565b81600260006101000a81548173ffffffffffffffffffffffffffffffffffffffff021916908373ffffffffffffffffffffffffffffffffffffffff16021790555080600160006101000a81548173ffffffffffffffffffffffffffffffffffffffff021916908373ffffffffffffffffffffffffffffffffffffffff160217905550505062000172565b600081519050620000d28162000158565b92915050565b60008060408385031215620000f257620000f162000153565b5b60006200010285828601620000c1565b92505060206200011585828601620000c1565b9150509250929050565b60006200012c8262000133565b9050919050565b600073ffffffffffffffffffffffffffffffffffffffff82169050919050565b600080fd5b62000163816200011f565b81146200016f57600080fd5b50565b61165080620001826000396000f3fe60806040526004361061007f5760003560e01c8063affed0e01161004e578063affed0e014610131578063b62654fb1461015c578063be6002c214610187578063d45109f4146101b057610086565b806341ed0e591461008b5780637c260d48146100b45780638da5cb5b146100dd578063a9059cbb1461010857610086565b3661008657005b600080fd5b34801561009757600080fd5b506100b260048036038101906100ad9190610c0a565b6101d9565b005b3480156100c057600080fd5b506100db60048036038101906100d69190610d64565b610280565b005b3480156100e957600080fd5b506100f2610369565b6040516100ff9190610f76565b60405180910390f35b34801561011457600080fd5b5061012f600480360381019061012a9190610c37565b61038f565b005b34801561013d57600080fd5b506101466103e2565b604051610153919061115b565b60405180910390f35b34801561016857600080fd5b506101716103e8565b60405161017e9190610f76565b60405180910390f35b34801561019357600080fd5b506101ae60048036038101906101a99190610c77565b61040e565b005b3480156101bc57600080fd5b506101d760048036038101906101d29190610d17565b610469565b005b6101e161054b565b7fbf7405b81de3cf3dde24b3ee97cd49371cee922e21a8a7960dfe8e31a0ef9425600260009054906101000a900473ffffffffffffffffffffffffffffffffffffffff1682604051610234929190610f91565b60405180910390a180600260006101000a81548173ffffffffffffffffffffffffffffffffffffffff021916908373ffffffffffffffffffffffffffffffffffffffff16021790555050565b600260009054906101000a900473ffffffffffffffffffffffffffffffffffffffff1673ffffffffffffffffffffffffffffffffffffffff163373ffffffffffffffffffffffffffffffffffffffff1614610310576040517f08c379a0000000000000000000000000000000000000000000000000000000008152600401610307906110fb565b60405180910390fd5b61031982610613565b610322826107b3565b600081146103655760003373ffffffffffffffffffffffffffffffffffffffff166108fc839081150290604051600060405180830381858888f193505050509050505b5050565b600160009054906101000a900473ffffffffffffffffffffffffffffffffffffffff1681565b61039761054b565b8173ffffffffffffffffffffffffffffffffffffffff166108fc829081150290604051600060405180830381858888f193505050501580156103dd573d6000803e3d6000fd5b505050565b60005481565b600260009054906101000a900473ffffffffffffffffffffffffffffffffffffffff1681565b61041661054b565b6104648383838080601f016020809104026020016040519081016040528093929190818152602001838380828437600081840152601f19601f82011690508083019250505050505050610811565b505050565b600260009054906101000a900473ffffffffffffffffffffffffffffffffffffffff1673ffffffffffffffffffffffffffffffffffffffff163373ffffffffffffffffffffffffffffffffffffffff16146104f9576040517f08c379a00000000000000000000000000000000000000000000000000000000081526004016104f0906110db565b60405180910390fd5b6105473083838080601f016020809104026020016040519081016040528093929190818152602001838380828437600081840152601f19601f82011690508083019250505050505050610811565b5050565b600160009054906101000a900473ffffffffffffffffffffffffffffffffffffffff1673ffffffffffffffffffffffffffffffffffffffff163373ffffffffffffffffffffffffffffffffffffffff1614806105d257503073ffffffffffffffffffffffffffffffffffffffff163373ffffffffffffffffffffffffffffffffffffffff16145b610611576040517f08c379a00000000000000000000000000000000000000000000000000000000081526004016106089061113b565b60405180910390fd5b565b600061061e82610892565b90506041828061014001906106339190611176565b905014610675576040517f08c379a000000000000000000000000000000000000000000000000000000000815260040161066c9061109b565b60405180910390fd5b600080838061014001906106899190611176565b8101906106969190610cd7565b915091506000848061014001906106ad9190611176565b60408181106106bf576106be6113ce565b5b9050013560f81c60f81b60f81c9050600184828585604051600081526020016040526040516106f19493929190611056565b6020604051602081039080840390855afa158015610713573d6000803e3d6000fd5b5050506020604051035173ffffffffffffffffffffffffffffffffffffffff16600160009054906101000a900473ffffffffffffffffffffffffffffffffffffffff1673ffffffffffffffffffffffffffffffffffffffff16146107ac576040517f08c379a00000000000000000000000000000000000000000000000000000000081526004016107a3906110bb565b60405180910390fd5b5050505050565b80602001356000808154809291906107ca9061134c565b919050551461080e576040517f08c379a00000000000000000000000000000000000000000000000000000000081526004016108059061111b565b60405180910390fd5b50565b6000808373ffffffffffffffffffffffffffffffffffffffff16836040516108399190610f39565b6000604051808303816000865af19150503d8060008114610876576040519150601f19603f3d011682016040523d82523d6000602084013e61087b565b606091505b50915091508161088c576020810181fd5b50505050565b60006108a6826108a1906112c6565b6108da565b805190602001206040516020016108bd9190610f50565b604051602081830303815290604052805190602001209050919050565b60608160000151826020015183604001518051906020012084606001518051906020012085608001518660a001518760c001518860e001518961010001518a61012001518051906020012060405160200161093e9a99989796959493929190610fba565b6040516020818303038152906040529050919050565b6000610967610962846111fe565b6111d9565b90508281526020810184848401111561098357610982611459565b5b61098e8482856112d9565b509392505050565b6000813590506109a5816115be565b92915050565b6000813590506109ba816115d5565b92915050565b6000813590506109cf816115ec565b92915050565b60008083601f8401126109eb576109ea611431565b5b8235905067ffffffffffffffff811115610a0857610a0761142c565b5b602083019150836001820283011115610a2457610a2361144f565b5b9250929050565b600082601f830112610a4057610a3f611431565b5b8135610a50848260208601610954565b91505092915050565b60006101608284031215610a7057610a6f61143b565b5b81905092915050565b60006101608284031215610a9057610a8f611440565b5b610a9b6101606111d9565b90506000610aab84828501610996565b6000830152506020610abf84828501610bf5565b602083015250604082013567ffffffffffffffff811115610ae357610ae261144a565b5b610aef84828501610a2b565b604083015250606082013567ffffffffffffffff811115610b1357610b1261144a565b5b610b1f84828501610a2b565b6060830152506080610b3384828501610bf5565b60808301525060a0610b4784828501610bf5565b60a08301525060c0610b5b84828501610bf5565b60c08301525060e0610b6f84828501610bf5565b60e083015250610100610b8484828501610996565b6101008301525061012082013567ffffffffffffffff811115610baa57610ba961144a565b5b610bb684828501610a2b565b6101208301525061014082013567ffffffffffffffff811115610bdc57610bdb61144a565b5b610be884828501610a2b565b6101408301525092915050565b600081359050610c0481611603565b92915050565b600060208284031215610c2057610c1f611463565b5b6000610c2e84828501610996565b91505092915050565b60008060408385031215610c4e57610c4d611463565b5b6000610c5c858286016109ab565b9250506020610c6d85828601610bf5565b9150509250929050565b600080600060408486031215610c9057610c8f611463565b5b6000610c9e86828701610996565b935050602084013567ffffffffffffffff811115610cbf57610cbe61145e565b5b610ccb868287016109d5565b92509250509250925092565b60008060408385031215610cee57610ced611463565b5b6000610cfc858286016109c0565b9250506020610d0d858286016109c0565b9150509250929050565b60008060208385031215610d2e57610d2d611463565b5b600083013567ffffffffffffffff811115610d4c57610d4b61145e565b5b610d58858286016109d5565b92509250509250929050565b60008060408385031215610d7b57610d7a611463565b5b600083013567ffffffffffffffff811115610d9957610d9861145e565b5b610da585828601610a59565b9250506020610db685828601610bf5565b9150509250929050565b610dc981611261565b82525050565b610dd881611285565b82525050565b610def610dea82611285565b611395565b82525050565b6000610e008261122f565b610e0a818561123a565b9350610e1a8185602086016112e8565b80840191505092915050565b6000610e33601c83611256565b9150610e3e82611479565b601c82019050919050565b6000610e56602083611245565b9150610e61826114a2565b602082019050919050565b6000610e79601783611245565b9150610e84826114cb565b602082019050919050565b6000610e9c602683611245565b9150610ea7826114f4565b604082019050919050565b6000610ebf601a83611245565b9150610eca82611543565b602082019050919050565b6000610ee2601583611245565b9150610eed8261156c565b602082019050919050565b6000610f05600a83611245565b9150610f1082611595565b602082019050919050565b610f24816112af565b82525050565b610f33816112b9565b82525050565b6000610f458284610df5565b915081905092915050565b6000610f5b82610e26565b9150610f678284610dde565b60208201915081905092915050565b6000602082019050610f8b6000830184610dc0565b92915050565b6000604082019050610fa66000830185610dc0565b610fb36020830184610dc0565b9392505050565b600061014082019050610fd0600083018d610dc0565b610fdd602083018c610f1b565b610fea604083018b610dcf565b610ff7606083018a610dcf565b6110046080830189610f1b565b61101160a0830188610f1b565b61101e60c0830187610f1b565b61102b60e0830186610f1b565b611039610100830185610dc0565b611047610120830184610dcf565b9b9a5050505050505050505050565b600060808201905061106b6000830187610dcf565b6110786020830186610f2a565b6110856040830185610dcf565b6110926060830184610dcf565b95945050505050565b600060208201905081810360008301526110b481610e49565b9050919050565b600060208201905081810360008301526110d481610e6c565b9050919050565b600060208201905081810360008301526110f481610e8f565b9050919050565b6000602082019050818103600083015261111481610eb2565b9050919050565b6000602082019050818103600083015261113481610ed5565b9050919050565b6000602082019050818103600083015261115481610ef8565b9050919050565b60006020820190506111706000830184610f1b565b92915050565b6000808335600160200384360303811261119357611192611445565b5b80840192508235915067ffffffffffffffff8211156111b5576111b4611436565b5b6020830192506001820236038313156111d1576111d0611454565b5b509250929050565b60006111e36111f4565b90506111ef828261131b565b919050565b6000604051905090565b600067ffffffffffffffff821115611219576112186113fd565b5b61122282611468565b9050602081019050919050565b600081519050919050565b600081905092915050565b600082825260208201905092915050565b600081905092915050565b600061126c8261128f565b9050919050565b600061127e8261128f565b9050919050565b6000819050919050565b600073ffffffffffffffffffffffffffffffffffffffff82169050919050565b6000819050919050565b600060ff82169050919050565b60006112d23683610a79565b9050919050565b82818337600083830152505050565b60005b838110156113065780820151818401526020810190506112eb565b83811115611315576000848401525b50505050565b61132482611468565b810181811067ffffffffffffffff82111715611343576113426113fd565b5b80604052505050565b6000611357826112af565b91507fffffffffffffffffffffffffffffffffffffffffffffffffffffffffffffffff82141561138a5761138961139f565b5b600182019050919050565b6000819050919050565b7f4e487b7100000000000000000000000000000000000000000000000000000000600052601160045260246000fd5b7f4e487b7100000000000000000000000000000000000000000000000000000000600052603260045260246000fd5b7f4e487b7100000000000000000000000000000000000000000000000000000000600052604160045260246000fd5b600080fd5b600080fd5b600080fd5b600080fd5b600080fd5b600080fd5b600080fd5b600080fd5b600080fd5b600080fd5b600080fd5b600080fd5b6000601f19601f8301169050919050565b7f19457468657265756d205369676e6564204d6573736167653a0a333200000000600082015250565b7f77616c6c65743a20696e76616c6964207369676e6174757265206c656e677468600082015250565b7f77616c6c65743a2077726f6e67207369676e6174757265000000000000000000600082015250565b7f6578656346726f6d53696e676c65746f6e3a206f6e6c792066726f6d2073696e60008201527f676c65746f6e0000000000000000000000000000000000000000000000000000602082015250565b7f77616c6c65743a206e6f742066726f6d2053696e676c65746f6e000000000000600082015250565b7f77616c6c65743a20696e76616c6964206e6f6e63650000000000000000000000600082015250565b7f6f6e6c79206f776e657200000000000000000000000000000000000000000000600082015250565b6115c781611261565b81146115d257600080fd5b50565b6115de81611273565b81146115e957600080fd5b50565b6115f581611285565b811461160057600080fd5b50565b61160c816112af565b811461161757600080fd5b5056fea2646970667358221220e61f795fdc590e50053dc11d204362c7ccaefb209c40413ccc9792f78576fe8264736f6c63430008070033",
  "linkReferences": {},
  "deployedLinkReferences": {}
}