{
  "_format": "hh-sol-artifact-1",
  "contractName": "TokenPaymaster",
  "sourceName": "contracts/samples/TokenPaymaster.sol",
  "abi": [
    {
      "inputs": [
        {
          "internalType": "string",
          "name": "_symbol",
          "type": "string"
        },
        {
          "internalType": "contract EntryPoint",
          "name": "_entryPoint",
          "type": "address"
        }
      ],
      "stateMutability": "nonpayable",
      "type": "constructor"
    },
    {
      "anonymous": false,
      "inputs": [
        {
          "indexed": true,
          "internalType": "address",
          "name": "owner",
          "type": "address"
        },
        {
          "indexed": true,
          "internalType": "address",
          "name": "spender",
          "type": "address"
        },
        {
          "indexed": false,
          "internalType": "uint256",
          "name": "value",
          "type": "uint256"
        }
      ],
      "name": "Approval",
      "type": "event"
    },
    {
      "anonymous": false,
      "inputs": [
        {
          "indexed": true,
          "internalType": "address",
          "name": "previousOwner",
          "type": "address"
        },
        {
          "indexed": true,
          "internalType": "address",
          "name": "newOwner",
          "type": "address"
        }
      ],
      "name": "OwnershipTransferred",
      "type": "event"
    },
    {
      "anonymous": false,
      "inputs": [
        {
          "indexed": true,
          "internalType": "address",
          "name": "from",
          "type": "address"
        },
        {
          "indexed": true,
          "internalType": "address",
          "name": "to",
          "type": "address"
        },
        {
          "indexed": false,
          "internalType": "uint256",
          "name": "value",
          "type": "uint256"
        }
      ],
      "name": "Transfer",
      "type": "event"
    },
    {
      "inputs": [],
      "name": "addStake",
      "outputs": [],
      "stateMutability": "payable",
      "type": "function"
    },
    {
      "inputs": [
        {
          "internalType": "address",
          "name": "owner",
          "type": "address"
        },
        {
          "internalType": "address",
          "name": "spender",
          "type": "address"
        }
      ],
      "name": "allowance",
      "outputs": [
        {
          "internalType": "uint256",
          "name": "",
          "type": "uint256"
        }
      ],
      "stateMutability": "view",
      "type": "function"
    },
    {
      "inputs": [
        {
          "internalType": "address",
          "name": "spender",
          "type": "address"
        },
        {
          "internalType": "uint256",
          "name": "amount",
          "type": "uint256"
        }
      ],
      "name": "approve",
      "outputs": [
        {
          "internalType": "bool",
          "name": "",
          "type": "bool"
        }
      ],
      "stateMutability": "nonpayable",
      "type": "function"
    },
    {
      "inputs": [
        {
          "internalType": "address",
          "name": "account",
          "type": "address"
        }
      ],
      "name": "balanceOf",
      "outputs": [
        {
          "internalType": "uint256",
          "name": "",
          "type": "uint256"
        }
      ],
      "stateMutability": "view",
      "type": "function"
    },
    {
      "inputs": [],
      "name": "decimals",
      "outputs": [
        {
          "internalType": "uint8",
          "name": "",
          "type": "uint8"
        }
      ],
      "stateMutability": "view",
      "type": "function"
    },
    {
      "inputs": [
        {
          "internalType": "address",
          "name": "spender",
          "type": "address"
        },
        {
          "internalType": "uint256",
          "name": "subtractedValue",
          "type": "uint256"
        }
      ],
      "name": "decreaseAllowance",
      "outputs": [
        {
          "internalType": "bool",
          "name": "",
          "type": "bool"
        }
      ],
      "stateMutability": "nonpayable",
      "type": "function"
    },
    {
      "inputs": [
        {
          "internalType": "address",
          "name": "spender",
          "type": "address"
        },
        {
          "internalType": "uint256",
          "name": "addedValue",
          "type": "uint256"
        }
      ],
      "name": "increaseAllowance",
      "outputs": [
        {
          "internalType": "bool",
          "name": "",
          "type": "bool"
        }
      ],
      "stateMutability": "nonpayable",
      "type": "function"
    },
    {
      "inputs": [
        {
          "internalType": "address",
          "name": "recipient",
          "type": "address"
        },
        {
          "internalType": "uint256",
          "name": "amount",
          "type": "uint256"
        }
      ],
      "name": "mintTokens",
      "outputs": [],
      "stateMutability": "nonpayable",
      "type": "function"
    },
    {
      "inputs": [],
      "name": "name",
      "outputs": [
        {
          "internalType": "string",
          "name": "",
          "type": "string"
        }
      ],
      "stateMutability": "view",
      "type": "function"
    },
    {
      "inputs": [],
      "name": "owner",
      "outputs": [
        {
          "internalType": "address",
          "name": "",
          "type": "address"
        }
      ],
      "stateMutability": "view",
      "type": "function"
    },
    {
      "inputs": [
        {
          "internalType": "enum IPaymaster.PostOpMode",
          "name": "mode",
          "type": "uint8"
        },
        {
          "internalType": "bytes",
          "name": "context",
          "type": "bytes"
        },
        {
          "internalType": "uint256",
          "name": "actualGasCost",
          "type": "uint256"
        }
      ],
      "name": "postOp",
      "outputs": [],
      "stateMutability": "nonpayable",
      "type": "function"
    },
    {
      "inputs": [],
      "name": "renounceOwnership",
      "outputs": [],
      "stateMutability": "nonpayable",
      "type": "function"
    },
    {
      "inputs": [],
      "name": "symbol",
      "outputs": [
        {
          "internalType": "string",
          "name": "",
          "type": "string"
        }
      ],
      "stateMutability": "view",
      "type": "function"
    },
    {
      "inputs": [],
      "name": "totalSupply",
      "outputs": [
        {
          "internalType": "uint256",
          "name": "",
          "type": "uint256"
        }
      ],
      "stateMutability": "view",
      "type": "function"
    },
    {
      "inputs": [
        {
          "internalType": "address",
          "name": "recipient",
          "type": "address"
        },
        {
          "internalType": "uint256",
          "name": "amount",
          "type": "uint256"
        }
      ],
      "name": "transfer",
      "outputs": [
        {
          "internalType": "bool",
          "name": "",
          "type": "bool"
        }
      ],
      "stateMutability": "nonpayable",
      "type": "function"
    },
    {
      "inputs": [
        {
          "internalType": "address",
          "name": "sender",
          "type": "address"
        },
        {
          "internalType": "address",
          "name": "recipient",
          "type": "address"
        },
        {
          "internalType": "uint256",
          "name": "amount",
          "type": "uint256"
        }
      ],
      "name": "transferFrom",
      "outputs": [
        {
          "internalType": "bool",
          "name": "",
          "type": "bool"
        }
      ],
      "stateMutability": "nonpayable",
      "type": "function"
    },
    {
      "inputs": [
        {
          "internalType": "address",
          "name": "newOwner",
          "type": "address"
        }
      ],
      "name": "transferOwnership",
      "outputs": [],
      "stateMutability": "nonpayable",
      "type": "function"
    },
    {
      "inputs": [
        {
          "components": [
            {
              "internalType": "address",
              "name": "sender",
              "type": "address"
            },
            {
              "internalType": "uint256",
              "name": "nonce",
              "type": "uint256"
            },
            {
              "internalType": "bytes",
              "name": "initCode",
              "type": "bytes"
            },
            {
              "internalType": "bytes",
              "name": "callData",
              "type": "bytes"
            },
            {
              "internalType": "uint256",
              "name": "callGas",
              "type": "uint256"
            },
            {
              "internalType": "uint256",
              "name": "verificationGas",
              "type": "uint256"
            },
            {
              "internalType": "uint256",
              "name": "preVerificationGas",
              "type": "uint256"
            },
            {
              "internalType": "uint256",
              "name": "maxFeePerGas",
              "type": "uint256"
            },
            {
              "internalType": "uint256",
              "name": "maxPriorityFeePerGas",
              "type": "uint256"
            },
            {
              "internalType": "address",
              "name": "paymaster",
              "type": "address"
            },
            {
              "internalType": "bytes",
              "name": "paymasterData",
              "type": "bytes"
            },
            {
              "internalType": "bytes",
              "name": "signature",
              "type": "bytes"
            }
          ],
          "internalType": "struct UserOperation",
          "name": "userOp",
          "type": "tuple"
        },
        {
          "internalType": "uint256",
          "name": "requiredPreFund",
          "type": "uint256"
        }
      ],
      "name": "verifyPaymasterUserOp",
      "outputs": [
        {
          "internalType": "bytes",
          "name": "context",
          "type": "bytes"
        }
      ],
      "stateMutability": "view",
      "type": "function"
    }
  ],
  "bytecode": "0x60a0604052610bb86006553480156200001757600080fd5b5060405162002236380380620022368339810160408190526200003a916200034e565b81806200004733620000e9565b81516200005c9060049060208501906200027d565b508051620000729060059060208401906200027d565b5050600780546001600160a01b0319166001600160a01b03841617905550604051620000a1602082016200030c565b601f1982820381018352601f90910116604052805160209190910120608052620000e0620000d76000546001600160a01b031690565b60001962000139565b50505062000492565b600080546001600160a01b038381166001600160a01b0319831681178455604051919092169283917f8be0079c531659141344cd1fd0a4f28419497f9722a3daafe3b4186f6b6457e09190a35050565b60006200014833848462000151565b50600192915050565b6001600160a01b038316620001b95760405162461bcd60e51b8152602060048201526024808201527f45524332303a20617070726f76652066726f6d20746865207a65726f206164646044820152637265737360e01b60648201526084015b60405180910390fd5b6001600160a01b0382166200021c5760405162461bcd60e51b815260206004820152602260248201527f45524332303a20617070726f766520746f20746865207a65726f206164647265604482015261737360f01b6064820152608401620001b0565b6001600160a01b0383811660008181526002602090815260408083209487168084529482529182902085905590518481527f8c5be1e5ebec7d5bd14f71427d1e84f3dd0314c0f7b2291e5b200ac8c7c3b925910160405180910390a3505050565b8280546200028b906200043f565b90600052602060002090601f016020900481019282620002af5760008555620002fa565b82601f10620002ca57805160ff1916838001178555620002fa565b82800160010185558215620002fa579182015b82811115620002fa578251825591602001919060010190620002dd565b50620003089291506200031a565b5090565b610aed806200174983390190565b5b808211156200030857600081556001016200031b565b80516001600160a01b03811681146200034957600080fd5b919050565b600080604083850312156200036257600080fd5b82516001600160401b03808211156200037a57600080fd5b818501915085601f8301126200038f57600080fd5b815181811115620003a457620003a46200047c565b604051601f8201601f19908116603f01168101908382118183101715620003cf57620003cf6200047c565b81604052828152602093508884848701011115620003ec57600080fd5b600091505b82821015620004105784820184015181830185015290830190620003f1565b82821115620004225760008484830101525b95506200043491505085820162000331565b925050509250929050565b600181811c908216806200045457607f821691505b602082108114156200047657634e487b7160e01b600052602260045260246000fd5b50919050565b634e487b7160e01b600052604160045260246000fd5b60805161129b620004ae600039600061069b015261129b6000f3fe6080604052600436106101095760003560e01c806380fd44d511610095578063a9059cbb11610064578063a9059cbb146102b6578063a9a23409146102d6578063dd62ed3e146102f6578063f0dda65c1461033c578063f2fde38b1461035c57600080fd5b806380fd44d5146102395780638da5cb5b1461025957806395d89b4114610281578063a457c2d71461029657600080fd5b8063313ce567116100dc578063313ce567146101a857806339509351146101c45780635a627dbc146101e457806370a08231146101ee578063715018a61461022457600080fd5b806306fdde031461010e578063095ea7b31461013957806318160ddd1461016957806323b872dd14610188575b600080fd5b34801561011a57600080fd5b5061012361037c565b60405161013091906110d0565b60405180910390f35b34801561014557600080fd5b50610159610154366004610f55565b61040e565b6040519015158152602001610130565b34801561017557600080fd5b506003545b604051908152602001610130565b34801561019457600080fd5b506101596101a3366004610f14565b610425565b3480156101b457600080fd5b5060405160128152602001610130565b3480156101d057600080fd5b506101596101df366004610f55565b6104d4565b6101ec610510565b005b3480156101fa57600080fd5b5061017a610209366004610eb7565b6001600160a01b031660009081526001602052604090205490565b34801561023057600080fd5b506101ec6105ef565b34801561024557600080fd5b50610123610254366004611010565b610625565b34801561026557600080fd5b506000546040516001600160a01b039091168152602001610130565b34801561028d57600080fd5b506101236108c3565b3480156102a257600080fd5b506101596102b1366004610f55565b6108d2565b3480156102c257600080fd5b506101596102d1366004610f55565b61096b565b3480156102e257600080fd5b506101ec6102f1366004610f81565b610978565b34801561030257600080fd5b5061017a610311366004610edb565b6001600160a01b03918216600090815260026020908152604080832093909416825291909152205490565b34801561034857600080fd5b506101ec610357366004610f55565b6109b5565b34801561036857600080fd5b506101ec610377366004610eb7565b6109ed565b60606004805461038b906111ff565b80601f01602080910402602001604051908101604052809291908181526020018280546103b7906111ff565b80156104045780601f106103d957610100808354040283529160200191610404565b820191906000526020600020905b8154815290600101906020018083116103e757829003601f168201915b5050505050905090565b600061041b338484610a88565b5060015b92915050565b6000610432848484610bac565b6001600160a01b0384166000908152600260209081526040808320338452909152902054828110156104bc5760405162461bcd60e51b815260206004820152602860248201527f45524332303a207472616e7366657220616d6f756e74206578636565647320616044820152676c6c6f77616e636560c01b60648201526084015b60405180910390fd5b6104c98533858403610a88565b506001949350505050565b3360008181526002602090815260408083206001600160a01b0387168452909152812054909161041b91859061050b908690611190565b610a88565b6007546040805163e7c350e360e01b815290516001600160a01b0390921691630396cb60913491849163e7c350e3916004808301926020929190829003018186803b15801561055e57600080fd5b505afa158015610572573d6000803e3d6000fd5b505050506040513d601f19601f82011682018060405250810190610596919061104d565b6040516001600160e01b031960e085901b16815263ffffffff9190911660048201526024016000604051808303818588803b1580156105d457600080fd5b505af11580156105e8573d6000803e3d6000fd5b5050505050565b6000546001600160a01b031633146106195760405162461bcd60e51b81526004016104b3906110e3565b6106236000610d7b565b565b6060600061063283610dcb565b90506106416040850185611118565b15905061082b5760006106576040860186611118565b60009060406106688982018a611118565b6106739291506111ca565b9261068093929190611166565b60405161068e9291906110c0565b60405180910390209050807f00000000000000000000000000000000000000000000000000000000000000001461071a5760405162461bcd60e51b815260206004820152602a60248201527f546f6b656e5061796d61737465723a20756e6b6e6f776e2077616c6c6574206360448201526937b739ba393ab1ba37b960b11b60648201526084016104b3565b60006107296040870187611118565b60406107378982018a611118565b6107429291506111ca565b61074d928290611166565b610756916111e1565b6007549091506001600160a01b038083169116146107b65760405162461bcd60e51b815260206004820152601e60248201527f77726f6e67207061796d617374657220696e20636f6e7374727563746f72000060448201526064016104b3565b826107c76102096020890189610eb7565b116108245760405162461bcd60e51b815260206004820152602760248201527f546f6b656e5061796d61737465723a206e6f2062616c616e636520287072652d6044820152666372656174652960c81b60648201526084016104b3565b5050610889565b8061083c6102096020870187610eb7565b116108895760405162461bcd60e51b815260206004820152601a60248201527f546f6b656e5061796d61737465723a206e6f2062616c616e636500000000000060448201526064016104b3565b6108966020850185610eb7565b604080516001600160a01b0390921660208301520160405160208183030381529060405291505092915050565b60606005805461038b906111ff565b3360009081526002602090815260408083206001600160a01b0386168452909152812054828110156109545760405162461bcd60e51b815260206004820152602560248201527f45524332303a2064656372656173656420616c6c6f77616e63652062656c6f77604482015264207a65726f60d81b60648201526084016104b3565b6109613385858403610a88565b5060019392505050565b600061041b338484610bac565b600061098683850185610eb7565b905060006109a06006548461099b9190611190565b610dcb565b90506109ad823083610bac565b505050505050565b6000546001600160a01b031633146109df5760405162461bcd60e51b81526004016104b3906110e3565b6109e98282610dd8565b5050565b6000546001600160a01b03163314610a175760405162461bcd60e51b81526004016104b3906110e3565b6001600160a01b038116610a7c5760405162461bcd60e51b815260206004820152602660248201527f4f776e61626c653a206e6577206f776e657220697320746865207a65726f206160448201526564647265737360d01b60648201526084016104b3565b610a8581610d7b565b50565b6001600160a01b038316610aea5760405162461bcd60e51b8152602060048201526024808201527f45524332303a20617070726f76652066726f6d20746865207a65726f206164646044820152637265737360e01b60648201526084016104b3565b6001600160a01b038216610b4b5760405162461bcd60e51b815260206004820152602260248201527f45524332303a20617070726f766520746f20746865207a65726f206164647265604482015261737360f01b60648201526084016104b3565b6001600160a01b0383811660008181526002602090815260408083209487168084529482529182902085905590518481527f8c5be1e5ebec7d5bd14f71427d1e84f3dd0314c0f7b2291e5b200ac8c7c3b925910160405180910390a3505050565b6001600160a01b038316610c105760405162461bcd60e51b815260206004820152602560248201527f45524332303a207472616e736665722066726f6d20746865207a65726f206164604482015264647265737360d81b60648201526084016104b3565b6001600160a01b038216610c725760405162461bcd60e51b815260206004820152602360248201527f45524332303a207472616e7366657220746f20746865207a65726f206164647260448201526265737360e81b60648201526084016104b3565b6001600160a01b03831660009081526001602052604090205481811015610cea5760405162461bcd60e51b815260206004820152602660248201527f45524332303a207472616e7366657220616d6f756e7420657863656564732062604482015265616c616e636560d01b60648201526084016104b3565b6001600160a01b03808516600090815260016020526040808220858503905591851681529081208054849290610d21908490611190565b92505081905550826001600160a01b0316846001600160a01b03167fddf252ad1be2c89b69c2b068fc378daa952ba7f163c4a11628f55a4df523b3ef84604051610d6d91815260200190565b60405180910390a350505050565b600080546001600160a01b038381166001600160a01b0319831681178455604051919092169283917f8be0079c531659141344cd1fd0a4f28419497f9722a3daafe3b4186f6b6457e09190a35050565b600061041f6064836111a8565b6001600160a01b038216610e2e5760405162461bcd60e51b815260206004820152601f60248201527f45524332303a206d696e7420746f20746865207a65726f20616464726573730060448201526064016104b3565b8060036000828254610e409190611190565b90915550506001600160a01b03821660009081526001602052604081208054839290610e6d908490611190565b90915550506040518181526001600160a01b038316906000907fddf252ad1be2c89b69c2b068fc378daa952ba7f163c4a11628f55a4df523b3ef9060200160405180910390a35050565b600060208284031215610ec957600080fd5b8135610ed481611250565b9392505050565b60008060408385031215610eee57600080fd5b8235610ef981611250565b91506020830135610f0981611250565b809150509250929050565b600080600060608486031215610f2957600080fd5b8335610f3481611250565b92506020840135610f4481611250565b929592945050506040919091013590565b60008060408385031215610f6857600080fd5b8235610f7381611250565b946020939093013593505050565b60008060008060608587031215610f9757600080fd5b843560038110610fa657600080fd5b9350602085013567ffffffffffffffff80821115610fc357600080fd5b818701915087601f830112610fd757600080fd5b813581811115610fe657600080fd5b886020828501011115610ff857600080fd5b95986020929092019750949560400135945092505050565b6000806040838503121561102357600080fd5b823567ffffffffffffffff81111561103a57600080fd5b83016101808186031215610f7357600080fd5b60006020828403121561105f57600080fd5b815163ffffffff81168114610ed457600080fd5b6000815180845260005b818110156110995760208185018101518683018201520161107d565b818111156110ab576000602083870101525b50601f01601f19169290920160200192915050565b8183823760009101908152919050565b602081526000610ed46020830184611073565b6020808252818101527f4f776e61626c653a2063616c6c6572206973206e6f7420746865206f776e6572604082015260600190565b6000808335601e1984360301811261112f57600080fd5b83018035915067ffffffffffffffff82111561114a57600080fd5b60200191503681900382131561115f57600080fd5b9250929050565b6000808585111561117657600080fd5b8386111561118357600080fd5b5050820193919092039150565b600082198211156111a3576111a361123a565b500190565b6000826111c557634e487b7160e01b600052601260045260246000fd5b500490565b6000828210156111dc576111dc61123a565b500390565b8035602083101561041f57600019602084900360031b1b1692915050565b600181811c9082168061121357607f821691505b6020821081141561123457634e487b7160e01b600052602260045260246000fd5b50919050565b634e487b7160e01b600052601160045260246000fd5b6001600160a01b0381168114610a8557600080fdfea2646970667358221220627fc20ae2187ac848de5ab2a709756bdd4b22f3e5e96578b7b1d4ee66ede86364736f6c63430008070033608060405234801561001057600080fd5b50604051610aed380380610aed83398101604081905261002f91610077565b600180546001600160a01b039384166001600160a01b031990911617905560008054919092166c01000000000000000000000000026001600160601b039091161790556100c9565b6000806040838503121561008a57600080fd5b8251610095816100b1565b60208401519092506100a6816100b1565b809150509250929050565b6001600160a01b03811681146100c657600080fd5b50565b610a15806100d86000396000f3fe6080604052600436106100955760003560e01c80638da5cb5b116100595780638da5cb5b1461012b578063a9059cbb14610169578063affed0e014610189578063b0d691fe146101b0578063fbfb39e0146101d057600080fd5b80630565bb67146100a15780631b71bb6e146100c35780634a58db19146100e357806351e41700146100eb57806380c5c7d01461010b57600080fd5b3661009c57005b600080fd5b3480156100ad57600080fd5b506100c16100bc366004610846565b6101f0565b005b3480156100cf57600080fd5b506100c16100de3660046107f6565b61023f565b6100c16102b0565b3480156100f757600080fd5b506100c16101063660046107f6565b61031b565b34801561011757600080fd5b506100c1610126366004610846565b610362565b34801561013757600080fd5b50600054600160601b90046001600160a01b03165b6040516001600160a01b0390911681526020015b60405180910390f35b34801561017557600080fd5b506100c161018436600461081a565b61036a565b34801561019557600080fd5b506000546001600160601b0316604051908152602001610160565b3480156101bc57600080fd5b5060015461014c906001600160a01b031681565b3480156101dc57600080fd5b506100c16101eb3660046108cf565b6103ad565b6101f86103d4565b610239848484848080601f01602080910402602001604051908101604052809392919081815260200183838082843760009201919091525061043392505050565b50505050565b6102476103d4565b600154604080516001600160a01b03928316815291831660208301527f450909c1478d09248269d4ad4fa8cba61ca3f50faed58c7aedefa51c7f62b83a910160405180910390a1600180546001600160a01b0319166001600160a01b0392909216919091179055565b600160009054906101000a90046001600160a01b03166001600160a01b0316634a58db19346040518263ffffffff1660e01b81526004016000604051808303818588803b15801561030057600080fd5b505af1158015610314573d6000803e3d6000fd5b5050505050565b60015460405163611d2e7560e11b81526001600160a01b0383811660048301529091169063c23a5cea90602401600060405180830381600087803b15801561030057600080fd5b6101f86104a2565b6103726103d4565b6040516001600160a01b0383169082156108fc029083906000818181858888f193505050501580156103a8573d6000803e3d6000fd5b505050565b6103b56104a2565b6103be826104fc565b6103c7826105ae565b6103d081610658565b5050565b600054600160601b90046001600160a01b03163314806103f357503330145b6104315760405162461bcd60e51b815260206004820152600a60248201526937b7363c9037bbb732b960b11b60448201526064015b60405180910390fd5b565b600080846001600160a01b0316848460405161044f919061090c565b60006040518083038185875af1925050503d806000811461048c576040519150601f19603f3d011682016040523d82523d6000602084013e610491565b606091505b509150915081610314576020810181fd5b6001546001600160a01b031633146104315760405162461bcd60e51b815260206004820152601b60248201527f77616c6c65743a206e6f742066726f6d20456e747279506f696e7400000000006044820152606401610428565b600061050782610680565b90506000808061052361051e610160870187610947565b6106e3565b9250925092506105358482858561074f565b6001600160a01b03166105586000546001600160a01b03600160601b9091041690565b6001600160a01b0316146103145760405162461bcd60e51b815260206004820152601760248201527f77616c6c65743a2077726f6e67207369676e61747572650000000000000000006044820152606401610428565b6105bb6040820182610947565b1515905061065557600080546020830135916001600160601b0390911690806105e383610995565b91906101000a8154816001600160601b0302191690836001600160601b031602179055506001600160601b0316146106555760405162461bcd60e51b815260206004820152601560248201527477616c6c65743a20696e76616c6964206e6f6e636560581b6044820152606401610428565b50565b801561065557604051600090339083156108fc0290849084818181858888f150505050505050565b600061068b826107b7565b80516020918201206040517f19457468657265756d205369676e6564204d6573736167653a0a33320000000092810192909252603c820152605c01604051602081830303815290604052805190602001209050919050565b60008080604184146107375760405162461bcd60e51b815260206004820181905260248201527f77616c6c65743a20696e76616c6964207369676e6174757265206c656e6774686044820152606401610428565b50508235936020840135936040013560001a92509050565b6040805160008082526020820180845287905260ff861692820192909252606081018490526080810183905260019060a0016020604051602081039080840390855afa1580156107a3573d6000803e3d6000fd5b5050604051601f1901519695505050505050565b60603660006107ca610160850185610947565b915091508360208184030360405194506020810185016040528085528082602087013750505050919050565b60006020828403121561080857600080fd5b8135610813816109ca565b9392505050565b6000806040838503121561082d57600080fd5b8235610838816109ca565b946020939093013593505050565b6000806000806060858703121561085c57600080fd5b8435610867816109ca565b935060208501359250604085013567ffffffffffffffff8082111561088b57600080fd5b818701915087601f83011261089f57600080fd5b8135818111156108ae57600080fd5b8860208285010111156108c057600080fd5b95989497505060200194505050565b600080604083850312156108e257600080fd5b823567ffffffffffffffff8111156108f957600080fd5b8301610180818603121561083857600080fd5b6000825160005b8181101561092d5760208186018101518583015201610913565b8181111561093c576000828501525b509190910192915050565b6000808335601e1984360301811261095e57600080fd5b83018035915067ffffffffffffffff82111561097957600080fd5b60200191503681900382131561098e57600080fd5b9250929050565b60006001600160601b03808316818114156109c057634e487b7160e01b600052601160045260246000fd5b6001019392505050565b6001600160a01b038116811461065557600080fdfea264697066735822122060a95252b25b23dd208aa04a5a7d75efffd9ee1f7980d087a2ac978cfed715bd64736f6c63430008070033",
  "linkReferences": {},
  "deployedLinkReferences": {}
}