{
  "_format": "hh-sol-artifact-1",
  "contractName": "TokenPaymaster",
  "sourceName": "contracts/samples/TokenPaymaster.sol",
  "abi": [
    {
      "inputs": [
        {
          "internalType": "string",
          "name": "_symbol",
          "type": "string"
        },
        {
          "internalType": "contract EntryPoint",
          "name": "_entryPoint",
          "type": "address"
        }
      ],
      "stateMutability": "nonpayable",
      "type": "constructor"
    },
    {
      "anonymous": false,
      "inputs": [
        {
          "indexed": true,
          "internalType": "address",
          "name": "owner",
          "type": "address"
        },
        {
          "indexed": true,
          "internalType": "address",
          "name": "spender",
          "type": "address"
        },
        {
          "indexed": false,
          "internalType": "uint256",
          "name": "value",
          "type": "uint256"
        }
      ],
      "name": "Approval",
      "type": "event"
    },
    {
      "anonymous": false,
      "inputs": [
        {
          "indexed": true,
          "internalType": "address",
          "name": "previousOwner",
          "type": "address"
        },
        {
          "indexed": true,
          "internalType": "address",
          "name": "newOwner",
          "type": "address"
        }
      ],
      "name": "OwnershipTransferred",
      "type": "event"
    },
    {
      "anonymous": false,
      "inputs": [
        {
          "indexed": true,
          "internalType": "address",
          "name": "from",
          "type": "address"
        },
        {
          "indexed": true,
          "internalType": "address",
          "name": "to",
          "type": "address"
        },
        {
          "indexed": false,
          "internalType": "uint256",
          "name": "value",
          "type": "uint256"
        }
      ],
      "name": "Transfer",
      "type": "event"
    },
    {
      "inputs": [
        {
          "internalType": "uint32",
          "name": "extraUnstakeDelaySec",
          "type": "uint32"
        }
      ],
      "name": "addStake",
      "outputs": [],
      "stateMutability": "payable",
      "type": "function"
    },
    {
      "inputs": [
        {
          "internalType": "address",
          "name": "owner",
          "type": "address"
        },
        {
          "internalType": "address",
          "name": "spender",
          "type": "address"
        }
      ],
      "name": "allowance",
      "outputs": [
        {
          "internalType": "uint256",
          "name": "",
          "type": "uint256"
        }
      ],
      "stateMutability": "view",
      "type": "function"
    },
    {
      "inputs": [
        {
          "internalType": "address",
          "name": "spender",
          "type": "address"
        },
        {
          "internalType": "uint256",
          "name": "amount",
          "type": "uint256"
        }
      ],
      "name": "approve",
      "outputs": [
        {
          "internalType": "bool",
          "name": "",
          "type": "bool"
        }
      ],
      "stateMutability": "nonpayable",
      "type": "function"
    },
    {
      "inputs": [
        {
          "internalType": "address",
          "name": "account",
          "type": "address"
        }
      ],
      "name": "balanceOf",
      "outputs": [
        {
          "internalType": "uint256",
          "name": "",
          "type": "uint256"
        }
      ],
      "stateMutability": "view",
      "type": "function"
    },
    {
      "inputs": [],
      "name": "decimals",
      "outputs": [
        {
          "internalType": "uint8",
          "name": "",
          "type": "uint8"
        }
      ],
      "stateMutability": "view",
      "type": "function"
    },
    {
      "inputs": [
        {
          "internalType": "address",
          "name": "spender",
          "type": "address"
        },
        {
          "internalType": "uint256",
          "name": "subtractedValue",
          "type": "uint256"
        }
      ],
      "name": "decreaseAllowance",
      "outputs": [
        {
          "internalType": "bool",
          "name": "",
          "type": "bool"
        }
      ],
      "stateMutability": "nonpayable",
      "type": "function"
    },
    {
      "inputs": [],
      "name": "entryPoint",
      "outputs": [
        {
          "internalType": "contract EntryPoint",
          "name": "",
          "type": "address"
        }
      ],
      "stateMutability": "view",
      "type": "function"
    },
    {
      "inputs": [],
      "name": "getDeposit",
      "outputs": [
        {
          "internalType": "uint256",
          "name": "",
          "type": "uint256"
        }
      ],
      "stateMutability": "view",
      "type": "function"
    },
    {
      "inputs": [
        {
          "internalType": "address",
          "name": "spender",
          "type": "address"
        },
        {
          "internalType": "uint256",
          "name": "addedValue",
          "type": "uint256"
        }
      ],
      "name": "increaseAllowance",
      "outputs": [
        {
          "internalType": "bool",
          "name": "",
          "type": "bool"
        }
      ],
      "stateMutability": "nonpayable",
      "type": "function"
    },
    {
      "inputs": [
        {
          "internalType": "address",
          "name": "recipient",
          "type": "address"
        },
        {
          "internalType": "uint256",
          "name": "amount",
          "type": "uint256"
        }
      ],
      "name": "mintTokens",
      "outputs": [],
      "stateMutability": "nonpayable",
      "type": "function"
    },
    {
      "inputs": [],
      "name": "name",
      "outputs": [
        {
          "internalType": "string",
          "name": "",
          "type": "string"
        }
      ],
      "stateMutability": "view",
      "type": "function"
    },
    {
      "inputs": [],
      "name": "owner",
      "outputs": [
        {
          "internalType": "address",
          "name": "",
          "type": "address"
        }
      ],
      "stateMutability": "view",
      "type": "function"
    },
    {
      "inputs": [
        {
          "internalType": "enum IPaymaster.PostOpMode",
          "name": "mode",
          "type": "uint8"
        },
        {
          "internalType": "bytes",
          "name": "context",
          "type": "bytes"
        },
        {
          "internalType": "uint256",
          "name": "actualGasCost",
          "type": "uint256"
        }
      ],
      "name": "postOp",
      "outputs": [],
      "stateMutability": "nonpayable",
      "type": "function"
    },
    {
      "inputs": [],
      "name": "renounceOwnership",
      "outputs": [],
      "stateMutability": "nonpayable",
      "type": "function"
    },
    {
      "inputs": [
        {
          "internalType": "contract EntryPoint",
          "name": "_entryPoint",
          "type": "address"
        }
      ],
      "name": "setEntrypoint",
      "outputs": [],
      "stateMutability": "nonpayable",
      "type": "function"
    },
    {
      "inputs": [],
      "name": "symbol",
      "outputs": [
        {
          "internalType": "string",
          "name": "",
          "type": "string"
        }
      ],
      "stateMutability": "view",
      "type": "function"
    },
    {
      "inputs": [],
      "name": "totalSupply",
      "outputs": [
        {
          "internalType": "uint256",
          "name": "",
          "type": "uint256"
        }
      ],
      "stateMutability": "view",
      "type": "function"
    },
    {
      "inputs": [
        {
          "internalType": "address",
          "name": "recipient",
          "type": "address"
        },
        {
          "internalType": "uint256",
          "name": "amount",
          "type": "uint256"
        }
      ],
      "name": "transfer",
      "outputs": [
        {
          "internalType": "bool",
          "name": "",
          "type": "bool"
        }
      ],
      "stateMutability": "nonpayable",
      "type": "function"
    },
    {
      "inputs": [
        {
          "internalType": "address",
          "name": "sender",
          "type": "address"
        },
        {
          "internalType": "address",
          "name": "recipient",
          "type": "address"
        },
        {
          "internalType": "uint256",
          "name": "amount",
          "type": "uint256"
        }
      ],
      "name": "transferFrom",
      "outputs": [
        {
          "internalType": "bool",
          "name": "",
          "type": "bool"
        }
      ],
      "stateMutability": "nonpayable",
      "type": "function"
    },
    {
      "inputs": [
        {
          "internalType": "address",
          "name": "newOwner",
          "type": "address"
        }
      ],
      "name": "transferOwnership",
      "outputs": [],
      "stateMutability": "nonpayable",
      "type": "function"
    },
    {
      "inputs": [],
      "name": "unstakeDeposit",
      "outputs": [],
      "stateMutability": "nonpayable",
      "type": "function"
    },
    {
      "inputs": [
        {
          "components": [
            {
              "internalType": "address",
              "name": "sender",
              "type": "address"
            },
            {
              "internalType": "uint256",
              "name": "nonce",
              "type": "uint256"
            },
            {
              "internalType": "bytes",
              "name": "initCode",
              "type": "bytes"
            },
            {
              "internalType": "bytes",
              "name": "callData",
              "type": "bytes"
            },
            {
              "internalType": "uint256",
              "name": "callGas",
              "type": "uint256"
            },
            {
              "internalType": "uint256",
              "name": "verificationGas",
              "type": "uint256"
            },
            {
              "internalType": "uint256",
              "name": "preVerificationGas",
              "type": "uint256"
            },
            {
              "internalType": "uint256",
              "name": "maxFeePerGas",
              "type": "uint256"
            },
            {
              "internalType": "uint256",
              "name": "maxPriorityFeePerGas",
              "type": "uint256"
            },
            {
              "internalType": "address",
              "name": "paymaster",
              "type": "address"
            },
            {
              "internalType": "bytes",
              "name": "paymasterData",
              "type": "bytes"
            },
            {
              "internalType": "bytes",
              "name": "signature",
              "type": "bytes"
            }
          ],
          "internalType": "struct UserOperation",
          "name": "userOp",
          "type": "tuple"
        },
        {
          "internalType": "bytes32",
          "name": "",
          "type": "bytes32"
        },
        {
          "internalType": "uint256",
          "name": "requiredPreFund",
          "type": "uint256"
        }
      ],
      "name": "validatePaymasterUserOp",
      "outputs": [
        {
          "internalType": "bytes",
          "name": "context",
          "type": "bytes"
        }
      ],
      "stateMutability": "view",
      "type": "function"
    },
    {
      "inputs": [
        {
          "internalType": "address payable",
          "name": "withdrawAddress",
          "type": "address"
        },
        {
          "internalType": "uint256",
          "name": "withdrawAmount",
          "type": "uint256"
        }
      ],
      "name": "withdrawTo",
      "outputs": [],
      "stateMutability": "nonpayable",
      "type": "function"
    }
  ],
  "bytecode": "0x60a0604052613a986007553480156200001757600080fd5b5060405162002d6538038062002d658339810160408190526200003a91620004c2565b8180826200004833620000c6565b620000538162000116565b50815162000069906005906020850190620003f1565b5080516200007f906006906020840190620003f1565b506200008d91505062000198565b6080526200009d306001620001cc565b620000bd620000b46000546001600160a01b031690565b600019620002b1565b5050506200062d565b600080546001600160a01b038381166001600160a01b0319831681178455604051919092169283917f8be0079c531659141344cd1fd0a4f28419497f9722a3daafe3b4186f6b6457e09190a35050565b6000546001600160a01b03163314620001765760405162461bcd60e51b815260206004820181905260248201527f4f776e61626c653a2063616c6c6572206973206e6f7420746865206f776e657260448201526064015b60405180910390fd5b600180546001600160a01b0319166001600160a01b0392909216919091179055565b600060405180602001620001ac9062000480565b6020820181038252601f19601f8201166040525080519060200120905090565b6001600160a01b038216620002245760405162461bcd60e51b815260206004820152601f60248201527f45524332303a206d696e7420746f20746865207a65726f20616464726573730060448201526064016200016d565b8060046000828254620002389190620005b3565b90915550506001600160a01b0382166000908152600260205260408120805483929062000267908490620005b3565b90915550506040518181526001600160a01b038316906000907fddf252ad1be2c89b69c2b068fc378daa952ba7f163c4a11628f55a4df523b3ef9060200160405180910390a35050565b6000620002c0338484620002c9565b50600192915050565b6001600160a01b0383166200032d5760405162461bcd60e51b8152602060048201526024808201527f45524332303a20617070726f76652066726f6d20746865207a65726f206164646044820152637265737360e01b60648201526084016200016d565b6001600160a01b038216620003905760405162461bcd60e51b815260206004820152602260248201527f45524332303a20617070726f766520746f20746865207a65726f206164647265604482015261737360f01b60648201526084016200016d565b6001600160a01b0383811660008181526003602090815260408083209487168084529482529182902085905590518481527f8c5be1e5ebec7d5bd14f71427d1e84f3dd0314c0f7b2291e5b200ac8c7c3b925910160405180910390a3505050565b828054620003ff90620005da565b90600052602060002090601f0160209004810192826200042357600085556200046e565b82601f106200043e57805160ff19168380011785556200046e565b828001600101855582156200046e579182015b828111156200046e57825182559160200191906001019062000451565b506200047c9291506200048e565b5090565b6110778062001cee83390190565b5b808211156200047c57600081556001016200048f565b80516001600160a01b0381168114620004bd57600080fd5b919050565b60008060408385031215620004d657600080fd5b82516001600160401b0380821115620004ee57600080fd5b818501915085601f8301126200050357600080fd5b81518181111562000518576200051862000617565b604051601f8201601f19908116603f0116810190838211818310171562000543576200054362000617565b816040528281526020935088848487010111156200056057600080fd5b600091505b8282101562000584578482018401518183018501529083019062000565565b82821115620005965760008484830101525b9550620005a8915050858201620004a5565b925050509250929050565b60008219821115620005d557634e487b7160e01b600052601160045260246000fd5b500190565b600181811c90821680620005ef57607f821691505b602082108114156200061157634e487b7160e01b600052602260045260246000fd5b50919050565b634e487b7160e01b600052604160045260246000fd5b6080516116a5620006496000396000610ff801526116a56000f3fe6080604052600436106101405760003560e01c80637bfd0845116100b6578063b0d691fe1161006f578063b0d691fe14610377578063c399ec8814610397578063dd62ed3e146103ac578063ee512517146103f2578063f0dda65c14610412578063f2fde38b1461043257600080fd5b80637bfd0845146102b05780638da5cb5b146102d057806395d89b4114610302578063a457c2d714610317578063a9059cbb14610337578063a9a234091461035757600080fd5b806323b872dd1161010857806323b872dd146101f4578063313ce5671461021457806337bbb73a14610230578063395093511461024557806370a0823114610265578063715018a61461029b57600080fd5b80630396cb601461014557806306fdde031461015a578063095ea7b31461018557806318160ddd146101b5578063205c2878146101d4575b600080fd5b610158610153366004611409565b610452565b005b34801561016657600080fd5b5061016f610580565b60405161017c91906114a0565b60405180910390f35b34801561019157600080fd5b506101a56101a0366004611267565b610612565b604051901515815260200161017c565b3480156101c157600080fd5b506004545b60405190815260200161017c565b3480156101e057600080fd5b506101586101ef366004611267565b610629565b34801561020057600080fd5b506101a561020f3660046112cc565b6106a1565b34801561022057600080fd5b506040516012815260200161017c565b34801561023c57600080fd5b5061015861074b565b34801561025157600080fd5b506101a5610260366004611267565b6107df565b34801561027157600080fd5b506101c6610280366004611243565b6001600160a01b031660009081526002602052604090205490565b3480156102a757600080fd5b5061015861081b565b3480156102bc57600080fd5b5061016f6102cb36600461139c565b610851565b3480156102dc57600080fd5b506000546001600160a01b03165b6040516001600160a01b03909116815260200161017c565b34801561030e57600080fd5b5061016f6109ed565b34801561032357600080fd5b506101a5610332366004611267565b6109fc565b34801561034357600080fd5b506101a5610352366004611267565b610a95565b34801561036357600080fd5b5061015861037236600461130d565b610aa2565b34801561038357600080fd5b506001546102ea906001600160a01b031681565b3480156103a357600080fd5b506101c6610ab6565b3480156103b857600080fd5b506101c66103c7366004611293565b6001600160a01b03918216600090815260036020908152604080832093909416825291909152205490565b3480156103fe57600080fd5b5061015861040d366004611243565b610b37565b34801561041e57600080fd5b5061015861042d366004611267565b610b83565b34801561043e57600080fd5b5061015861044d366004611243565b610bbb565b6000546001600160a01b031633146104855760405162461bcd60e51b815260040161047c906114b3565b60405180910390fd5b60015460408051630721732f60e31b815290516001600160a01b0390921691634a5b84ec91349130918691869163390b9978916004808301926020929190829003018186803b1580156104d757600080fd5b505afa1580156104eb573d6000803e3d6000fd5b505050506040513d601f19601f8201168201806040525081019061050f9190611426565b6105199190611578565b6040516001600160e01b031960e086901b1681526001600160a01b03909216600483015263ffffffff1660248201526044016000604051808303818588803b15801561056457600080fd5b505af1158015610578573d6000803e3d6000fd5b505050505050565b60606005805461058f906115f7565b80601f01602080910402602001604051908101604052809291908181526020018280546105bb906115f7565b80156106085780601f106105dd57610100808354040283529160200191610608565b820191906000526020600020905b8154815290600101906020018083116105eb57829003601f168201915b5050505050905090565b600061061f338484610c56565b5060015b92915050565b6000546001600160a01b031633146106535760405162461bcd60e51b815260040161047c906114b3565b60015460405163040b850f60e31b81526001600160a01b038481166004830152602482018490529091169063205c287890604401600060405180830381600087803b15801561056457600080fd5b60006106ae848484610d7a565b6001600160a01b0384166000908152600360209081526040808320338452909152902054828110156107335760405162461bcd60e51b815260206004820152602860248201527f45524332303a207472616e7366657220616d6f756e74206578636565647320616044820152676c6c6f77616e636560c01b606482015260840161047c565b6107408533858403610c56565b506001949350505050565b6000546001600160a01b031633146107755760405162461bcd60e51b815260040161047c906114b3565b600160009054906101000a90046001600160a01b03166001600160a01b03166337bbb73a6040518163ffffffff1660e01b8152600401600060405180830381600087803b1580156107c557600080fd5b505af11580156107d9573d6000803e3d6000fd5b50505050565b3360008181526003602090815260408083206001600160a01b0387168452909152812054909161061f918590610816908690611560565b610c56565b6000546001600160a01b031633146108455760405162461bcd60e51b815260040161047c906114b3565b61084f6000610f48565b565b6060600061085e83610f98565b9050613e808560a00135116108c45760405162461bcd60e51b815260206004820152602660248201527f546f6b656e5061796d61737465723a2067617320746f6f206c6f7720666f72206044820152650706f73744f760d41b606482015260840161047c565b6108d160408601866114e8565b159050610954576108e185610fa5565b806108f26102806020880188611243565b1161094f5760405162461bcd60e51b815260206004820152602760248201527f546f6b656e5061796d61737465723a206e6f2062616c616e636520287072652d6044820152666372656174652960c81b606482015260840161047c565b6109b2565b806109656102806020880188611243565b116109b25760405162461bcd60e51b815260206004820152601a60248201527f546f6b656e5061796d61737465723a206e6f2062616c616e6365000000000000604482015260640161047c565b6109bf6020860186611243565b604080516001600160a01b039092166020830152016040516020818303038152906040529150509392505050565b60606006805461058f906115f7565b3360009081526003602090815260408083206001600160a01b038616845290915281205482811015610a7e5760405162461bcd60e51b815260206004820152602560248201527f45524332303a2064656372656173656420616c6c6f77616e63652062656c6f77604482015264207a65726f60d81b606482015260840161047c565b610a8b3385858403610c56565b5060019392505050565b600061061f338484610d7a565b610aaa611118565b6107d98484848461112f565b6001546040516370a0823160e01b81523060048201526000916001600160a01b0316906370a082319060240160206040518083038186803b158015610afa57600080fd5b505afa158015610b0e573d6000803e3d6000fd5b505050506040513d601f19601f82011682018060405250810190610b3291906113f0565b905090565b6000546001600160a01b03163314610b615760405162461bcd60e51b815260040161047c906114b3565b600180546001600160a01b0319166001600160a01b0392909216919091179055565b6000546001600160a01b03163314610bad5760405162461bcd60e51b815260040161047c906114b3565b610bb78282611164565b5050565b6000546001600160a01b03163314610be55760405162461bcd60e51b815260040161047c906114b3565b6001600160a01b038116610c4a5760405162461bcd60e51b815260206004820152602660248201527f4f776e61626c653a206e6577206f776e657220697320746865207a65726f206160448201526564647265737360d01b606482015260840161047c565b610c5381610f48565b50565b6001600160a01b038316610cb85760405162461bcd60e51b8152602060048201526024808201527f45524332303a20617070726f76652066726f6d20746865207a65726f206164646044820152637265737360e01b606482015260840161047c565b6001600160a01b038216610d195760405162461bcd60e51b815260206004820152602260248201527f45524332303a20617070726f766520746f20746865207a65726f206164647265604482015261737360f01b606482015260840161047c565b6001600160a01b0383811660008181526003602090815260408083209487168084529482529182902085905590518481527f8c5be1e5ebec7d5bd14f71427d1e84f3dd0314c0f7b2291e5b200ac8c7c3b925910160405180910390a3505050565b6001600160a01b038316610dde5760405162461bcd60e51b815260206004820152602560248201527f45524332303a207472616e736665722066726f6d20746865207a65726f206164604482015264647265737360d81b606482015260840161047c565b6001600160a01b038216610e405760405162461bcd60e51b815260206004820152602360248201527f45524332303a207472616e7366657220746f20746865207a65726f206164647260448201526265737360e81b606482015260840161047c565b6001600160a01b03831660009081526002602052604090205481811015610eb85760405162461bcd60e51b815260206004820152602660248201527f45524332303a207472616e7366657220616d6f756e7420657863656564732062604482015265616c616e636560d01b606482015260840161047c565b6001600160a01b03808516600090815260026020526040808220858503905591851681529081208054849290610eef908490611560565b92505081905550826001600160a01b0316846001600160a01b03167fddf252ad1be2c89b69c2b068fc378daa952ba7f163c4a11628f55a4df523b3ef84604051610f3b91815260200190565b60405180910390a36107d9565b600080546001600160a01b038381166001600160a01b0319831681178455604051919092169283917f8be0079c531659141344cd1fd0a4f28419497f9722a3daafe3b4186f6b6457e09190a35050565b60006106236064836115a0565b6000610fb460408301836114e8565b6000906040610fc5868201876114e8565b610fd09291506115c2565b92610fdd93929190611536565b604051610feb929190611490565b60405180910390209050807f0000000000000000000000000000000000000000000000000000000000000000146110775760405162461bcd60e51b815260206004820152602a60248201527f546f6b656e5061796d61737465723a20756e6b6e6f776e2077616c6c6574206360448201526937b739ba393ab1ba37b960b11b606482015260840161047c565b600061108660408401846114e8565b6040611094868201876114e8565b61109f9291506115c2565b6110aa928290611536565b6110b3916115d9565b6001549091506001600160a01b038083169116146111135760405162461bcd60e51b815260206004820152601e60248201527f77726f6e67207061796d617374657220696e20636f6e7374727563746f720000604482015260640161047c565b505050565b6001546001600160a01b0316331461084f57600080fd5b600061113d83850185611243565b90506000611157600754846111529190611560565b610f98565b9050610578823083610d7a565b6001600160a01b0382166111ba5760405162461bcd60e51b815260206004820152601f60248201527f45524332303a206d696e7420746f20746865207a65726f206164647265737300604482015260640161047c565b80600460008282546111cc9190611560565b90915550506001600160a01b038216600090815260026020526040812080548392906111f9908490611560565b90915550506040518181526001600160a01b038316906000907fddf252ad1be2c89b69c2b068fc378daa952ba7f163c4a11628f55a4df523b3ef9060200160405180910390a35050565b60006020828403121561125557600080fd5b813561126081611648565b9392505050565b6000806040838503121561127a57600080fd5b823561128581611648565b946020939093013593505050565b600080604083850312156112a657600080fd5b82356112b181611648565b915060208301356112c181611648565b809150509250929050565b6000806000606084860312156112e157600080fd5b83356112ec81611648565b925060208401356112fc81611648565b929592945050506040919091013590565b6000806000806060858703121561132357600080fd5b84356003811061133257600080fd5b9350602085013567ffffffffffffffff8082111561134f57600080fd5b818701915087601f83011261136357600080fd5b81358181111561137257600080fd5b88602082850101111561138457600080fd5b95986020929092019750949560400135945092505050565b6000806000606084860312156113b157600080fd5b833567ffffffffffffffff8111156113c857600080fd5b840161018081870312156113db57600080fd5b95602085013595506040909401359392505050565b60006020828403121561140257600080fd5b5051919050565b60006020828403121561141b57600080fd5b81356112608161165d565b60006020828403121561143857600080fd5b81516112608161165d565b6000815180845260005b818110156114695760208185018101518683018201520161144d565b8181111561147b576000602083870101525b50601f01601f19169290920160200192915050565b8183823760009101908152919050565b6020815260006112606020830184611443565b6020808252818101527f4f776e61626c653a2063616c6c6572206973206e6f7420746865206f776e6572604082015260600190565b6000808335601e198436030181126114ff57600080fd5b83018035915067ffffffffffffffff82111561151a57600080fd5b60200191503681900382131561152f57600080fd5b9250929050565b6000808585111561154657600080fd5b8386111561155357600080fd5b5050820193919092039150565b6000821982111561157357611573611632565b500190565b600063ffffffff80831681851680830382111561159757611597611632565b01949350505050565b6000826115bd57634e487b7160e01b600052601260045260246000fd5b500490565b6000828210156115d4576115d4611632565b500390565b8035602083101561062357600019602084900360031b1b1692915050565b600181811c9082168061160b57607f821691505b6020821081141561162c57634e487b7160e01b600052602260045260246000fd5b50919050565b634e487b7160e01b600052601160045260246000fd5b6001600160a01b0381168114610c5357600080fd5b63ffffffff81168114610c5357600080fdfea26469706673582212207c90d3f622f90468b41512631fbb034740a0d7595e2d6edb3ef29025cd7ea57164736f6c63430008070033608060405234801561001057600080fd5b5060405161107738038061107783398101604081905261002f91610077565b600180546001600160a01b039384166001600160a01b031990911617905560008054919092166c01000000000000000000000000026001600160601b039091161790556100c9565b6000806040838503121561008a57600080fd5b8251610095816100b1565b60208401519092506100a6816100b1565b809150509250929050565b6001600160a01b03811681146100c657600080fd5b50565b610f9f806100d86000396000f3fe6080604052600436106100ab5760003560e01c8063a9059cbb11610064578063a9059cbb1461017f578063affed0e01461019f578063b0d691fe146101c7578063c399ec88146101e7578063d0cb75fa146101fc578063fcbac1f41461021c57600080fd5b80630565bb67146100b75780631b71bb6e146100d95780634a58db19146100f95780634d44560d1461010157806380c5c7d0146101215780638da5cb5b1461014157600080fd5b366100b257005b600080fd5b3480156100c357600080fd5b506100d76100d2366004610cec565b61023c565b005b3480156100e557600080fd5b506100d76100f4366004610c9c565b61028b565b6100d76102fc565b34801561010d57600080fd5b506100d761011c366004610cc0565b61035f565b34801561012d57600080fd5b506100d761013c366004610cec565b6103d1565b34801561014d57600080fd5b50600054600160601b90046001600160a01b03165b6040516001600160a01b0390911681526020015b60405180910390f35b34801561018b57600080fd5b506100d761019a366004610cc0565b6103d9565b3480156101ab57600080fd5b506000546001600160601b03165b604051908152602001610176565b3480156101d357600080fd5b50600154610162906001600160a01b031681565b3480156101f357600080fd5b506101b961041c565b34801561020857600080fd5b506100d7610217366004610d75565b61049d565b34801561022857600080fd5b506100d7610237366004610de1565b61059d565b6102446105c1565b610285848484848080601f01602080910402602001604051908101604052809392919081815260200183838082843760009201919091525061061b92505050565b50505050565b6102936105c1565b600154604080516001600160a01b03928316815291831660208301527f450909c1478d09248269d4ad4fa8cba61ca3f50faed58c7aedefa51c7f62b83a910160405180910390a1600180546001600160a01b0319166001600160a01b0392909216919091179055565b6001546040516000916001600160a01b03169034908381818185875af1925050503d8060008114610349576040519150601f19603f3d011682016040523d82523d6000602084013e61034e565b606091505b505090508061035c57600080fd5b50565b6103676105c1565b60015460405163040b850f60e31b81526001600160a01b038481166004830152602482018490529091169063205c287890604401600060405180830381600087803b1580156103b557600080fd5b505af11580156103c9573d6000803e3d6000fd5b505050505050565b61024461068b565b6103e16105c1565b6040516001600160a01b0383169082156108fc029083906000818181858888f19350505050158015610417573d6000803e3d6000fd5b505050565b6001546040516370a0823160e01b81523060048201526000916001600160a01b0316906370a082319060240160206040518083038186803b15801561046057600080fd5b505afa158015610474573d6000803e3d6000fd5b505050506040513d601f19601f820116820180604052508101906104989190610e35565b905090565b6104a56105c1565b8281146104ef5760405162461bcd60e51b815260206004820152601360248201527277726f6e67206172726179206c656e6774687360681b60448201526064015b60405180910390fd5b60005b838110156105965761058485858381811061050f5761050f610f3e565b90506020020160208101906105249190610c9c565b600085858581811061053857610538610f3e565b905060200281019061054a9190610e89565b8080601f01602080910402602001604051908101604052809392919081815260200183838082843760009201919091525061061b92505050565b8061058e81610ed0565b9150506104f2565b5050505050565b6105a561068b565b6105af83836106e5565b6105b883610807565b610417816108ae565b600054600160601b90046001600160a01b03163314806105e057503330145b6106195760405162461bcd60e51b815260206004820152600a60248201526937b7363c9037bbb732b960b11b60448201526064016104e6565b565b600080846001600160a01b031684846040516106379190610e4e565b60006040518083038185875af1925050503d8060008114610674576040519150601f19603f3d011682016040523d82523d6000602084013e610679565b606091505b50915091508161059657805160208201fd5b6001546001600160a01b031633146106195760405162461bcd60e51b815260206004820152601b60248201527f77616c6c65743a206e6f742066726f6d20456e747279506f696e74000000000060448201526064016104e6565b600061073e826040517f19457468657265756d205369676e6564204d6573736167653a0a3332000000006020820152603c8101829052600090605c01604051602081830303815290604052805190602001209050919050565b905061078e610751610160850185610e89565b8080601f01602080910402602001604051908101604052809392919081815260200183838082843760009201919091525085939250506108fb9050565b6001600160a01b03166107b16000546001600160a01b03600160601b9091041690565b6001600160a01b0316146104175760405162461bcd60e51b815260206004820152601760248201527f77616c6c65743a2077726f6e67207369676e617475726500000000000000000060448201526064016104e6565b6108146040820182610e89565b1515905061035c57600080546020830135916001600160601b03909116908061083c83610eeb565b91906101000a8154816001600160601b0302191690836001600160601b031602179055506001600160601b03161461035c5760405162461bcd60e51b815260206004820152601560248201527477616c6c65743a20696e76616c6964206e6f6e636560581b60448201526064016104e6565b801561035c57604051600090339060001990849084818181858888f193505050503d8060008114610596576040519150601f19603f3d011682016040523d82523d6000602084013e610596565b600080600061090a858561091f565b915091506109178161098f565b509392505050565b6000808251604114156109565760208301516040840151606085015160001a61094a87828585610b4a565b94509450505050610988565b8251604014156109805760208301516040840151610975868383610be6565b935093505050610988565b506000905060025b9250929050565b60008160048111156109a3576109a3610f28565b14156109ac5750565b60018160048111156109c0576109c0610f28565b1415610a0e5760405162461bcd60e51b815260206004820152601860248201527f45434453413a20696e76616c6964207369676e6174757265000000000000000060448201526064016104e6565b6002816004811115610a2257610a22610f28565b1415610a705760405162461bcd60e51b815260206004820152601f60248201527f45434453413a20696e76616c6964207369676e6174757265206c656e6774680060448201526064016104e6565b6003816004811115610a8457610a84610f28565b1415610add5760405162461bcd60e51b815260206004820152602260248201527f45434453413a20696e76616c6964207369676e6174757265202773272076616c604482015261756560f01b60648201526084016104e6565b6004816004811115610af157610af1610f28565b141561035c5760405162461bcd60e51b815260206004820152602260248201527f45434453413a20696e76616c6964207369676e6174757265202776272076616c604482015261756560f01b60648201526084016104e6565b6000807f7fffffffffffffffffffffffffffffff5d576e7357a4501ddfe92f46681b20a0831115610b815750600090506003610bdd565b8460ff16601b14158015610b9957508460ff16601c14155b15610baa5750600090506004610bdd565b6000610bb887878787610c15565b90506001600160a01b038116610bd657600060019250925050610bdd565b9150600090505b94509492505050565b6000806001600160ff1b03831660ff84901c601b01610c0787828885610b4a565b935093505050935093915050565b6000806040518681528560208201528460408201528360608201526020816080836001600019fa91508051925060008152600060208201525050949350505050565b60008083601f840112610c6957600080fd5b50813567ffffffffffffffff811115610c8157600080fd5b6020830191508360208260051b850101111561098857600080fd5b600060208284031215610cae57600080fd5b8135610cb981610f54565b9392505050565b60008060408385031215610cd357600080fd5b8235610cde81610f54565b946020939093013593505050565b60008060008060608587031215610d0257600080fd5b8435610d0d81610f54565b935060208501359250604085013567ffffffffffffffff80821115610d3157600080fd5b818701915087601f830112610d4557600080fd5b813581811115610d5457600080fd5b886020828501011115610d6657600080fd5b95989497505060200194505050565b60008060008060408587031215610d8b57600080fd5b843567ffffffffffffffff80821115610da357600080fd5b610daf88838901610c57565b90965094506020870135915080821115610dc857600080fd5b50610dd587828801610c57565b95989497509550505050565b600080600060608486031215610df657600080fd5b833567ffffffffffffffff811115610e0d57600080fd5b84016101808187031215610e2057600080fd5b95602085013595506040909401359392505050565b600060208284031215610e4757600080fd5b5051919050565b6000825160005b81811015610e6f5760208186018101518583015201610e55565b81811115610e7e576000828501525b509190910192915050565b6000808335601e19843603018112610ea057600080fd5b83018035915067ffffffffffffffff821115610ebb57600080fd5b60200191503681900382131561098857600080fd5b6000600019821415610ee457610ee4610f12565b5060010190565b60006001600160601b0380831681811415610f0857610f08610f12565b6001019392505050565b634e487b7160e01b600052601160045260246000fd5b634e487b7160e01b600052602160045260246000fd5b634e487b7160e01b600052603260045260246000fd5b6001600160a01b038116811461035c57600080fdfea26469706673582212209f50e3390f4408ad1afc9decdfac665777617615ff81e0d0e7c7e5f9a95277e264736f6c63430008070033",
  "linkReferences": {},
  "deployedLinkReferences": {}
}