{
  "_format": "hh-sol-artifact-1",
  "contractName": "EntryPoint",
  "sourceName": "contracts/EntryPoint.sol",
  "abi": [
    {
      "inputs": [
        {
          "internalType": "uint256",
          "name": "_perOpOverhead",
          "type": "uint256"
        },
        {
          "internalType": "uint32",
          "name": "_unstakeDelayBlocks",
          "type": "uint32"
        }
      ],
      "stateMutability": "nonpayable",
      "type": "constructor"
    },
    {
      "anonymous": false,
      "inputs": [
        {
          "indexed": false,
          "internalType": "address",
          "name": "paymaster",
          "type": "address"
        },
        {
          "indexed": false,
          "internalType": "address",
          "name": "sender",
          "type": "address"
        },
        {
          "indexed": false,
          "internalType": "bytes",
          "name": "reason",
          "type": "bytes"
        }
      ],
      "name": "PaymasterPostOpFailed",
      "type": "event"
    },
    {
      "anonymous": false,
      "inputs": [
        {
          "indexed": true,
          "internalType": "address",
          "name": "paymaster",
          "type": "address"
        },
        {
          "indexed": false,
          "internalType": "uint256",
          "name": "totalStake",
          "type": "uint256"
        }
      ],
      "name": "StakeAdded",
      "type": "event"
    },
    {
      "anonymous": false,
      "inputs": [
        {
          "indexed": true,
          "internalType": "address",
          "name": "paymaster",
          "type": "address"
        },
        {
          "indexed": false,
          "internalType": "uint256",
          "name": "withdrawBlock",
          "type": "uint256"
        }
      ],
      "name": "StakeUnlocking",
      "type": "event"
    },
    {
      "anonymous": false,
      "inputs": [
        {
          "indexed": true,
          "internalType": "address",
          "name": "paymaster",
          "type": "address"
        },
        {
          "indexed": false,
          "internalType": "address",
          "name": "withdrawAddress",
          "type": "address"
        },
        {
          "indexed": false,
          "internalType": "uint256",
          "name": "amount",
          "type": "uint256"
        }
      ],
      "name": "StakeWithdrawn",
      "type": "event"
    },
    {
      "anonymous": false,
      "inputs": [
        {
          "indexed": true,
          "internalType": "address",
          "name": "account",
          "type": "address"
        },
        {
          "indexed": true,
          "internalType": "address",
          "name": "paymaster",
          "type": "address"
        },
        {
          "indexed": false,
          "internalType": "uint256",
          "name": "actualGasCost",
          "type": "uint256"
        },
        {
          "indexed": false,
          "internalType": "uint256",
          "name": "actualGasPrice",
          "type": "uint256"
        },
        {
          "indexed": false,
          "internalType": "bool",
          "name": "success",
          "type": "bool"
        }
      ],
      "name": "UserOperationEvent",
      "type": "event"
    },
    {
      "anonymous": false,
      "inputs": [
        {
          "indexed": true,
          "internalType": "address",
          "name": "account",
          "type": "address"
        },
        {
          "indexed": false,
          "internalType": "bytes",
          "name": "revertReason",
          "type": "bytes"
        }
      ],
      "name": "UserOperationRevertReason",
      "type": "event"
    },
    {
      "inputs": [],
      "name": "addStake",
      "outputs": [],
      "stateMutability": "payable",
      "type": "function"
    },
    {
      "inputs": [
        {
          "internalType": "bytes",
          "name": "bytecode",
          "type": "bytes"
        },
        {
          "internalType": "uint256",
          "name": "_salt",
          "type": "uint256"
        }
      ],
      "name": "getAccountAddress",
      "outputs": [
        {
          "internalType": "address",
          "name": "",
          "type": "address"
        }
      ],
      "stateMutability": "view",
      "type": "function"
    },
    {
      "inputs": [
        {
          "internalType": "address[]",
          "name": "paymasters",
          "type": "address[]"
        }
      ],
      "name": "getPaymastersStake",
      "outputs": [
        {
          "internalType": "uint256[]",
          "name": "_stakes",
          "type": "uint256[]"
        }
      ],
      "stateMutability": "view",
      "type": "function"
    },
    {
      "inputs": [
        {
          "internalType": "address",
          "name": "paymaster",
          "type": "address"
        }
      ],
      "name": "getStakeInfo",
      "outputs": [
        {
          "components": [
            {
              "internalType": "uint112",
              "name": "stake",
              "type": "uint112"
            },
            {
              "internalType": "uint112",
              "name": "withdrawStake",
              "type": "uint112"
            },
            {
              "internalType": "uint32",
              "name": "withdrawBlock",
              "type": "uint32"
            }
          ],
          "internalType": "struct StakeManager.StakeInfo",
          "name": "stakeInfo",
          "type": "tuple"
        }
      ],
      "stateMutability": "view",
      "type": "function"
    },
    {
      "inputs": [
        {
          "components": [
            {
              "internalType": "address",
              "name": "sender",
              "type": "address"
            },
            {
              "internalType": "uint256",
              "name": "nonce",
              "type": "uint256"
            },
            {
              "internalType": "bytes",
              "name": "initCode",
              "type": "bytes"
            },
            {
              "internalType": "bytes",
              "name": "callData",
              "type": "bytes"
            },
            {
              "internalType": "uint256",
              "name": "callGas",
              "type": "uint256"
            },
            {
              "internalType": "uint256",
              "name": "verificationGas",
              "type": "uint256"
            },
            {
              "internalType": "uint256",
              "name": "preVerificationGas",
              "type": "uint256"
            },
            {
              "internalType": "uint256",
              "name": "maxFeePerGas",
              "type": "uint256"
            },
            {
              "internalType": "uint256",
              "name": "maxPriorityFeePerGas",
              "type": "uint256"
            },
            {
              "internalType": "address",
              "name": "paymaster",
              "type": "address"
            },
            {
              "internalType": "bytes",
              "name": "paymasterData",
              "type": "bytes"
            },
            {
              "internalType": "bytes",
              "name": "signature",
              "type": "bytes"
            }
          ],
          "internalType": "struct UserOperation",
          "name": "op",
          "type": "tuple"
        },
        {
          "internalType": "address payable",
          "name": "redeemer",
          "type": "address"
        }
      ],
      "name": "handleOp",
      "outputs": [],
      "stateMutability": "nonpayable",
      "type": "function"
    },
    {
      "inputs": [
        {
          "components": [
            {
              "internalType": "address",
              "name": "sender",
              "type": "address"
            },
            {
              "internalType": "uint256",
              "name": "nonce",
              "type": "uint256"
            },
            {
              "internalType": "bytes",
              "name": "initCode",
              "type": "bytes"
            },
            {
              "internalType": "bytes",
              "name": "callData",
              "type": "bytes"
            },
            {
              "internalType": "uint256",
              "name": "callGas",
              "type": "uint256"
            },
            {
              "internalType": "uint256",
              "name": "verificationGas",
              "type": "uint256"
            },
            {
              "internalType": "uint256",
              "name": "preVerificationGas",
              "type": "uint256"
            },
            {
              "internalType": "uint256",
              "name": "maxFeePerGas",
              "type": "uint256"
            },
            {
              "internalType": "uint256",
              "name": "maxPriorityFeePerGas",
              "type": "uint256"
            },
            {
              "internalType": "address",
              "name": "paymaster",
              "type": "address"
            },
            {
              "internalType": "bytes",
              "name": "paymasterData",
              "type": "bytes"
            },
            {
              "internalType": "bytes",
              "name": "signature",
              "type": "bytes"
            }
          ],
          "internalType": "struct UserOperation[]",
          "name": "ops",
          "type": "tuple[]"
        },
        {
          "internalType": "address payable",
          "name": "redeemer",
          "type": "address"
        }
      ],
      "name": "handleOps",
      "outputs": [],
      "stateMutability": "nonpayable",
      "type": "function"
    },
    {
      "inputs": [
        {
          "components": [
            {
              "internalType": "address",
              "name": "sender",
              "type": "address"
            },
            {
              "internalType": "uint256",
              "name": "nonce",
              "type": "uint256"
            },
            {
              "internalType": "bytes",
              "name": "initCode",
              "type": "bytes"
            },
            {
              "internalType": "bytes",
              "name": "callData",
              "type": "bytes"
            },
            {
              "internalType": "uint256",
              "name": "callGas",
              "type": "uint256"
            },
            {
              "internalType": "uint256",
              "name": "verificationGas",
              "type": "uint256"
            },
            {
              "internalType": "uint256",
              "name": "preVerificationGas",
              "type": "uint256"
            },
            {
              "internalType": "uint256",
              "name": "maxFeePerGas",
              "type": "uint256"
            },
            {
              "internalType": "uint256",
              "name": "maxPriorityFeePerGas",
              "type": "uint256"
            },
            {
              "internalType": "address",
              "name": "paymaster",
              "type": "address"
            },
            {
              "internalType": "bytes",
              "name": "paymasterData",
              "type": "bytes"
            },
            {
              "internalType": "bytes",
              "name": "signature",
              "type": "bytes"
            }
          ],
          "internalType": "struct UserOperation",
          "name": "op",
          "type": "tuple"
        },
        {
          "internalType": "bytes",
          "name": "context",
          "type": "bytes"
        },
        {
          "internalType": "uint256",
          "name": "preOpGas",
          "type": "uint256"
        },
        {
          "internalType": "uint256",
          "name": "prefund",
          "type": "uint256"
        }
      ],
      "name": "internalHandleOp",
      "outputs": [
        {
          "internalType": "uint256",
          "name": "valueFromPaymaster",
          "type": "uint256"
        }
      ],
      "stateMutability": "nonpayable",
      "type": "function"
    },
    {
      "inputs": [
        {
          "internalType": "address",
          "name": "addr",
          "type": "address"
        }
      ],
      "name": "isContractDeployed",
      "outputs": [
        {
          "internalType": "bool",
          "name": "",
          "type": "bool"
        }
      ],
      "stateMutability": "view",
      "type": "function"
    },
    {
      "inputs": [
        {
          "internalType": "address",
          "name": "paymaster",
          "type": "address"
        },
        {
          "internalType": "uint256",
          "name": "requiredStake",
          "type": "uint256"
        }
      ],
      "name": "isPaymasterStaked",
      "outputs": [
        {
          "internalType": "bool",
          "name": "",
          "type": "bool"
        }
      ],
      "stateMutability": "view",
      "type": "function"
    },
    {
      "inputs": [],
      "name": "perOpOverhead",
      "outputs": [
        {
          "internalType": "uint256",
          "name": "",
          "type": "uint256"
        }
      ],
      "stateMutability": "view",
      "type": "function"
    },
    {
      "inputs": [
        {
          "components": [
            {
              "internalType": "address",
              "name": "sender",
              "type": "address"
            },
            {
              "internalType": "uint256",
              "name": "nonce",
              "type": "uint256"
            },
            {
              "internalType": "bytes",
              "name": "initCode",
              "type": "bytes"
            },
            {
              "internalType": "bytes",
              "name": "callData",
              "type": "bytes"
            },
            {
              "internalType": "uint256",
              "name": "callGas",
              "type": "uint256"
            },
            {
              "internalType": "uint256",
              "name": "verificationGas",
              "type": "uint256"
            },
            {
              "internalType": "uint256",
              "name": "preVerificationGas",
              "type": "uint256"
            },
            {
              "internalType": "uint256",
              "name": "maxFeePerGas",
              "type": "uint256"
            },
            {
              "internalType": "uint256",
              "name": "maxPriorityFeePerGas",
              "type": "uint256"
            },
            {
              "internalType": "address",
              "name": "paymaster",
              "type": "address"
            },
            {
              "internalType": "bytes",
              "name": "paymasterData",
              "type": "bytes"
            },
            {
              "internalType": "bytes",
              "name": "signature",
              "type": "bytes"
            }
          ],
          "internalType": "struct UserOperation",
          "name": "userOp",
          "type": "tuple"
        },
        {
          "internalType": "uint256",
          "name": "gasUsedByPayForSelfOp",
          "type": "uint256"
        }
      ],
      "name": "simulatePaymasterValidation",
      "outputs": [
        {
          "internalType": "bytes",
          "name": "context",
          "type": "bytes"
        },
        {
          "internalType": "uint256",
          "name": "gasUsedByPayForOp",
          "type": "uint256"
        }
      ],
      "stateMutability": "view",
      "type": "function"
    },
    {
      "inputs": [
        {
          "components": [
            {
              "internalType": "address",
              "name": "sender",
              "type": "address"
            },
            {
              "internalType": "uint256",
              "name": "nonce",
              "type": "uint256"
            },
            {
              "internalType": "bytes",
              "name": "initCode",
              "type": "bytes"
            },
            {
              "internalType": "bytes",
              "name": "callData",
              "type": "bytes"
            },
            {
              "internalType": "uint256",
              "name": "callGas",
              "type": "uint256"
            },
            {
              "internalType": "uint256",
              "name": "verificationGas",
              "type": "uint256"
            },
            {
              "internalType": "uint256",
              "name": "preVerificationGas",
              "type": "uint256"
            },
            {
              "internalType": "uint256",
              "name": "maxFeePerGas",
              "type": "uint256"
            },
            {
              "internalType": "uint256",
              "name": "maxPriorityFeePerGas",
              "type": "uint256"
            },
            {
              "internalType": "address",
              "name": "paymaster",
              "type": "address"
            },
            {
              "internalType": "bytes",
              "name": "paymasterData",
              "type": "bytes"
            },
            {
              "internalType": "bytes",
              "name": "signature",
              "type": "bytes"
            }
          ],
          "internalType": "struct UserOperation",
          "name": "userOp",
          "type": "tuple"
        }
      ],
      "name": "simulateWalletValidation",
      "outputs": [
        {
          "internalType": "uint256",
          "name": "gasUsedByPayForSelfOp",
          "type": "uint256"
        }
      ],
      "stateMutability": "nonpayable",
      "type": "function"
    },
    {
      "inputs": [
        {
          "internalType": "address",
          "name": "",
          "type": "address"
        }
      ],
      "name": "stakes",
      "outputs": [
        {
          "internalType": "uint112",
          "name": "stake",
          "type": "uint112"
        },
        {
          "internalType": "uint112",
          "name": "withdrawStake",
          "type": "uint112"
        },
        {
          "internalType": "uint32",
          "name": "withdrawBlock",
          "type": "uint32"
        }
      ],
      "stateMutability": "view",
      "type": "function"
    },
    {
      "inputs": [],
      "name": "unlockStake",
      "outputs": [],
      "stateMutability": "nonpayable",
      "type": "function"
    },
    {
      "inputs": [],
      "name": "unstakeDelayBlocks",
      "outputs": [
        {
          "internalType": "uint32",
          "name": "",
          "type": "uint32"
        }
      ],
      "stateMutability": "view",
      "type": "function"
    },
    {
      "inputs": [
        {
          "internalType": "address payable",
          "name": "withdrawAddress",
          "type": "address"
        }
      ],
      "name": "withdrawStake",
      "outputs": [],
      "stateMutability": "nonpayable",
      "type": "function"
    },
    {
      "stateMutability": "payable",
      "type": "receive"
    }
  ],
  "bytecode": "0x60c06040523480156200001157600080fd5b506040516200258d3803806200258d83398101604081905262000034916200004d565b60e01b6001600160e01b03191660805260a05262000088565b600080604083850312156200006157600080fd5b82519150602083015163ffffffff811681146200007d57600080fd5b809150509250929050565b60805160e01c60a0516124b2620000db600039600081816102d20152818161064901528181610b9801528181610dab01528181610f8401526110f70152600081816104920152610c8d01526124b26000f3fe6080604052600436106100f75760003560e01c8063828190131161008a578063c345315311610059578063c3453153146103a4578063dbbabd6a14610460578063e7c350e314610480578063f20751eb146104c957600080fd5b80638281901314610321578063bb9fe6bf1461034f578063bf55512e14610364578063c23a5cea1461038457600080fd5b80634d6cb700116100c65780634d6cb700146102295780635a627dbc146102b8578063643407ce146102c0578063739b8950146102f457600080fd5b806316934fc4146101035780631fa75c86146101855780632815c17b146101d95780634032c9ac146101fb57600080fd5b366100fe57005b600080fd5b34801561010f57600080fd5b5061015461011e366004611b27565b6000602081905290815260409020546001600160701b0380821691600160701b810490911690600160e01b900463ffffffff1683565b604080516001600160701b03948516815293909216602084015263ffffffff16908201526060015b60405180910390f35b34801561019157600080fd5b506101c96101a0366004611b44565b6001600160a01b03919091166000908152602081905260409020546001600160701b0316101590565b604051901515815260200161017c565b3480156101e557600080fd5b506101f96101f4366004611bb1565b6104ea565b005b34801561020757600080fd5b5061021b610216366004611d9e565b610882565b60405190815260200161017c565b34801561023557600080fd5b506102a0610244366004611c88565b8151602092830120604080516001600160f81b0319818601523060601b6bffffffffffffffffffffffff191660218201526035810193909352605580840192909252805180840390920182526075909201909152805191012090565b6040516001600160a01b03909116815260200161017c565b6101f9610a02565b3480156102cc57600080fd5b5061021b7f000000000000000000000000000000000000000000000000000000000000000081565b34801561030057600080fd5b5061031461030f366004611b70565b610a8f565b60405161017c919061204c565b34801561032d57600080fd5b5061034161033c366004611e43565b610b68565b60405161017c9291906120a3565b34801561035b57600080fd5b506101f9610bd8565b34801561037057600080fd5b5061021b61037f366004611d11565b610d3e565b34801561039057600080fd5b506101f961039f366004611b27565b610e00565b3480156103b057600080fd5b5061042a6103bf366004611b27565b6040805160608082018352600080835260208084018290529284018190526001600160a01b039490941684528382529282902082519384018352546001600160701b038082168552600160701b82041691840191909152600160e01b900463ffffffff169082015290565b6040805182516001600160701b039081168252602080850151909116908201529181015163ffffffff169082015260600161017c565b34801561046c57600080fd5b506101f961047b366004611d4d565b610f69565b34801561048c57600080fd5b506104b47f000000000000000000000000000000000000000000000000000000000000000081565b60405163ffffffff909116815260200161017c565b3480156104d557600080fd5b506101c96104e4366004611b27565b3f151590565b47826000816001600160401b03811115610506576105066123ac565b60405190808252806020026020018201604052801561052f578160200160208202803683370190505b5090506000826001600160401b0381111561054c5761054c6123ac565b604051908082528060200260200182016040528015610575578160200160208202803683370190505b5090506000836001600160401b03811115610592576105926123ac565b6040519080825280602002602001820160405280156105bb578160200160208202803683370190505b50905060005b848110156106b25760005a9050368a8a848181106105e1576105e1612396565b90506020028101906105f391906121c8565b90506060600061060385846110c4565b87878151811061061557610615612396565b602002602001018194508281525050508190508087868151811061063b5761063b612396565b6020026020010181815250507f00000000000000000000000000000000000000000000000000000000000000005a61067390866122dc565b61067d9190612255565b88868151811061068f5761068f612396565b6020026020010181815250505050505080806106aa9061234f565b9150506105c1565b506000805b888110156108245760005a9050368b8b848181106106d7576106d7612396565b90506020028101906106e991906121c8565b905060008684815181106106ff576106ff612396565b6020026020010151905060608190506000808a878151811061072357610723612396565b60200260200101519050600089888151811061074157610741612396565b60200260200101519050306001600160a01b0316634032c9ac878685856040518563ffffffff1660e01b815260040161077d949392919061210c565b602060405180830381600087803b15801561079757600080fd5b505af19250505080156107c7575060408051601f3d908101601f191682019092526107c491810190611e87565b60015b6107fb576000825a6107d9908a6122dc565b6107e39190612255565b90506107f36002888784866111f4565b9350506107fe565b92505b610808838a612255565b985050505050505050808061081c9061234f565b9150506106b7565b5060008161083288476122dc565b61083c9190612255565b6040519091506001600160a01b0389169082156108fc029083906000818181858888f19350505050158015610875573d6000803e3d6000fd5b5050505050505050505050565b6000805a905033301461089457600080fd5b6000806108a460608a018a612182565b90501115610996576000806108bc60208b018b611b27565b6001600160a01b031660808b01356108d760608d018d612182565b6040516108e5929190612007565b60006040518083038160008787f1925050503d8060008114610923576040519150601f19603f3d011682016040523d82523d6000602084013e610928565b606091505b50915091508115801561093c575060008151115b156109935761094e60208b018b611b27565b6001600160a01b03167f8656fb1b86b6ee6573646ef1b63aa9fd878578c81a8539e27c6dd37e2c4cf1d6826040516109869190612090565b60405180910390a2600192505b50505b6000855a6109a490856122dc565b6109ae9190612255565b90506109f5828a8a8a8080601f0160208091040260200160405190810160405280939291908181526020018383808284376000920191909152508792508b91506111f49050565b9998505050505050505050565b336000908152602081905260409020546001600160701b03600160701b8204811691610a3091349116612255565b610a3a9190612255565b33600081815260208181526040918290206001600160701b039490941693849055905192835290917f7c717985ac273e663b7f3050f5b15a4388ff6ed952338954f650e2093e13937f910160405180910390a2565b6060816001600160401b03811115610aa957610aa96123ac565b604051908082528060200260200182016040528015610ad2578160200160208202803683370190505b50905060005b82811015610b6157600080858584818110610af557610af5612396565b9050602002016020810190610b0a9190611b27565b6001600160a01b0316815260208101919091526040016000205482516001600160701b0390911690839083908110610b4457610b44612396565b602090810291909101015280610b598161234f565b915050610ad8565b5092915050565b60606000610b7584611503565b610b9057505060408051602081019091526000808252610bd1565b6000610bbc857f0000000000000000000000000000000000000000000000000000000000000000611529565b9050610bcb6000868387611559565b92509250505b9250929050565b3360009081526020819052604090208054600160e01b900463ffffffff1615610c3a5760405162461bcd60e51b815260206004820152600f60248201526e616c72656164792070656e64696e6760881b60448201526064015b60405180910390fd5b80546001600160701b0316610c865760405162461bcd60e51b81526020600482015260126024820152716e6f207374616b6520746f20756e6c6f636b60701b6044820152606401610c31565b6000610cb27f00000000000000000000000000000000000000000000000000000000000000004361226d565b8254600160701b600160e01b0319600160e01b63ffffffff84169081029182166001600160701b039384169081179290931692909217600160701b02176dffffffffffffffffffffffffffff1916845560405190815290915033907fab3a43860ac8cdb29929ba1a1f556b4decf9617f4811c190010e1672e55839b19060200160405180910390a25050565b60003315610da35760405162461bcd60e51b815260206004820152602c60248201527f6d7573742062652063616c6c6564206f66662d636861696e207769746820667260448201526b37b69ebd32b93796b0b2323960a11b6064820152608401610c31565b6000610dcf837f0000000000000000000000000000000000000000000000000000000000000000611529565b90506000610ddc84611503565b610de65781610de9565b60005b9050610df760008583611735565b50949350505050565b3360009081526020819052604090208054600160701b90046001600160701b0316610e615760405162461bcd60e51b81526020600482015260116024820152706e6f20756e6c6f636b6564207374616b6560781b6044820152606401610c31565b805443600160e01b90910463ffffffff161115610eb85760405162461bcd60e51b81526020600482015260156024820152745769746864726177616c206973206e6f742064756560581b6044820152606401610c31565b8054600160701b600160e01b031981168255604051600160701b9091046001600160701b0316906001600160a01b038416906108fc8315029083906000818181858888f19350505050158015610f12573d6000803e3d6000fd5b5081546001600160e01b03168255604080516001600160a01b03851681526020810183905233917fb7c918e0e249f999e965cafeb6c664271b3f4317d296461500e71da39f0cbda3910160405180910390a2505050565b60005a905047600080610f7c81876110c4565b9150915060007f00000000000000000000000000000000000000000000000000000000000000005a610fae90876122dc565b610fb89190612255565b60405163100cb26b60e21b81529091506000903090634032c9ac90610fe7908b90879087908a9060040161210c565b602060405180830381600087803b15801561100157600080fd5b505af1925050508015611031575060408051601f3d908101601f1916820190925261102e91810190611e87565b60015b611065576000825a61104390896122dc565b61104d9190612255565b905061105d60028a8684896111f4565b915050611068565b90505b60008161107587476122dc565b61107f9190612255565b6040519091506001600160a01b0389169082156108fc029083906000818181858888f193505050501580156110b8573d6000803e3d6000fd5b50505050505050505050565b6000606060005a90506000806110e261014087016101208801611b27565b6001600160a01b031614159050600061111b867f0000000000000000000000000000000000000000000000000000000000000000611529565b905060008261112a578161112d565b60005b9050600061113c898984611735565b975090506000841561115a576111548a8a8685611559565b90975090505b60005a61116790886122dc565b9050808a60a0013510156111e6578a6111886101408c016101208d01611b27565b60405162fa072b60e01b815260048101929092526001600160a01b0316602482015260606044820152601e60648201527f55736564206d6f7265207468616e20766572696669636174696f6e4761730000608482015260a401610c31565b505050505050509250929050565b6000805a9050600061120587611917565b905060006112138287612295565b905060006112296101408a016101208b01611b27565b6001600160a01b031614156112da57808510156112935760405162461bcd60e51b815260206004820152602260248201527f666174616c3a2070726566756e642062656c6f772061637475616c476173436f6044820152611cdd60f21b6064820152608401610c31565b60006112a260208a018a611b27565b6001600160a01b03166108fc6112b884896122dc565b6040518115909202916000818181858888f15060009850611470945050505050565b8651156113db576112f361014089016101208a01611b27565b6001600160a01b031663a9a234098a89846040518463ffffffff1660e01b8152600401611322939291906120c5565b600060405180830381600087803b15801561133c57600080fd5b505af192505050801561134d575060015b6113db573d80801561137b576040519150601f19603f3d011682016040523d82523d6000602084013e611380565b606091505b507f5f6032b8e84e218db7c512ea2e55828c412cfcba5d42b23d21b42f7e7210b8646113b46101408b016101208c01611b27565b6113c160208c018c611b27565b836040516113d193929190612017565b60405180910390a1505b5a6113e690846122dc565b6113f09087612255565b95506113fc8287612295565b9050806000806114146101408c016101208d01611b27565b6001600160a01b031681526020810191909152604001600090812080549091906114489084906001600160701b03166122b4565b92506101000a8154816001600160701b0302191690836001600160701b031602179055508093505b61148261014089016101208a01611b27565b6001600160a01b031661149860208a018a611b27565b6001600160a01b03167f87ff8671dda0b81e2f2bec38f9ee39fa8b7c73fa15723e01ea0e39a385981e8f838560008e60028111156114d8576114d8612380565b604080519485526020850193909352149082015260600160405180910390a350505095945050505050565b60008061151861014084016101208501611b27565b6001600160a01b0316141592915050565b600061153483611917565b61154883608086013560a087013501612255565b6115529190612295565b9392505050565b60606000805a905061156b8686611934565b6115d3578661158261014088016101208901611b27565b60405162fa072b60e01b815260048101929092526001600160a01b0316602482015260606044820152601060648201526f6e6f7420656e6f756768207374616b6560801b608482015260a401610c31565b60006115e38560a08901356122dc565b90506115f761014088016101208901611b27565b6001600160a01b03166380fd44d58289896040518463ffffffff1660e01b8152600401611625929190612145565b60006040518083038187803b15801561163d57600080fd5b5086fa9350505050801561167357506040513d6000823e601f3d908101601f191682016040526116709190810190611c07565b60015b61171b5761167f6123c2565b806308c379a014156116ce57506116946123de565b8061169f57506116d0565b886116b26101408a016101208b01611b27565b8260405162fa072b60e01b8152600401610c3193929190612158565b505b876116e361014089016101208a01611b27565b60405162fa072b60e01b815260048101929092526001600160a01b031660248201526060604482015260006064820152608401610c31565b93505a61172890836122dc565b9250505094509492505050565b60008060005a90506117468561195d565b476117546020870187611b27565b6001600160a01b031663fbfb39e08760a0013588886040518463ffffffff1660e01b8152600401611786929190612145565b600060405180830381600088803b1580156117a057600080fd5b5087f1935050505080156117b2575060015b61182f576117be6123c2565b806308c379a014156117fd57506117d36123de565b806117de57506117ff565b8760008260405162fa072b60e01b8152600401610c3193929190612158565b505b60405162fa072b60e01b815260048101889052600060248201819052606060448301526064820152608401610c31565b61183981476122dc565b925084156118a4578483101561189f5760405162fa072b60e01b8152600481018890526000602482015260606044820152601960648201527f77616c6c6574206469646e2774207061792070726566756e6400000000000000608482015260a401610c31565b611900565b82156119005760405162fa072b60e01b8152600481018890526000602482015260606044820152601d60648201527f686173207061796d6173746572206275742077616c6c65742070616964000000608482015260a401610c31565b5a61190b90836122dc565b93505050935093915050565b600061192e8260e001354884610100013501611a54565b92915050565b600061155261194b61014085016101208601611b27565b6101a084670de0b6b3a7640000612255565b61196a6040820182612182565b159050611a5157600061198d6119836040840184612182565b8460200135611a6a565b90506001600160a01b0381166119d65760405162461bcd60e51b815260206004820152600e60248201526d18dc99585d194c8819985a5b195960921b6044820152606401610c31565b6119e36020830183611b27565b6001600160a01b0316816001600160a01b031614611a4f5760405162461bcd60e51b8152602060048201526024808201527f73656e64657220646f65736e2774206d617463682063726561746532206164646044820152637265737360e01b6064820152608401610c31565b505b50565b6000818310611a635781611552565b5090919050565b60008084848080601f01602080910402602001604051908101604052809392919081815260200183838082843760009201829052508451949550879493506020860192509050f595945050505050565b8035611ac581612467565b919050565b60008083601f840112611adc57600080fd5b5081356001600160401b03811115611af357600080fd5b6020830191508360208260051b8501011115610bd157600080fd5b60006101808284031215611b2157600080fd5b50919050565b600060208284031215611b3957600080fd5b813561155281612467565b60008060408385031215611b5757600080fd5b8235611b6281612467565b946020939093013593505050565b60008060208385031215611b8357600080fd5b82356001600160401b03811115611b9957600080fd5b611ba585828601611aca565b90969095509350505050565b600080600060408486031215611bc657600080fd5b83356001600160401b03811115611bdc57600080fd5b611be886828701611aca565b9094509250506020840135611bfc81612467565b809150509250925092565b600060208284031215611c1957600080fd5b81516001600160401b03811115611c2f57600080fd5b8201601f81018413611c4057600080fd5b8051611c4b816121e9565b604051611c588282612323565b828152866020848601011115611c6d57600080fd5b611c7e8360208301602087016122f3565b9695505050505050565b60008060408385031215611c9b57600080fd5b82356001600160401b03811115611cb157600080fd5b8301601f81018513611cc257600080fd5b8035611ccd816121e9565b604051611cda8282612323565b828152876020848601011115611cef57600080fd5b8260208501602083013760006020938201840152979590910135955050505050565b600060208284031215611d2357600080fd5b81356001600160401b03811115611d3957600080fd5b611d4584828501611b0e565b949350505050565b60008060408385031215611d6057600080fd5b82356001600160401b03811115611d7657600080fd5b611d8285828601611b0e565b9250506020830135611d9381612467565b809150509250929050565b600080600080600060808688031215611db657600080fd5b85356001600160401b0380821115611dcd57600080fd5b611dd989838a01611b0e565b96506020880135915080821115611def57600080fd5b818801915088601f830112611e0357600080fd5b813581811115611e1257600080fd5b896020828501011115611e2457600080fd5b9699602092909201985095966040810135965060600135945092505050565b60008060408385031215611e5657600080fd5b82356001600160401b03811115611e6c57600080fd5b611e7885828601611b0e565b95602094909401359450505050565b600060208284031215611e9957600080fd5b5051919050565b81835281816020850137506000828201602090810191909152601f909101601f19169091010190565b60008151808452611ee18160208601602086016122f3565b601f01601f19169290920160200192915050565b6000610180611f1484611f0785611aba565b6001600160a01b03169052565b60208301356020850152611f2b6040840184612210565b826040870152611f3e8387018284611ea0565b92505050611f4f6060840184612210565b8583036060870152611f62838284611ea0565b925050506080830135608085015260a083013560a085015260c083013560c085015260e083013560e0850152610100808401358186015250610120611fa8818501611aba565b6001600160a01b031690850152610140611fc484820185612210565b86840383880152611fd6848284611ea0565b9350505050610160611fea81850185612210565b86840383880152611ffc848284611ea0565b979650505050505050565b8183823760009101908152919050565b6001600160a01b0384811682528316602082015260606040820181905260009061204390830184611ec9565b95945050505050565b6020808252825182820181905260009190848201906040850190845b8181101561208457835183529284019291840191600101612068565b50909695505050505050565b6020815260006115526020830184611ec9565b6040815260006120b66040830185611ec9565b90508260208301529392505050565b6000600385106120e557634e487b7160e01b600052602160045260246000fd5b848252606060208301526120fc6060830185611ec9565b9050826040830152949350505050565b60808152600061211f6080830187611ef5565b82810360208401526121318187611ec9565b604084019590955250506060015292915050565b6040815260006120b66040830185611ef5565b8381526001600160a01b038316602082015260606040820181905260009061204390830184611ec9565b6000808335601e1984360301811261219957600080fd5b8301803591506001600160401b038211156121b357600080fd5b602001915036819003821315610bd157600080fd5b6000823561017e198336030181126121df57600080fd5b9190910192915050565b60006001600160401b03821115612202576122026123ac565b50601f01601f191660200190565b6000808335601e1984360301811261222757600080fd5b83016020810192503590506001600160401b0381111561224657600080fd5b803603831315610bd157600080fd5b600082198211156122685761226861236a565b500190565b600063ffffffff80831681851680830382111561228c5761228c61236a565b01949350505050565b60008160001904831182151516156122af576122af61236a565b500290565b60006001600160701b03838116908316818110156122d4576122d461236a565b039392505050565b6000828210156122ee576122ee61236a565b500390565b60005b8381101561230e5781810151838201526020016122f6565b8381111561231d576000848401525b50505050565b601f8201601f191681016001600160401b0381118282101715612348576123486123ac565b6040525050565b60006000198214156123635761236361236a565b5060010190565b634e487b7160e01b600052601160045260246000fd5b634e487b7160e01b600052602160045260246000fd5b634e487b7160e01b600052603260045260246000fd5b634e487b7160e01b600052604160045260246000fd5b600060033d11156123db5760046000803e5060005160e01c5b90565b600060443d10156123ec5790565b6040516003193d81016004833e81513d6001600160401b03816024840111818411171561241b57505050505090565b82850191508151818111156124335750505050505090565b843d870101602082850101111561244d5750505050505090565b61245c60208286010187612323565b509095945050505050565b6001600160a01b0381168114611a5157600080fdfea2646970667358221220a575fbd54c0e3e9b88403660fda246d8188988a90ae8ef7a25039d8d92d26d2a64736f6c63430008070033",
  "linkReferences": {},
  "deployedLinkReferences": {}
}