{
  "_format": "hh-sol-artifact-1",
  "contractName": "EntryPoint",
  "sourceName": "contracts/EntryPoint.sol",
  "abi": [
    {
      "inputs": [
        {
          "internalType": "address",
          "name": "_create2factory",
          "type": "address"
        },
        {
          "internalType": "uint256",
          "name": "_perOpOverhead",
          "type": "uint256"
        },
        {
          "internalType": "uint32",
          "name": "_unstakeDelayBlocks",
          "type": "uint32"
        }
      ],
      "stateMutability": "nonpayable",
      "type": "constructor"
    },
    {
      "inputs": [
        {
          "internalType": "uint256",
          "name": "opIndex",
          "type": "uint256"
        },
        {
          "internalType": "address",
          "name": "paymaster",
          "type": "address"
        },
        {
          "internalType": "string",
          "name": "reason",
          "type": "string"
        }
      ],
      "name": "FailedOp",
      "type": "error"
    },
    {
      "anonymous": false,
      "inputs": [
        {
          "indexed": true,
          "internalType": "address",
          "name": "sender",
          "type": "address"
        },
        {
          "indexed": true,
          "internalType": "address",
          "name": "paymaster",
          "type": "address"
        },
        {
          "indexed": false,
          "internalType": "uint256",
          "name": "nonce",
          "type": "uint256"
        },
        {
          "indexed": false,
          "internalType": "bytes",
          "name": "reason",
          "type": "bytes"
        }
      ],
      "name": "PaymasterPostOpFailed",
      "type": "event"
    },
    {
      "anonymous": false,
      "inputs": [
        {
          "indexed": true,
          "internalType": "address",
          "name": "paymaster",
          "type": "address"
        },
        {
          "indexed": false,
          "internalType": "uint256",
          "name": "totalStake",
          "type": "uint256"
        },
        {
          "indexed": false,
          "internalType": "uint256",
          "name": "unstakeDelayBlocks",
          "type": "uint256"
        }
      ],
      "name": "StakeAdded",
      "type": "event"
    },
    {
      "anonymous": false,
      "inputs": [
        {
          "indexed": true,
          "internalType": "address",
          "name": "paymaster",
          "type": "address"
        },
        {
          "indexed": false,
          "internalType": "uint256",
          "name": "withdrawBlock",
          "type": "uint256"
        }
      ],
      "name": "StakeUnlocking",
      "type": "event"
    },
    {
      "anonymous": false,
      "inputs": [
        {
          "indexed": true,
          "internalType": "address",
          "name": "paymaster",
          "type": "address"
        },
        {
          "indexed": false,
          "internalType": "address",
          "name": "withdrawAddress",
          "type": "address"
        },
        {
          "indexed": false,
          "internalType": "uint256",
          "name": "amount",
          "type": "uint256"
        }
      ],
      "name": "StakeWithdrawn",
      "type": "event"
    },
    {
      "anonymous": false,
      "inputs": [
        {
          "indexed": true,
          "internalType": "address",
          "name": "sender",
          "type": "address"
        },
        {
          "indexed": true,
          "internalType": "address",
          "name": "paymaster",
          "type": "address"
        },
        {
          "indexed": false,
          "internalType": "uint256",
          "name": "nonce",
          "type": "uint256"
        },
        {
          "indexed": false,
          "internalType": "uint256",
          "name": "actualGasCost",
          "type": "uint256"
        },
        {
          "indexed": false,
          "internalType": "uint256",
          "name": "actualGasPrice",
          "type": "uint256"
        },
        {
          "indexed": false,
          "internalType": "bool",
          "name": "success",
          "type": "bool"
        }
      ],
      "name": "UserOperationEvent",
      "type": "event"
    },
    {
      "anonymous": false,
      "inputs": [
        {
          "indexed": true,
          "internalType": "address",
          "name": "sender",
          "type": "address"
        },
        {
          "indexed": false,
          "internalType": "uint256",
          "name": "nonce",
          "type": "uint256"
        },
        {
          "indexed": false,
          "internalType": "bytes",
          "name": "revertReason",
          "type": "bytes"
        }
      ],
      "name": "UserOperationRevertReason",
      "type": "event"
    },
    {
      "inputs": [],
      "name": "addDeposit",
      "outputs": [],
      "stateMutability": "payable",
      "type": "function"
    },
    {
      "inputs": [
        {
          "internalType": "address",
          "name": "target",
          "type": "address"
        }
      ],
      "name": "addDepositTo",
      "outputs": [],
      "stateMutability": "payable",
      "type": "function"
    },
    {
      "inputs": [
        {
          "internalType": "uint32",
          "name": "_unstakeDelayBlocks",
          "type": "uint32"
        }
      ],
      "name": "addStake",
      "outputs": [],
      "stateMutability": "payable",
      "type": "function"
    },
    {
      "inputs": [],
      "name": "create2factory",
      "outputs": [
        {
          "internalType": "address",
          "name": "",
          "type": "address"
        }
      ],
      "stateMutability": "view",
      "type": "function"
    },
    {
      "inputs": [
        {
          "internalType": "address[]",
          "name": "paymasters",
          "type": "address[]"
        }
      ],
      "name": "getPaymastersStake",
      "outputs": [
        {
          "internalType": "uint256[]",
          "name": "_stakes",
          "type": "uint256[]"
        }
      ],
      "stateMutability": "view",
      "type": "function"
    },
    {
      "inputs": [
        {
          "internalType": "bytes",
          "name": "initCode",
          "type": "bytes"
        },
        {
          "internalType": "uint256",
          "name": "_salt",
          "type": "uint256"
        }
      ],
      "name": "getSenderAddress",
      "outputs": [
        {
          "internalType": "address",
          "name": "",
          "type": "address"
        }
      ],
      "stateMutability": "view",
      "type": "function"
    },
    {
      "inputs": [
        {
          "internalType": "address",
          "name": "paymaster",
          "type": "address"
        }
      ],
      "name": "getStakeInfo",
      "outputs": [
        {
          "components": [
            {
              "internalType": "uint96",
              "name": "stake",
              "type": "uint96"
            },
            {
              "internalType": "uint32",
              "name": "unstakeDelayBlocks",
              "type": "uint32"
            },
            {
              "internalType": "uint96",
              "name": "withdrawStake",
              "type": "uint96"
            },
            {
              "internalType": "uint32",
              "name": "withdrawBlock",
              "type": "uint32"
            }
          ],
          "internalType": "struct StakeManager.StakeInfo",
          "name": "stakeInfo",
          "type": "tuple"
        }
      ],
      "stateMutability": "view",
      "type": "function"
    },
    {
      "inputs": [
        {
          "components": [
            {
              "internalType": "address",
              "name": "sender",
              "type": "address"
            },
            {
              "internalType": "uint256",
              "name": "nonce",
              "type": "uint256"
            },
            {
              "internalType": "bytes",
              "name": "initCode",
              "type": "bytes"
            },
            {
              "internalType": "bytes",
              "name": "callData",
              "type": "bytes"
            },
            {
              "internalType": "uint256",
              "name": "callGas",
              "type": "uint256"
            },
            {
              "internalType": "uint256",
              "name": "verificationGas",
              "type": "uint256"
            },
            {
              "internalType": "uint256",
              "name": "preVerificationGas",
              "type": "uint256"
            },
            {
              "internalType": "uint256",
              "name": "maxFeePerGas",
              "type": "uint256"
            },
            {
              "internalType": "uint256",
              "name": "maxPriorityFeePerGas",
              "type": "uint256"
            },
            {
              "internalType": "address",
              "name": "paymaster",
              "type": "address"
            },
            {
              "internalType": "bytes",
              "name": "paymasterData",
              "type": "bytes"
            },
            {
              "internalType": "bytes",
              "name": "signature",
              "type": "bytes"
            }
          ],
          "internalType": "struct UserOperation",
          "name": "op",
          "type": "tuple"
        },
        {
          "internalType": "address payable",
          "name": "redeemer",
          "type": "address"
        }
      ],
      "name": "handleOp",
      "outputs": [],
      "stateMutability": "nonpayable",
      "type": "function"
    },
    {
      "inputs": [
        {
          "components": [
            {
              "internalType": "address",
              "name": "sender",
              "type": "address"
            },
            {
              "internalType": "uint256",
              "name": "nonce",
              "type": "uint256"
            },
            {
              "internalType": "bytes",
              "name": "initCode",
              "type": "bytes"
            },
            {
              "internalType": "bytes",
              "name": "callData",
              "type": "bytes"
            },
            {
              "internalType": "uint256",
              "name": "callGas",
              "type": "uint256"
            },
            {
              "internalType": "uint256",
              "name": "verificationGas",
              "type": "uint256"
            },
            {
              "internalType": "uint256",
              "name": "preVerificationGas",
              "type": "uint256"
            },
            {
              "internalType": "uint256",
              "name": "maxFeePerGas",
              "type": "uint256"
            },
            {
              "internalType": "uint256",
              "name": "maxPriorityFeePerGas",
              "type": "uint256"
            },
            {
              "internalType": "address",
              "name": "paymaster",
              "type": "address"
            },
            {
              "internalType": "bytes",
              "name": "paymasterData",
              "type": "bytes"
            },
            {
              "internalType": "bytes",
              "name": "signature",
              "type": "bytes"
            }
          ],
          "internalType": "struct UserOperation[]",
          "name": "ops",
          "type": "tuple[]"
        },
        {
          "internalType": "address payable",
          "name": "redeemer",
          "type": "address"
        }
      ],
      "name": "handleOps",
      "outputs": [],
      "stateMutability": "nonpayable",
      "type": "function"
    },
    {
      "inputs": [
        {
          "components": [
            {
              "internalType": "address",
              "name": "sender",
              "type": "address"
            },
            {
              "internalType": "uint256",
              "name": "nonce",
              "type": "uint256"
            },
            {
              "internalType": "bytes",
              "name": "initCode",
              "type": "bytes"
            },
            {
              "internalType": "bytes",
              "name": "callData",
              "type": "bytes"
            },
            {
              "internalType": "uint256",
              "name": "callGas",
              "type": "uint256"
            },
            {
              "internalType": "uint256",
              "name": "verificationGas",
              "type": "uint256"
            },
            {
              "internalType": "uint256",
              "name": "preVerificationGas",
              "type": "uint256"
            },
            {
              "internalType": "uint256",
              "name": "maxFeePerGas",
              "type": "uint256"
            },
            {
              "internalType": "uint256",
              "name": "maxPriorityFeePerGas",
              "type": "uint256"
            },
            {
              "internalType": "address",
              "name": "paymaster",
              "type": "address"
            },
            {
              "internalType": "bytes",
              "name": "paymasterData",
              "type": "bytes"
            },
            {
              "internalType": "bytes",
              "name": "signature",
              "type": "bytes"
            }
          ],
          "internalType": "struct UserOperation",
          "name": "op",
          "type": "tuple"
        },
        {
          "internalType": "bytes",
          "name": "context",
          "type": "bytes"
        },
        {
          "internalType": "uint256",
          "name": "preOpGas",
          "type": "uint256"
        },
        {
          "internalType": "uint256",
          "name": "prefund",
          "type": "uint256"
        },
        {
          "internalType": "enum EntryPoint.PaymentMode",
          "name": "paymentMode",
          "type": "uint8"
        }
      ],
      "name": "internalHandleOp",
      "outputs": [
        {
          "internalType": "uint256",
          "name": "actualGasCost",
          "type": "uint256"
        }
      ],
      "stateMutability": "nonpayable",
      "type": "function"
    },
    {
      "inputs": [
        {
          "internalType": "address",
          "name": "addr",
          "type": "address"
        }
      ],
      "name": "isContractDeployed",
      "outputs": [
        {
          "internalType": "bool",
          "name": "",
          "type": "bool"
        }
      ],
      "stateMutability": "view",
      "type": "function"
    },
    {
      "inputs": [
        {
          "internalType": "address",
          "name": "paymaster",
          "type": "address"
        },
        {
          "internalType": "uint256",
          "name": "stake",
          "type": "uint256"
        }
      ],
      "name": "isPaymasterStaked",
      "outputs": [
        {
          "internalType": "bool",
          "name": "",
          "type": "bool"
        }
      ],
      "stateMutability": "view",
      "type": "function"
    },
    {
      "inputs": [
        {
          "internalType": "address",
          "name": "paymaster",
          "type": "address"
        },
        {
          "internalType": "uint256",
          "name": "requiredStake",
          "type": "uint256"
        },
        {
          "internalType": "uint256",
          "name": "requiredDelayBlocks",
          "type": "uint256"
        }
      ],
      "name": "isStaked",
      "outputs": [
        {
          "internalType": "bool",
          "name": "",
          "type": "bool"
        }
      ],
      "stateMutability": "view",
      "type": "function"
    },
    {
      "inputs": [],
      "name": "perOpOverhead",
      "outputs": [
        {
          "internalType": "uint256",
          "name": "",
          "type": "uint256"
        }
      ],
      "stateMutability": "view",
      "type": "function"
    },
    {
      "inputs": [
        {
          "components": [
            {
              "internalType": "address",
              "name": "sender",
              "type": "address"
            },
            {
              "internalType": "uint256",
              "name": "nonce",
              "type": "uint256"
            },
            {
              "internalType": "bytes",
              "name": "initCode",
              "type": "bytes"
            },
            {
              "internalType": "bytes",
              "name": "callData",
              "type": "bytes"
            },
            {
              "internalType": "uint256",
              "name": "callGas",
              "type": "uint256"
            },
            {
              "internalType": "uint256",
              "name": "verificationGas",
              "type": "uint256"
            },
            {
              "internalType": "uint256",
              "name": "preVerificationGas",
              "type": "uint256"
            },
            {
              "internalType": "uint256",
              "name": "maxFeePerGas",
              "type": "uint256"
            },
            {
              "internalType": "uint256",
              "name": "maxPriorityFeePerGas",
              "type": "uint256"
            },
            {
              "internalType": "address",
              "name": "paymaster",
              "type": "address"
            },
            {
              "internalType": "bytes",
              "name": "paymasterData",
              "type": "bytes"
            },
            {
              "internalType": "bytes",
              "name": "signature",
              "type": "bytes"
            }
          ],
          "internalType": "struct UserOperation",
          "name": "userOp",
          "type": "tuple"
        },
        {
          "internalType": "uint256",
          "name": "gasUsedByPayForSelfOp",
          "type": "uint256"
        }
      ],
      "name": "simulatePaymasterValidation",
      "outputs": [
        {
          "internalType": "bytes",
          "name": "context",
          "type": "bytes"
        },
        {
          "internalType": "uint256",
          "name": "gasUsedByPayForOp",
          "type": "uint256"
        }
      ],
      "stateMutability": "view",
      "type": "function"
    },
    {
      "inputs": [
        {
          "components": [
            {
              "internalType": "address",
              "name": "sender",
              "type": "address"
            },
            {
              "internalType": "uint256",
              "name": "nonce",
              "type": "uint256"
            },
            {
              "internalType": "bytes",
              "name": "initCode",
              "type": "bytes"
            },
            {
              "internalType": "bytes",
              "name": "callData",
              "type": "bytes"
            },
            {
              "internalType": "uint256",
              "name": "callGas",
              "type": "uint256"
            },
            {
              "internalType": "uint256",
              "name": "verificationGas",
              "type": "uint256"
            },
            {
              "internalType": "uint256",
              "name": "preVerificationGas",
              "type": "uint256"
            },
            {
              "internalType": "uint256",
              "name": "maxFeePerGas",
              "type": "uint256"
            },
            {
              "internalType": "uint256",
              "name": "maxPriorityFeePerGas",
              "type": "uint256"
            },
            {
              "internalType": "address",
              "name": "paymaster",
              "type": "address"
            },
            {
              "internalType": "bytes",
              "name": "paymasterData",
              "type": "bytes"
            },
            {
              "internalType": "bytes",
              "name": "signature",
              "type": "bytes"
            }
          ],
          "internalType": "struct UserOperation",
          "name": "userOp",
          "type": "tuple"
        }
      ],
      "name": "simulateValidation",
      "outputs": [],
      "stateMutability": "nonpayable",
      "type": "function"
    },
    {
      "inputs": [
        {
          "components": [
            {
              "internalType": "address",
              "name": "sender",
              "type": "address"
            },
            {
              "internalType": "uint256",
              "name": "nonce",
              "type": "uint256"
            },
            {
              "internalType": "bytes",
              "name": "initCode",
              "type": "bytes"
            },
            {
              "internalType": "bytes",
              "name": "callData",
              "type": "bytes"
            },
            {
              "internalType": "uint256",
              "name": "callGas",
              "type": "uint256"
            },
            {
              "internalType": "uint256",
              "name": "verificationGas",
              "type": "uint256"
            },
            {
              "internalType": "uint256",
              "name": "preVerificationGas",
              "type": "uint256"
            },
            {
              "internalType": "uint256",
              "name": "maxFeePerGas",
              "type": "uint256"
            },
            {
              "internalType": "uint256",
              "name": "maxPriorityFeePerGas",
              "type": "uint256"
            },
            {
              "internalType": "address",
              "name": "paymaster",
              "type": "address"
            },
            {
              "internalType": "bytes",
              "name": "paymasterData",
              "type": "bytes"
            },
            {
              "internalType": "bytes",
              "name": "signature",
              "type": "bytes"
            }
          ],
          "internalType": "struct UserOperation",
          "name": "userOp",
          "type": "tuple"
        }
      ],
      "name": "simulateWalletValidation",
      "outputs": [
        {
          "internalType": "uint256",
          "name": "gasUsedByPayForSelfOp",
          "type": "uint256"
        }
      ],
      "stateMutability": "nonpayable",
      "type": "function"
    },
    {
      "inputs": [
        {
          "internalType": "address",
          "name": "",
          "type": "address"
        }
      ],
      "name": "stakes",
      "outputs": [
        {
          "internalType": "uint96",
          "name": "stake",
          "type": "uint96"
        },
        {
          "internalType": "uint32",
          "name": "unstakeDelayBlocks",
          "type": "uint32"
        },
        {
          "internalType": "uint96",
          "name": "withdrawStake",
          "type": "uint96"
        },
        {
          "internalType": "uint32",
          "name": "withdrawBlock",
          "type": "uint32"
        }
      ],
      "stateMutability": "view",
      "type": "function"
    },
    {
      "inputs": [],
      "name": "unlockStake",
      "outputs": [],
      "stateMutability": "nonpayable",
      "type": "function"
    },
    {
      "inputs": [],
      "name": "unstakeDelayBlocks",
      "outputs": [
        {
          "internalType": "uint32",
          "name": "",
          "type": "uint32"
        }
      ],
      "stateMutability": "view",
      "type": "function"
    },
    {
      "inputs": [
        {
          "internalType": "address payable",
          "name": "withdrawAddress",
          "type": "address"
        }
      ],
      "name": "withdrawStake",
      "outputs": [],
      "stateMutability": "nonpayable",
      "type": "function"
    },
    {
      "stateMutability": "payable",
      "type": "receive"
    }
  ],
  "bytecode": "0x60e06040523480156200001157600080fd5b5060405162002d2838038062002d28833981016040819052620000349162000060565b60e01b6001600160e01b03191660805260609190911b6001600160601b03191660c05260a052620000bb565b6000806000606084860312156200007657600080fd5b83516001600160a01b03811681146200008e57600080fd5b60208501516040860151919450925063ffffffff81168114620000b057600080fd5b809150509250925092565b60805160e01c60a05160c05160601c612c0d6200011b60003960008181610161015281816104100152611f4b0152600081816102da01528181610a6501528181611346015261188701526000818161059901526108500152612c0d6000f3fe60806040526004361061012e5760003560e01c806382819013116100ab578063c31e43541161006f578063c31e4354146103da578063c345315314610471578063dbbabd6a14610567578063e7c350e314610587578063f20751eb146105d0578063f3737f19146105f157600080fd5b80638281901314610337578063af2ed7d714610365578063bb9fe6bf14610385578063bf55512e1461039a578063c23a5cea146103ba57600080fd5b80631fa75c86116100f25780631fa75c86146102805780632815c17b146102a05780634a58db19146102c0578063643407ce146102c8578063739b89501461030a57600080fd5b80630396cb601461013a5780630bfb68471461014f57806316934fc4146101a05780631a1c1141146102305780631c112a441461025057600080fd5b3661013557005b600080fd5b61014d610148366004612555565b610604565b005b34801561015b57600080fd5b506101837f000000000000000000000000000000000000000000000000000000000000000081565b6040516001600160a01b0390911681526020015b60405180910390f35b3480156101ac57600080fd5b506101f96101bb366004612176565b6000602081905290815260409020546001600160601b038082169163ffffffff600160601b8204811692600160801b83041691600160e01b90041684565b604080516001600160601b03958616815263ffffffff94851660208201529490921691840191909152166060820152608001610197565b34801561023c57600080fd5b5061014d61024b3660046123b2565b61078f565b34801561025c57600080fd5b5061027061026b3660046121dc565b6107bf565b6040519015158152602001610197565b34801561028c57600080fd5b5061027061029b3660046121b0565b610847565b3480156102ac57600080fd5b5061014d6102bb366004612252565b610881565b61014d610c7f565b3480156102d457600080fd5b506102fc7f000000000000000000000000000000000000000000000000000000000000000081565b604051908152602001610197565b34801561031657600080fd5b5061032a610325366004612211565b610c8b565b60405161019791906126f2565b34801561034357600080fd5b506103576103523660046124f8565b610d64565b60405161019792919061275a565b34801561037157600080fd5b506102fc61038036600461243f565b610dcb565b34801561039157600080fd5b5061014d610f3d565b3480156103a657600080fd5b506102fc6103b53660046123b2565b6110b0565b3480156103c657600080fd5b5061014d6103d5366004612176565b6110f6565b3480156103e657600080fd5b506101836103f5366004612329565b8151602092830120604080516001600160f81b0319818601527f000000000000000000000000000000000000000000000000000000000000000060601b6bffffffffffffffffffffffff191660218201526035810193909352605580840192909252805180840390920182526075909201909152805191012090565b34801561047d57600080fd5b5061051661048c366004612176565b604080516080810182526000808252602082018190529181018290526060810191909152506001600160a01b031660009081526020818152604091829020825160808101845290546001600160601b03808216835263ffffffff600160601b8304811694840194909452600160801b82041693820193909352600160e01b90920416606082015290565b604051610197919060006080820190506001600160601b03808451168352602084015163ffffffff808216602086015282604087015116604086015280606087015116606086015250505092915050565b34801561057357600080fd5b5061014d6105823660046123ee565b611327565b34801561059357600080fd5b506105bb7f000000000000000000000000000000000000000000000000000000000000000081565b60405163ffffffff9091168152602001610197565b3480156105dc57600080fd5b506102706105eb366004612176565b3f151590565b61014d6105ff366004612176565b611441565b3360009081526020819052604090205463ffffffff600160601b909104811690821610156106795760405162461bcd60e51b815260206004820152601e60248201527f63616e6e6f7420646563726561736520756e7374616b6520626c6f636b73000060448201526064015b60405180910390fd5b336000908152602081905260408120546001600160601b03600160801b82048116916106a791349116612970565b6106b19190612970565b604080516080810182526001600160601b0383811680835263ffffffff878116602080860182815260008789018181526060890182815233808452838652928b902099518a54945192519151908a166001600160801b031990951694909417600160601b92881692909202919091176001600160801b0316600160801b91909816026001600160e01b031696909617600160e01b91909416029290921790945584519182528101929092529293507f270d6dd254edd1d985c81cf7861b8f28fb06b6d719df04d90464034d4341244091015b60405180910390a25050565b61079a600082611499565b5050331590506107bc5760405162461bcd60e51b8152600401610670906127ae565b50565b6001600160a01b038316600090815260208181526040808320815160808101835290546001600160601b0380821680845263ffffffff600160601b8404811696850196909652600160801b830490911693830193909352600160e01b90049092166060830152841180159061083e575082816020015163ffffffff1610155b95945050505050565b600061087a83837f000000000000000000000000000000000000000000000000000000000000000063ffffffff166107bf565b9392505050565b816000816001600160401b0381111561089c5761089c612ae9565b6040519080825280602002602001820160405280156108c5578160200160208202803683370190505b5090506000826001600160401b038111156108e2576108e2612ae9565b60405190808252806020026020018201604052801561090b578160200160208202803683370190505b5090506000836001600160401b0381111561092857610928612ae9565b604051908082528060200260200182016040528015610951578160200160208202803683370190505b5090506000846001600160401b0381111561096e5761096e612ae9565b604051908082528060200260200182016040528015610997578160200160208202803683370190505b50905060005b85811015610ace5760005a9050368a8a848181106109bd576109bd612ad3565b90506020028101906109cf91906128e3565b9050606060006109df8584611499565b8988815181106109f1576109f1612ad3565b60200260200101898981518110610a0a57610a0a612ad3565b60200260200101829650836002811115610a2657610a26612abd565b6002811115610a3757610a37612abd565b8152508381525050505081905080888681518110610a5757610a57612ad3565b6020026020010181815250507f00000000000000000000000000000000000000000000000000000000000000005a610a8f90866129f1565b610a999190612970565b898681518110610aab57610aab612ad3565b602002602001018181525050505050508080610ac690612a8c565b91505061099d565b506000805b88811015610c695760005a9050368b8b84818110610af357610af3612ad3565b9050602002810190610b0591906128e3565b90506000878481518110610b1b57610b1b612ad3565b60200260200101519050606081905060008a8681518110610b3e57610b3e612ad3565b602002602001015190506000898781518110610b5c57610b5c612ad3565b602002602001015190506000898881518110610b7a57610b7a612ad3565b60200260200101519050306001600160a01b031663af2ed7d787868686866040518663ffffffff1660e01b8152600401610bb89594939291906127fa565b602060405180830381600087803b158015610bd257600080fd5b505af1925050508015610c02575060408051601f3d908101601f19168201909252610bff9181019061253c565b60015b610c41576000835a610c14908a6129f1565b610c1e9190612970565b9050610c2f6002888784878761159f565b610c39908b612970565b995050610c4f565b610c4b818b612970565b9950505b505050505050508080610c6190612a8c565b915050610ad3565b50610c748782611843565b505050505050505050565b610c896000610604565b565b6060816001600160401b03811115610ca557610ca5612ae9565b604051908082528060200260200182016040528015610cce578160200160208202803683370190505b50905060005b82811015610d5d57600080858584818110610cf157610cf1612ad3565b9050602002016020810190610d069190612176565b6001600160a01b0316815260208101919091526040016000205482516001600160601b0390911690839083908110610d4057610d40612ad3565b602090810291909101015280610d5581612a8c565b915050610cd4565b5092915050565b60606000806000610d748661187e565b90925090506000816002811115610d8d57610d8d612abd565b14610db05760006040518060200160405280600081525090935093505050610dc4565b610dbd60008784886118e5565b9350935050505b9250929050565b6000805a9050333014610ddd57600080fd5b600080610ded60608b018b61289d565b90501115610ecf576000808a356001600160a01b031660808c0135610e1560608e018e61289d565b604051610e239291906126e2565b60006040518083038160008787f1925050503d8060008114610e61576040519150601f19603f3d011682016040523d82523d6000602084013e610e66565b606091505b509150915081158015610e7a575060008151115b15610ecc578a356001600160a01b03167fbe4889eb241fb33bc0e9873f6e442f4c5dc653a55e7ad8bca2f001c9b3d818fb8c6020013583604051610ebf929190612884565b60405180910390a2600192505b50505b6000865a610edd90856129f1565b610ee79190612970565b9050610f2f828b8b8b8080601f0160208091040260200160405190810160405280939291908181526020018383808284376000920191909152508792508c91508b905061159f565b9a9950505050505050505050565b3360009081526020819052604090208054600160e01b900463ffffffff1615610f9a5760405162461bcd60e51b815260206004820152600f60248201526e616c72656164792070656e64696e6760881b6044820152606401610670565b80546001600160601b031615801590610fc057508054600160601b900463ffffffff1615155b6110015760405162461bcd60e51b81526020600482015260126024820152716e6f207374616b6520746f20756e6c6f636b60701b6044820152606401610670565b805460009061101d90600160601b900463ffffffff1643612988565b82546001600160801b0381166bffffffffffffffffffffffff60801b19600160e01b63ffffffff8516908102918216929092176001600160601b039384169190931617600160801b02919091176bffffffffffffffffffffffff1916845560405190815290915033907fab3a43860ac8cdb29929ba1a1f556b4decf9617f4811c190010e1672e55839b190602001610783565b600033156110d05760405162461bcd60e51b8152600401610670906127ae565b6000806110dc8461187e565b915091506110ed6000858484611ac1565b50949350505050565b3360009081526020818152604091829020825160808101845290546001600160601b03808216835263ffffffff600160601b83048116948401859052600160801b830490911694830194909452600160e01b90049092166060830152156111fa57600081604001516001600160601b0316116111a85760405162461bcd60e51b81526020600482015260116024820152706e6f20756e6c6f636b6564207374616b6560781b6044820152606401610670565b43816060015163ffffffff1611156111fa5760405162461bcd60e51b81526020600482015260156024820152745769746864726177616c206973206e6f742064756560581b6044820152606401610670565b8051604082015160009161120d916129b0565b60408051608081018252600080825260208681015163ffffffff9081168285019081528486018481526060860185815233865293859052868520955186549251915194518416600160e01b026001600160e01b036001600160601b03968716600160801b02166001600160801b0393909516600160601b026001600160801b031990941691861691909117929092171691909117179092559151921692506001600160a01b0385169183156108fc0291849190818181858888f193505050501580156112dd573d6000803e3d6000fd5b50604080516001600160a01b03851681526020810183905233917fb7c918e0e249f999e965cafeb6c664271b3f4317d296461500e71da39f0cbda3910160405180910390a2505050565b60005a9050600080600061133c600087611499565b92509250925060007f00000000000000000000000000000000000000000000000000000000000000005a61137090876129f1565b61137a9190612970565b60405163af2ed7d760e01b8152909150600090309063af2ed7d7906113ab908b90879087908b908b906004016127fa565b602060405180830381600087803b1580156113c557600080fd5b505af19250505080156113f5575060408051601f3d908101601f191682019092526113f29181019061253c565b60015b61142a576000825a61140790896129f1565b6114119190612970565b905061142260028a86848a8a61159f565b91505061142d565b90505b6114378782611843565b5050505050505050565b6001600160a01b038116600090815260208190526040812080543492906114729084906001600160601b03166129b0565b92506101000a8154816001600160601b0302191690836001600160601b0316021790555050565b600080606060005a90506000806114af8761187e565b955090506114bf88888388611ac1565b965091506000808660028111156114d8576114d8612abd565b14156114f4576114ea898984866118e5565b9095509050611507565b6040518060200160405280600081525094505b60005a61151490866129f1565b9050808960a00135101561159357896115356101408b016101208c01612176565b60405162fa072b60e01b815260048101929092526001600160a01b0316602482015260606044820152601e60648201527f55736564206d6f7265207468616e20766572696669636174696f6e4761730000608482015260a401610670565b50505050509250925092565b6000805a905060006115b088611d8d565b90506115bc81876129d2565b925060008460028111156115d2576115d2612abd565b1461167957828510156116325760405162461bcd60e51b815260206004820152602260248201527f77616c6c65742070726566756e642062656c6f772061637475616c476173436f6044820152611cdd60f21b6064820152608401610670565b600061163e84876129f1565b9050600185600281111561165457611654612abd565b1415611669576116648982611daa565b611673565b6116738982611e04565b50611817565b8651156117855761169261014089016101208a01612176565b6001600160a01b031663a9a234098a89866040518463ffffffff1660e01b81526004016116c19392919061277c565b600060405180830381600087803b1580156116db57600080fd5b505af19250505080156116ec575060015b611785573d80801561171a576040519150601f19603f3d011682016040523d82523d6000602084013e61171f565b606091505b506117326101408a016101208b01612176565b6001600160a01b031689356001600160a01b03167f45197bfe91c32368fd75a4fcab42a1eff7699e79df0e171a343537be7657efb68b602001358460405161177b929190612884565b60405180910390a3505b5a61179090836129f1565b61179a9087612970565b95506117a681876129d2565b9250826000806117be6101408c016101208d01612176565b6001600160a01b031681526020810191909152604001600090812080549091906117f29084906001600160601b0316612a08565b92506101000a8154816001600160601b0302191690836001600160601b031602179055505b61183788848360008d600281111561183157611831612abd565b14611e31565b50509695505050505050565b6040516001600160a01b0383169082156108fc029083906000818181858888f19350505050158015611879573d6000803e3d6000fd5b505050565b6000806118ab837f0000000000000000000000000000000000000000000000000000000000000000611ead565b91506118b683611edc565b156118c357506000915091565b6118d083358360006107bf565b156118dd57506001915091565b506002915091565b60606000805a90506118f78686611f02565b61195f578661190e61014088016101208901612176565b60405162fa072b60e01b815260048101929092526001600160a01b0316602482015260606044820152601060648201526f6e6f7420656e6f756768207374616b6560801b608482015260a401610670565b600061196f8560a08901356129f1565b905061198361014088016101208901612176565b6001600160a01b03166380fd44d58289896040518463ffffffff1660e01b81526004016119b1929190612847565b60006040518083038187803b1580156119c957600080fd5b5086fa935050505080156119ff57506040513d6000823e601f3d908101601f191682016040526119fc91908101906122a8565b60015b611aa757611a0b612aff565b806308c379a01415611a5a5750611a20612b1b565b80611a2b5750611a5c565b88611a3e6101408a016101208b01612176565b8260405162fa072b60e01b81526004016106709392919061285a565b505b87611a6f61014089016101208a01612176565b60405162fa072b60e01b815260048101929092526001600160a01b031660248201526060604482015260006064820152608401610670565b93505a611ab490836129f1565b9250505094509492505050565b60008060005a9050611ad286611f2b565b4760006002866002811115611ae957611ae9612abd565b1415611af6575085611b1a565b6001866002811115611b0a57611b0a612abd565b1415611b1a57611b1a88886120b2565b6040516307dfd9cf60e51b81526001600160a01b038935169063fbfb39e09060a08b013590611b4f908c908690600401612847565b600060405180830381600088803b158015611b6957600080fd5b5087f193505050508015611b7b575060015b611bf857611b87612aff565b806308c379a01415611bc65750611b9c612b1b565b80611ba75750611bc8565b8960008260405162fa072b60e01b81526004016106709392919061285a565b505b60405162fa072b60e01b8152600481018a9052600060248201819052606060448301526064820152608401610670565b6000611c0483476129f1565b90506002876002811115611c1a57611c1a612abd565b1415611c865781811015611c7e5760405162fa072b60e01b8152600481018b90526000602482015260606044820152601960648201527f77616c6c6574206469646e2774207061792070726566756e6400000000000000608482015260a401610670565b809450611d73565b6001876002811115611c9a57611c9a612abd565b1415611d13578015611d0b5760405162fa072b60e01b8152600481018b90526000602482015260606044820152602660648201527f7573696e672077616c6c6574207374616b65206275742077616c6c65742070616084820152650d2c840cae8d60d31b60a482015260c401610670565b879450611d73565b8015611d6f5760405162fa072b60e01b8152600481018b90526000602482015260606044820152601d60648201527f686173207061796d6173746572206275742077616c6c65742070616964000000608482015260a401610670565b8794505b5a611d7e90856129f1565b95505050505094509492505050565b6000611da48260e0013548846101000135016120e4565b92915050565b6001600160a01b0382351660009081526020819052604081208054839290611ddc9084906001600160601b03166129b0565b92506101000a8154816001600160601b0302191690836001600160601b031602179055505050565b6040516000906001600160a01b038435169083156108fc0290849084818181858888f15050505050505050565b611e4361014085016101208601612176565b6001600160a01b03168435604080516020808901358252810187905290810185905283151560608201526001600160a01b0391909116907fc27a60e61c14607957b41fa2dad696de47b2d80e390d0eaaf1514c0cd20342939060800160405180910390a350505050565b6000611eb883611d8d565b611ed283608086013560a08701350160c087013501612970565b61087a91906129d2565b600080611ef161014084016101208501612176565b6001600160a01b0316141592915050565b600061087a611f1961014085016101208601612176565b61029b84670de0b6b3a7640000612970565b611f38604082018261289d565b1590506107bc5760006001600160a01b037f000000000000000000000000000000000000000000000000000000000000000016634af63f02611f7d604085018561289d565b6040516001600160e01b031960e085901b168152611fa5929190602088013590600401612736565b602060405180830381600087803b158015611fbf57600080fd5b505af1158015611fd3573d6000803e3d6000fd5b505050506040513d601f19601f82011682018060405250810190611ff79190612193565b90506001600160a01b0381166120405760405162461bcd60e51b815260206004820152600e60248201526d18dc99585d194c8819985a5b195960921b6044820152606401610670565b81356001600160a01b0316816001600160a01b0316146120ae5760405162461bcd60e51b8152602060048201526024808201527f73656e64657220646f65736e2774206d617463682063726561746532206164646044820152637265737360e01b6064820152608401610670565b5050565b6001600160a01b0382351660009081526020819052604081208054839290611ddc9084906001600160601b0316612a08565b60008183106120f3578161087a565b5090919050565b803561210581612bc2565b919050565b60008083601f84011261211c57600080fd5b5081356001600160401b0381111561213357600080fd5b6020830191508360208260051b8501011115610dc457600080fd5b80356003811061210557600080fd5b6000610180828403121561217057600080fd5b50919050565b60006020828403121561218857600080fd5b813561087a81612bc2565b6000602082840312156121a557600080fd5b815161087a81612bc2565b600080604083850312156121c357600080fd5b82356121ce81612bc2565b946020939093013593505050565b6000806000606084860312156121f157600080fd5b83356121fc81612bc2565b95602085013595506040909401359392505050565b6000806020838503121561222457600080fd5b82356001600160401b0381111561223a57600080fd5b6122468582860161210a565b90969095509350505050565b60008060006040848603121561226757600080fd5b83356001600160401b0381111561227d57600080fd5b6122898682870161210a565b909450925050602084013561229d81612bc2565b809150509250925092565b6000602082840312156122ba57600080fd5b81516001600160401b038111156122d057600080fd5b8201601f810184136122e157600080fd5b80516122ec81612904565b6040516122f98282612a60565b82815286602084860101111561230e57600080fd5b61231f836020830160208701612a30565b9695505050505050565b6000806040838503121561233c57600080fd5b82356001600160401b0381111561235257600080fd5b8301601f8101851361236357600080fd5b803561236e81612904565b60405161237b8282612a60565b82815287602084860101111561239057600080fd5b8260208501602083013760006020938201840152979590910135955050505050565b6000602082840312156123c457600080fd5b81356001600160401b038111156123da57600080fd5b6123e68482850161215d565b949350505050565b6000806040838503121561240157600080fd5b82356001600160401b0381111561241757600080fd5b6124238582860161215d565b925050602083013561243481612bc2565b809150509250929050565b60008060008060008060a0878903121561245857600080fd5b86356001600160401b038082111561246f57600080fd5b61247b8a838b0161215d565b9750602089013591508082111561249157600080fd5b818901915089601f8301126124a557600080fd5b8135818111156124b457600080fd5b8a60208285010111156124c657600080fd5b60208301975080965050505060408701359250606087013591506124ec6080880161214e565b90509295509295509295565b6000806040838503121561250b57600080fd5b82356001600160401b0381111561252157600080fd5b61252d8582860161215d565b95602094909401359450505050565b60006020828403121561254e57600080fd5b5051919050565b60006020828403121561256757600080fd5b813563ffffffff8116811461087a57600080fd5b81835281816020850137506000828201602090810191909152601f909101601f19169091010190565b600081518084526125bc816020860160208601612a30565b601f01601f19169290920160200192915050565b60006101806125ef846125e2856120fa565b6001600160a01b03169052565b60208301356020850152612606604084018461292b565b826040870152612619838701828461257b565b9250505061262a606084018461292b565b858303606087015261263d83828461257b565b925050506080830135608085015260a083013560a085015260c083013560c085015260e083013560e08501526101008084013581860152506101206126838185016120fa565b6001600160a01b03169085015261014061269f8482018561292b565b868403838801526126b184828461257b565b93505050506101606126c58185018561292b565b868403838801526126d784828461257b565b979650505050505050565b8183823760009101908152919050565b6020808252825182820181905260009190848201906040850190845b8181101561272a5783518352928401929184019160010161270e565b50909695505050505050565b60408152600061274a60408301858761257b565b9050826020830152949350505050565b60408152600061276d60408301856125a4565b90508260208301529392505050565b61278584612ba4565b83815260606020820152600061279e60608301856125a4565b9050826040830152949350505050565b6020808252602c908201527f6d7573742062652063616c6c6564206f66662d636861696e207769746820667260408201526b37b69ebd32b93796b0b2323960a11b606082015260800190565b60a08152600061280d60a08301886125d0565b828103602084015261281f81886125a4565b91505084604083015283606083015261283783612ba4565b8260808301529695505050505050565b60408152600061276d60408301856125d0565b8381526001600160a01b038316602082015260606040820181905260009061083e908301846125a4565b8281526040602082015260006123e660408301846125a4565b6000808335601e198436030181126128b457600080fd5b8301803591506001600160401b038211156128ce57600080fd5b602001915036819003821315610dc457600080fd5b6000823561017e198336030181126128fa57600080fd5b9190910192915050565b60006001600160401b0382111561291d5761291d612ae9565b50601f01601f191660200190565b6000808335601e1984360301811261294257600080fd5b83016020810192503590506001600160401b0381111561296157600080fd5b803603831315610dc457600080fd5b6000821982111561298357612983612aa7565b500190565b600063ffffffff8083168185168083038211156129a7576129a7612aa7565b01949350505050565b60006001600160601b038083168185168083038211156129a7576129a7612aa7565b60008160001904831182151516156129ec576129ec612aa7565b500290565b600082821015612a0357612a03612aa7565b500390565b60006001600160601b0383811690831681811015612a2857612a28612aa7565b039392505050565b60005b83811015612a4b578181015183820152602001612a33565b83811115612a5a576000848401525b50505050565b601f8201601f191681016001600160401b0381118282101715612a8557612a85612ae9565b6040525050565b6000600019821415612aa057612aa0612aa7565b5060010190565b634e487b7160e01b600052601160045260246000fd5b634e487b7160e01b600052602160045260246000fd5b634e487b7160e01b600052603260045260246000fd5b634e487b7160e01b600052604160045260246000fd5b600060033d1115612b185760046000803e5060005160e01c5b90565b600060443d1015612b295790565b6040516003193d81016004833e81513d6001600160401b038160248401118184111715612b5857505050505090565b8285019150815181811115612b705750505050505090565b843d8701016020828501011115612b8a5750505050505090565b612b9960208286010187612a60565b509095945050505050565b600381106107bc57634e487b7160e01b600052602160045260246000fd5b6001600160a01b03811681146107bc57600080fdfea2646970667358221220d064cef41f82ef7e362a4758f47f06cb076117a232230ce039c8b1f53b111b8164736f6c63430008070033",
  "linkReferences": {},
  "deployedLinkReferences": {}
}