{
  "_format": "hh-sol-artifact-1",
  "contractName": "Singleton",
  "sourceName": "contracts/Singleton.sol",
  "abi": [
    {
      "anonymous": false,
      "inputs": [
        {
          "indexed": false,
          "internalType": "address",
          "name": "paymaster",
          "type": "address"
        },
        {
          "indexed": false,
          "internalType": "address",
          "name": "target",
          "type": "address"
        },
        {
          "indexed": false,
          "internalType": "bytes",
          "name": "reason",
          "type": "bytes"
        }
      ],
      "name": "PaymasterPostOpFailed",
      "type": "event"
    },
    {
      "anonymous": false,
      "inputs": [
        {
          "indexed": true,
          "internalType": "address",
          "name": "paymaster",
          "type": "address"
        },
        {
          "indexed": false,
          "internalType": "uint256",
          "name": "totalStake",
          "type": "uint256"
        }
      ],
      "name": "StakeAdded",
      "type": "event"
    },
    {
      "anonymous": false,
      "inputs": [
        {
          "indexed": true,
          "internalType": "address",
          "name": "paymaster",
          "type": "address"
        },
        {
          "indexed": false,
          "internalType": "uint256",
          "name": "withdrawBlock",
          "type": "uint256"
        }
      ],
      "name": "StakeUnlocking",
      "type": "event"
    },
    {
      "anonymous": false,
      "inputs": [
        {
          "indexed": true,
          "internalType": "address",
          "name": "paymaser",
          "type": "address"
        },
        {
          "indexed": false,
          "internalType": "address",
          "name": "withdrawAddress",
          "type": "address"
        },
        {
          "indexed": false,
          "internalType": "uint256",
          "name": "amount",
          "type": "uint256"
        }
      ],
      "name": "StakeWithdrawn",
      "type": "event"
    },
    {
      "anonymous": false,
      "inputs": [
        {
          "indexed": true,
          "internalType": "address",
          "name": "account",
          "type": "address"
        },
        {
          "indexed": true,
          "internalType": "address",
          "name": "paymaster",
          "type": "address"
        },
        {
          "indexed": false,
          "internalType": "uint256",
          "name": "actualGasCost",
          "type": "uint256"
        },
        {
          "indexed": false,
          "internalType": "uint256",
          "name": "actualGasPrice",
          "type": "uint256"
        },
        {
          "indexed": false,
          "internalType": "bool",
          "name": "success",
          "type": "bool"
        }
      ],
      "name": "UserOperationEvent",
      "type": "event"
    },
    {
      "anonymous": false,
      "inputs": [
        {
          "indexed": false,
          "internalType": "bytes",
          "name": "revertReason",
          "type": "bytes"
        }
      ],
      "name": "UserOperationRevertReason",
      "type": "event"
    },
    {
      "inputs": [],
      "name": "addStake",
      "outputs": [],
      "stateMutability": "payable",
      "type": "function"
    },
    {
      "inputs": [
        {
          "internalType": "bytes",
          "name": "bytecode",
          "type": "bytes"
        },
        {
          "internalType": "uint256",
          "name": "_salt",
          "type": "uint256"
        },
        {
          "internalType": "address",
          "name": "signer",
          "type": "address"
        }
      ],
      "name": "getAccountAddress",
      "outputs": [
        {
          "internalType": "address",
          "name": "",
          "type": "address"
        }
      ],
      "stateMutability": "view",
      "type": "function"
    },
    {
      "inputs": [
        {
          "internalType": "address[]",
          "name": "paymasters",
          "type": "address[]"
        }
      ],
      "name": "getPaymastersStake",
      "outputs": [
        {
          "internalType": "uint256[]",
          "name": "_stakes",
          "type": "uint256[]"
        }
      ],
      "stateMutability": "view",
      "type": "function"
    },
    {
      "inputs": [
        {
          "internalType": "address",
          "name": "paymaster",
          "type": "address"
        }
      ],
      "name": "getStakeInfo",
      "outputs": [
        {
          "components": [
            {
              "internalType": "uint112",
              "name": "stake",
              "type": "uint112"
            },
            {
              "internalType": "uint112",
              "name": "withdrawStake",
              "type": "uint112"
            },
            {
              "internalType": "uint32",
              "name": "withdrawBlock",
              "type": "uint32"
            }
          ],
          "internalType": "struct StakeManager.StakeInfo",
          "name": "stakeInfo",
          "type": "tuple"
        }
      ],
      "stateMutability": "view",
      "type": "function"
    },
    {
      "inputs": [
        {
          "components": [
            {
              "internalType": "address",
              "name": "target",
              "type": "address"
            },
            {
              "internalType": "uint256",
              "name": "nonce",
              "type": "uint256"
            },
            {
              "internalType": "bytes",
              "name": "initCode",
              "type": "bytes"
            },
            {
              "internalType": "bytes",
              "name": "callData",
              "type": "bytes"
            },
            {
              "internalType": "uint64",
              "name": "callGas",
              "type": "uint64"
            },
            {
              "internalType": "uint256",
              "name": "verificationGas",
              "type": "uint256"
            },
            {
              "internalType": "uint64",
              "name": "maxFeePerGas",
              "type": "uint64"
            },
            {
              "internalType": "uint64",
              "name": "maxPriorityFeePerGas",
              "type": "uint64"
            },
            {
              "internalType": "address",
              "name": "paymaster",
              "type": "address"
            },
            {
              "internalType": "bytes32",
              "name": "verificationAccessListHash",
              "type": "bytes32"
            },
            {
              "internalType": "address",
              "name": "signer",
              "type": "address"
            },
            {
              "internalType": "bytes",
              "name": "signature",
              "type": "bytes"
            }
          ],
          "internalType": "struct UserOperation",
          "name": "op",
          "type": "tuple"
        },
        {
          "internalType": "address payable",
          "name": "redeemer",
          "type": "address"
        }
      ],
      "name": "handleOp",
      "outputs": [],
      "stateMutability": "nonpayable",
      "type": "function"
    },
    {
      "inputs": [
        {
          "components": [
            {
              "internalType": "address",
              "name": "target",
              "type": "address"
            },
            {
              "internalType": "uint256",
              "name": "nonce",
              "type": "uint256"
            },
            {
              "internalType": "bytes",
              "name": "initCode",
              "type": "bytes"
            },
            {
              "internalType": "bytes",
              "name": "callData",
              "type": "bytes"
            },
            {
              "internalType": "uint64",
              "name": "callGas",
              "type": "uint64"
            },
            {
              "internalType": "uint256",
              "name": "verificationGas",
              "type": "uint256"
            },
            {
              "internalType": "uint64",
              "name": "maxFeePerGas",
              "type": "uint64"
            },
            {
              "internalType": "uint64",
              "name": "maxPriorityFeePerGas",
              "type": "uint64"
            },
            {
              "internalType": "address",
              "name": "paymaster",
              "type": "address"
            },
            {
              "internalType": "bytes32",
              "name": "verificationAccessListHash",
              "type": "bytes32"
            },
            {
              "internalType": "address",
              "name": "signer",
              "type": "address"
            },
            {
              "internalType": "bytes",
              "name": "signature",
              "type": "bytes"
            }
          ],
          "internalType": "struct UserOperation[]",
          "name": "ops",
          "type": "tuple[]"
        },
        {
          "internalType": "address payable",
          "name": "redeemer",
          "type": "address"
        }
      ],
      "name": "handleOps",
      "outputs": [],
      "stateMutability": "nonpayable",
      "type": "function"
    },
    {
      "inputs": [
        {
          "components": [
            {
              "internalType": "address",
              "name": "target",
              "type": "address"
            },
            {
              "internalType": "uint256",
              "name": "nonce",
              "type": "uint256"
            },
            {
              "internalType": "bytes",
              "name": "initCode",
              "type": "bytes"
            },
            {
              "internalType": "bytes",
              "name": "callData",
              "type": "bytes"
            },
            {
              "internalType": "uint64",
              "name": "callGas",
              "type": "uint64"
            },
            {
              "internalType": "uint256",
              "name": "verificationGas",
              "type": "uint256"
            },
            {
              "internalType": "uint64",
              "name": "maxFeePerGas",
              "type": "uint64"
            },
            {
              "internalType": "uint64",
              "name": "maxPriorityFeePerGas",
              "type": "uint64"
            },
            {
              "internalType": "address",
              "name": "paymaster",
              "type": "address"
            },
            {
              "internalType": "bytes32",
              "name": "verificationAccessListHash",
              "type": "bytes32"
            },
            {
              "internalType": "address",
              "name": "signer",
              "type": "address"
            },
            {
              "internalType": "bytes",
              "name": "signature",
              "type": "bytes"
            }
          ],
          "internalType": "struct UserOperation",
          "name": "op",
          "type": "tuple"
        },
        {
          "internalType": "bytes32",
          "name": "context",
          "type": "bytes32"
        },
        {
          "internalType": "uint256",
          "name": "preOpGas",
          "type": "uint256"
        },
        {
          "internalType": "uint256",
          "name": "prefund",
          "type": "uint256"
        }
      ],
      "name": "internalHandleOp",
      "outputs": [
        {
          "internalType": "uint256",
          "name": "valueFromPaymaster",
          "type": "uint256"
        }
      ],
      "stateMutability": "nonpayable",
      "type": "function"
    },
    {
      "inputs": [
        {
          "components": [
            {
              "internalType": "address",
              "name": "target",
              "type": "address"
            },
            {
              "internalType": "uint256",
              "name": "nonce",
              "type": "uint256"
            },
            {
              "internalType": "bytes",
              "name": "initCode",
              "type": "bytes"
            },
            {
              "internalType": "bytes",
              "name": "callData",
              "type": "bytes"
            },
            {
              "internalType": "uint64",
              "name": "callGas",
              "type": "uint64"
            },
            {
              "internalType": "uint256",
              "name": "verificationGas",
              "type": "uint256"
            },
            {
              "internalType": "uint64",
              "name": "maxFeePerGas",
              "type": "uint64"
            },
            {
              "internalType": "uint64",
              "name": "maxPriorityFeePerGas",
              "type": "uint64"
            },
            {
              "internalType": "address",
              "name": "paymaster",
              "type": "address"
            },
            {
              "internalType": "bytes32",
              "name": "verificationAccessListHash",
              "type": "bytes32"
            },
            {
              "internalType": "address",
              "name": "signer",
              "type": "address"
            },
            {
              "internalType": "bytes",
              "name": "signature",
              "type": "bytes"
            }
          ],
          "internalType": "struct UserOperation",
          "name": "op",
          "type": "tuple"
        }
      ],
      "name": "simulateOp",
      "outputs": [],
      "stateMutability": "nonpayable",
      "type": "function"
    },
    {
      "inputs": [
        {
          "internalType": "address",
          "name": "",
          "type": "address"
        }
      ],
      "name": "stakes",
      "outputs": [
        {
          "internalType": "uint112",
          "name": "stake",
          "type": "uint112"
        },
        {
          "internalType": "uint112",
          "name": "withdrawStake",
          "type": "uint112"
        },
        {
          "internalType": "uint32",
          "name": "withdrawBlock",
          "type": "uint32"
        }
      ],
      "stateMutability": "view",
      "type": "function"
    },
    {
      "inputs": [
        {
          "internalType": "address",
          "name": "paymaster",
          "type": "address"
        }
      ],
      "name": "unlockStake",
      "outputs": [],
      "stateMutability": "nonpayable",
      "type": "function"
    },
    {
      "inputs": [
        {
          "internalType": "address payable",
          "name": "withdrawAddress",
          "type": "address"
        }
      ],
      "name": "withdrawStake",
      "outputs": [],
      "stateMutability": "nonpayable",
      "type": "function"
    },
    {
      "stateMutability": "payable",
      "type": "receive"
    }
  ],
  "bytecode": "0x608060405234801561001057600080fd5b50613a9e806100206000396000f3fe6080604052600436106100a05760003560e01c80637ae22593116100645780637ae22593146101985780639e7ba2fa146101d5578063c17824ad146101fe578063c23a5cea14610227578063c345315314610250578063fc68652d1461028d576100a7565b806316934fc4146100ac57806334881e3d146100eb5780634a1ce599146101285780635a627dbc14610151578063739b89501461015b576100a7565b366100a757005b600080fd5b3480156100b857600080fd5b506100d360048036038101906100ce91906121f8565b6102b6565b6040516100e293929190612e5e565b60405180910390f35b3480156100f757600080fd5b50610112600480360381019061010d919061232c565b610324565b60405161011f9190612bc8565b60405180910390f35b34801561013457600080fd5b5061014f600480360381019061014a91906121f8565b610390565b005b610159610544565b005b34801561016757600080fd5b50610182600480360381019061017d9190612252565b6107b0565b60405161018f9190612c4a565b60405180910390f35b3480156101a457600080fd5b506101bf60048036038101906101ba9190612440565b6108da565b6040516101cc9190612e95565b60405180910390f35b3480156101e157600080fd5b506101fc60048036038101906101f7919061229f565b610a5f565b005b34801561020a57600080fd5b506102256004803603810190610220919061239b565b610e4e565b005b34801561023357600080fd5b5061024e60048036038101906102499190612225565b610ecd565b005b34801561025c57600080fd5b50610277600480360381019061027291906121f8565b6110e4565b6040516102849190612dba565b60405180910390f35b34801561029957600080fd5b506102b460048036038101906102af91906123e4565b6111ea565b005b60006020528060005260406000206000915090508060000160009054906101000a90046dffffffffffffffffffffffffffff169080600001600e9054906101000a90046dffffffffffffffffffffffffffff169080600001601c9054906101000a900463ffffffff16905083565b60008060ff60f81b30858786604051602001610341929190612ba0565b6040516020818303038152906040528051906020012060405160200161036a9493929190612b0f565b6040516020818303038152906040528051906020012090508060001c9150509392505050565b60008060008373ffffffffffffffffffffffffffffffffffffffff1673ffffffffffffffffffffffffffffffffffffffff1681526020019081526020016000209050600081600001601c9054906101000a900463ffffffff1663ffffffff161461042f576040517f08c379a000000000000000000000000000000000000000000000000000000000815260040161042690612cfa565b60405180910390fd5b600061012c4361043f91906132b4565b90508082600001601c6101000a81548163ffffffff021916908363ffffffff1602179055508160000160009054906101000a90046dffffffffffffffffffffffffffff1682600001600e6101000a8154816dffffffffffffffffffffffffffff02191690836dffffffffffffffffffffffffffff16021790555060008260000160006101000a8154816dffffffffffffffffffffffffffff02191690836dffffffffffffffffffffffffffff1602179055503373ffffffffffffffffffffffffffffffffffffffff167fab3a43860ac8cdb29929ba1a1f556b4decf9617f4811c190010e1672e55839b1826040516105379190613015565b60405180910390a2505050565b6000803373ffffffffffffffffffffffffffffffffffffffff1673ffffffffffffffffffffffffffffffffffffffff168152602001908152602001600020600001600e9054906101000a90046dffffffffffffffffffffffffffff166dffffffffffffffffffffffffffff16346000803373ffffffffffffffffffffffffffffffffffffffff1673ffffffffffffffffffffffffffffffffffffffff16815260200190815260200160002060000160009054906101000a90046dffffffffffffffffffffffffffff166dffffffffffffffffffffffffffff16610627919061325e565b610631919061325e565b6000803373ffffffffffffffffffffffffffffffffffffffff1673ffffffffffffffffffffffffffffffffffffffff16815260200190815260200160002060000160006101000a8154816dffffffffffffffffffffffffffff02191690836dffffffffffffffffffffffffffff16021790555060008060003373ffffffffffffffffffffffffffffffffffffffff1673ffffffffffffffffffffffffffffffffffffffff168152602001908152602001600020600001601c6101000a81548163ffffffff021916908363ffffffff1602179055503373ffffffffffffffffffffffffffffffffffffffff167f7c717985ac273e663b7f3050f5b15a4388ff6ed952338954f650e2093e13937f6000803373ffffffffffffffffffffffffffffffffffffffff1673ffffffffffffffffffffffffffffffffffffffff16815260200190815260200160002060000160009054906101000a90046dffffffffffffffffffffffffffff166040516107a69190612e43565b60405180910390a2565b60608282905067ffffffffffffffff8111156107cf576107ce61369b565b5b6040519080825280602002602001820160405280156107fd5781602001602082028036833780820191505090505b50905060005b838390508110156108d3576000808585848181106108245761082361366c565b5b905060200201602081019061083991906121f8565b73ffffffffffffffffffffffffffffffffffffffff1673ffffffffffffffffffffffffffffffffffffffff16815260200190815260200160002060000160009054906101000a90046dffffffffffffffffffffffffffff166dffffffffffffffffffffffffffff168282815181106108b4576108b361366c565b5b60200260200101818152505080806108cb90613583565b915050610803565b5092915050565b60003073ffffffffffffffffffffffffffffffffffffffff163373ffffffffffffffffffffffffffffffffffffffff161461091457600080fd5b60005a905060008087600001602081019061092f91906121f8565b73ffffffffffffffffffffffffffffffffffffffff1688608001602081019061095891906124f0565b67ffffffffffffffff168980606001906109729190613030565b604051610980929190612b5d565b60006040518083038160008787f1925050503d80600081146109be576040519150601f19603f3d011682016040523d82523d6000602084013e6109c3565b606091505b5091509150811580156109d7575060008151115b15610a14577f4744f445624b2fc392c793c67e1668a611f72a9cb69867656f9915f2463d69b681604051610a0b9190612c6c565b60405180910390a15b600082610a22576001610a25565b60005b90506000875a86610a36919061337c565b610a40919061325e565b9050610a50828b8b848b89611366565b95505050505050949350505050565b6000479050600084849050905060008167ffffffffffffffff811115610a8857610a8761369b565b5b604051908082528060200260200182016040528015610ab65781602001602082028036833780820191505090505b50905060008267ffffffffffffffff811115610ad557610ad461369b565b5b604051908082528060200260200182016040528015610b035781602001602082028036833780820191505090505b50905060008367ffffffffffffffff811115610b2257610b2161369b565b5b604051908082528060200260200182016040528015610b505781602001602082028036833780820191505090505b5090506000483a610b61919061337c565b905060005b85811015610c2d57368a8a83818110610b8257610b8161366c565b5b9050602002810190610b949190613093565b9050610ba08184611696565b60005a9050610baf83836116f9565b868581518110610bc257610bc161366c565b5b60200260200101888681518110610bdc57610bdb61366c565b5b60200260200101828152508281525050505a81610bf9919061337c565b878481518110610c0c57610c0b61366c565b5b60200260200101818152505050508080610c2590613583565b915050610b66565b506000805b8a8a9050811015610dde5760005a9050368c8c84818110610c5657610c5561366c565b5b9050602002810190610c689190613093565b90506000878481518110610c7f57610c7e61366c565b5b6020026020010151905060003073ffffffffffffffffffffffffffffffffffffffff16637ae2259384848d8981518110610cbc57610cbb61366c565b5b60200260200101518c8a81518110610cd757610cd661366c565b5b60200260200101516040518563ffffffff1660e01b8152600401610cfe9493929190612df7565b602060405180830381600087803b158015610d1857600080fd5b505af1925050508015610d4957506040513d601f19601f82011682018060405250810190610d4691906124c3565b60015b610db45760008a8681518110610d6257610d6161366c565b5b60200260200101515a86610d76919061337c565b610d80919061325e565b9050610dac60028585848d8b81518110610d9d57610d9c61366c565b5b60200260200101516000611366565b915050610db9565b809150505b8086610dc5919061325e565b9550505050508080610dd690613583565b915050610c32565b506000818847610dee919061337c565b610df8919061325e565b90508873ffffffffffffffffffffffffffffffffffffffff166108fc829081150290604051600060405180830381858888f19350505050158015610e40573d6000803e3d6000fd5b505050505050505050505050565b600073ffffffffffffffffffffffffffffffffffffffff163373ffffffffffffffffffffffffffffffffffffffff1614610ebd576040517f08c379a0000000000000000000000000000000000000000000000000000000008152600401610eb490612cda565b60405180910390fd5b610ec86000826116f9565b505050565b60008060003373ffffffffffffffffffffffffffffffffffffffff1673ffffffffffffffffffffffffffffffffffffffff1681526020019081526020016000209050600081600001600e9054906101000a90046dffffffffffffffffffffffffffff166dffffffffffffffffffffffffffff1611610f80576040517f08c379a0000000000000000000000000000000000000000000000000000000008152600401610f7790612d3a565b60405180910390fd5b4381600001601c9054906101000a900463ffffffff1663ffffffff161115610fdd576040517f08c379a0000000000000000000000000000000000000000000000000000000008152600401610fd490612d1a565b60405180910390fd5b600081600001600e9054906101000a90046dffffffffffffffffffffffffffff166dffffffffffffffffffffffffffff169050600082600001600e6101000a8154816dffffffffffffffffffffffffffff02191690836dffffffffffffffffffffffffffff1602179055508273ffffffffffffffffffffffffffffffffffffffff166108fc829081150290604051600060405180830381858888f1935050505015801561108e573d6000803e3d6000fd5b503373ffffffffffffffffffffffffffffffffffffffff167fb7c918e0e249f999e965cafeb6c664271b3f4317d296461500e71da39f0cbda384836040516110d7929190612be3565b60405180910390a2505050565b6110ec611e6c565b6000808373ffffffffffffffffffffffffffffffffffffffff1673ffffffffffffffffffffffffffffffffffffffff1681526020019081526020016000206040518060600160405290816000820160009054906101000a90046dffffffffffffffffffffffffffff166dffffffffffffffffffffffffffff166dffffffffffffffffffffffffffff16815260200160008201600e9054906101000a90046dffffffffffffffffffffffffffff166dffffffffffffffffffffffffffff166dffffffffffffffffffffffffffff16815260200160008201601c9054906101000a900463ffffffff1663ffffffff1663ffffffff16815250509050919050565b60004790506000483a6111fd919061337c565b90506112098482611696565b60005a905060008061121c6000886116f9565b9150915060005a8461122e919061337c565b905060003073ffffffffffffffffffffffffffffffffffffffff16637ae225938a8585886040518563ffffffff1660e01b81526004016112719493929190612df7565b602060405180830381600087803b15801561128b57600080fd5b505af19250505080156112bc57506040513d601f19601f820116820180604052508101906112b991906124c3565b60015b6112f3576000825a876112cf919061337c565b6112d9919061325e565b90506112eb60028b8684896000611366565b9150506112f8565b809150505b6000818847611307919061337c565b611311919061325e565b90508873ffffffffffffffffffffffffffffffffffffffff166108fc829081150290604051600060405180830381858888f19350505050158015611359573d6000803e3d6000fd5b5050505050505050505050565b60008061137287611af3565b905060005a90506000828761138791906132ee565b905061139b89611396906134b5565b611b52565b6113ff5760008960000160208101906113b491906121f8565b73ffffffffffffffffffffffffffffffffffffffff166108fc83896113d9919061337c565b9081150290604051600060405180830381858888f19350505050905060009450506115fb565b6000801b8814611524578861010001602081019061141d91906121f8565b73ffffffffffffffffffffffffffffffffffffffff166346ca982e8b8b8b856040518563ffffffff1660e01b815260040161145b9493929190612c8e565b600060405180830381600087803b15801561147557600080fd5b505af1925050508015611486575060015b611522573d80600081146114b6576040519150601f19603f3d011682016040523d82523d6000602084013e6114bb565b606091505b507f5f6032b8e84e218db7c512ea2e55828c412cfcba5d42b23d21b42f7e7210b8648a6101000160208101906114f191906121f8565b8b600001602081019061150491906121f8565b8360405161151493929190612c0c565b60405180910390a150611523565b5b5b825a83611531919061337c565b61153b91906132ee565b81611546919061325e565b9050806000808b61010001602081019061156091906121f8565b73ffffffffffffffffffffffffffffffffffffffff1673ffffffffffffffffffffffffffffffffffffffff16815260200190815260200160002060000160008282829054906101000a90046dffffffffffffffffffffffffffff166115c59190613348565b92506101000a8154816dffffffffffffffffffffffffffff02191690836dffffffffffffffffffffffffffff1602179055508093505b8861010001602081019061160f91906121f8565b73ffffffffffffffffffffffffffffffffffffffff1689600001602081019061163891906121f8565b73ffffffffffffffffffffffffffffffffffffffff167f87ff8671dda0b81e2f2bec38f9ee39fa8b7c73fa15723e01ea0e39a385981e8f83868960405161168193929190612fde565b60405180910390a35050509695505050505050565b808260e00160208101906116aa91906124f0565b67ffffffffffffffff1611156116f5576040517f08c379a00000000000000000000000000000000000000000000000000000000081526004016116ec90612d7a565b60405180910390fd5b5050565b600080600061170784611b90565b9050600047905060005a90508273ffffffffffffffffffffffffffffffffffffffff1663d68a7a6d8760a00135886040518363ffffffff1660e01b81526004016117519190612dd5565b600060405180830381600088803b15801561176b57600080fd5b5087f19350505050801561177d575060015b61182b576117896136ca565b806308c379a014156117ea575061179e61394b565b806117a957506117ec565b876000826040517efa072b0000000000000000000000000000000000000000000000000000000081526004016117e193929190612eb0565b60405180910390fd5b505b8660006040517efa072b000000000000000000000000000000000000000000000000000000008152600401611822929190612f66565b60405180910390fd5b60005a82611839919061337c565b90508247611847919061337c565b955061185b87611856906134b5565b611b52565b6118c2576118718761186c906134b5565b611d07565b8610156118b7578760006040517efa072b0000000000000000000000000000000000000000000000000000000081526004016118ae929190612eee565b60405180910390fd5b6000801b9450611ae8565b60008614611909578760006040517efa072b000000000000000000000000000000000000000000000000000000008152600401611900929190612f2a565b60405180910390fd5b61191287611d32565b61196757878761010001602081019061192b91906121f8565b6040517efa072b00000000000000000000000000000000000000000000000000000000815260040161195e929190612fa2565b60405180910390fd5b8661010001602081019061197b91906121f8565b73ffffffffffffffffffffffffffffffffffffffff166352d570bd828960a001356119a6919061337c565b896040518363ffffffff1660e01b81526004016119c39190612dd5565b60206040518083038187803b1580156119db57600080fd5b5086fa93505050508015611a0d57506040513d601f19601f82011682018060405250810190611a0a91906122ff565b60015b611adf57611a196136ca565b806308c379a01415611a8c5750611a2e61394b565b80611a395750611a8e565b8888610100016020810190611a4e91906121f8565b826040517efa072b000000000000000000000000000000000000000000000000000000008152600401611a8393929190612eb0565b60405180910390fd5b505b8787610100016020810190611aa391906121f8565b6040517efa072b000000000000000000000000000000000000000000000000000000008152600401611ad6929190612f66565b60405180910390fd5b80955060009650505b505050509250929050565b6000611b4b8260c0016020810190611b0b91906124f0565b67ffffffffffffffff16611b46488560e0016020810190611b2c91906124f0565b67ffffffffffffffff16611b40919061325e565b3a611d7c565b611d7c565b9050919050565b60008073ffffffffffffffffffffffffffffffffffffffff1682610100015173ffffffffffffffffffffffffffffffffffffffff1614159050919050565b6000816000016020810190611ba591906121f8565b90506000828060400190611bb99190613030565b905014611d02576000828060400190611bd29190613030565b84610140016020810190611be691906121f8565b604051602001611bf893929190612b76565b60405160208183030381529060405290506000836020013590506000818351602085016000f59050600073ffffffffffffffffffffffffffffffffffffffff168173ffffffffffffffffffffffffffffffffffffffff161415611c90576040517f08c379a0000000000000000000000000000000000000000000000000000000008152600401611c8790612d9a565b60405180910390fd5b8373ffffffffffffffffffffffffffffffffffffffff168173ffffffffffffffffffffffffffffffffffffffff1614611cfe576040517f08c379a0000000000000000000000000000000000000000000000000000000008152600401611cf590612d5a565b60405180910390fd5b5050505b919050565b60008160c0015167ffffffffffffffff16611d2183611d95565b611d2b91906132ee565b9050919050565b6000611d7582610100016020810190611d4b91906121f8565b611d5d84611d58906134b5565b611d07565b670de0b6b3a7640000611d70919061325e565b611df3565b9050919050565b6000818310611d8b5781611d8d565b825b905092915050565b600080826080015167ffffffffffffffff16905060008360400151511115611dea57600083606001515160c8611dcb91906132ee565b617d00611dd8919061325e565b90508082611de6919061325e565b9150505b80915050919050565b6000816000808573ffffffffffffffffffffffffffffffffffffffff1673ffffffffffffffffffffffffffffffffffffffff16815260200190815260200160002060000160009054906101000a90046dffffffffffffffffffffffffffff166dffffffffffffffffffffffffffff161015905092915050565b604051806060016040528060006dffffffffffffffffffffffffffff16815260200160006dffffffffffffffffffffffffffff168152602001600063ffffffff1681525090565b6000611ec6611ec1846130e1565b6130bc565b905082815260208101848484011115611ee257611ee1613723565b5b611eed848285613510565b509392505050565b600081359050611f04816139f5565b92915050565b600081359050611f1981613a0c565b92915050565b60008083601f840112611f3557611f346136f6565b5b8235905067ffffffffffffffff811115611f5257611f516136f1565b5b602083019150836020820283011115611f6e57611f6d613719565b5b9250929050565b60008083601f840112611f8b57611f8a6136f6565b5b8235905067ffffffffffffffff811115611fa857611fa76136f1565b5b602083019150836020820283011115611fc457611fc3613719565b5b9250929050565b600081359050611fda81613a23565b92915050565b600081519050611fef81613a23565b92915050565b600082601f83011261200a576120096136f6565b5b813561201a848260208601611eb3565b91505092915050565b6000610180828403121561203a57612039613700565b5b81905092915050565b6000610180828403121561205a57612059613705565b5b6120656101806130bc565b9050600061207584828501611ef5565b6000830152506020612089848285016121b9565b602083015250604082013567ffffffffffffffff8111156120ad576120ac613714565b5b6120b984828501611ff5565b604083015250606082013567ffffffffffffffff8111156120dd576120dc613714565b5b6120e984828501611ff5565b60608301525060806120fd848285016121e3565b60808301525060a0612111848285016121b9565b60a08301525060c0612125848285016121e3565b60c08301525060e0612139848285016121e3565b60e08301525061010061214e84828501611ef5565b6101008301525061012061216484828501611fcb565b6101208301525061014061217a84828501611ef5565b6101408301525061016082013567ffffffffffffffff8111156121a05761219f613714565b5b6121ac84828501611ff5565b6101608301525092915050565b6000813590506121c881613a3a565b92915050565b6000815190506121dd81613a3a565b92915050565b6000813590506121f281613a51565b92915050565b60006020828403121561220e5761220d613732565b5b600061221c84828501611ef5565b91505092915050565b60006020828403121561223b5761223a613732565b5b600061224984828501611f0a565b91505092915050565b6000806020838503121561226957612268613732565b5b600083013567ffffffffffffffff81111561228757612286613728565b5b61229385828601611f1f565b92509250509250929050565b6000806000604084860312156122b8576122b7613732565b5b600084013567ffffffffffffffff8111156122d6576122d5613728565b5b6122e286828701611f75565b935093505060206122f586828701611f0a565b9150509250925092565b60006020828403121561231557612314613732565b5b600061232384828501611fe0565b91505092915050565b60008060006060848603121561234557612344613732565b5b600084013567ffffffffffffffff81111561236357612362613728565b5b61236f86828701611ff5565b9350506020612380868287016121b9565b925050604061239186828701611ef5565b9150509250925092565b6000602082840312156123b1576123b0613732565b5b600082013567ffffffffffffffff8111156123cf576123ce613728565b5b6123db84828501612023565b91505092915050565b600080604083850312156123fb576123fa613732565b5b600083013567ffffffffffffffff81111561241957612418613728565b5b61242585828601612023565b925050602061243685828601611f0a565b9150509250929050565b6000806000806080858703121561245a57612459613732565b5b600085013567ffffffffffffffff81111561247857612477613728565b5b61248487828801612023565b945050602061249587828801611fcb565b93505060406124a6878288016121b9565b92505060606124b7878288016121b9565b91505092959194509250565b6000602082840312156124d9576124d8613732565b5b60006124e7848285016121ce565b91505092915050565b60006020828403121561250657612505613732565b5b6000612514848285016121e3565b91505092915050565b60006125298383612a9e565b60208301905092915050565b61253e81613491565b82525050565b61254d816133b0565b82525050565b61255c816133b0565b82525050565b61257361256e826133b0565b6135cc565b82525050565b600061258482613122565b61258e8185613150565b935061259983613112565b8060005b838110156125ca5781516125b1888261251d565b97506125bc83613143565b92505060018101905061259d565b5085935050505092915050565b6125e0816133d4565b82525050565b6125f76125f2826133e0565b6135de565b82525050565b6126068161340c565b82525050565b6126158161340c565b82525050565b61262c6126278261340c565b6135e8565b82525050565b600061263e8385613161565b935061264b838584613510565b61265483613737565b840190509392505050565b600061266b8385613183565b9350612678838584613510565b82840190509392505050565b600061268f8261312d565b6126998185613172565b93506126a981856020860161351f565b6126b281613737565b840191505092915050565b60006126c88261312d565b6126d28185613183565b93506126e281856020860161351f565b80840191505092915050565b6126f7816134a3565b82525050565b600061270882613138565b612712818561318e565b935061272281856020860161351f565b61272b81613737565b840191505092915050565b6000612743602c8361318e565b915061274e82613762565b604082019050919050565b6000612766600f8361318e565b9150612771826137b1565b602082019050919050565b600061278960158361318e565b9150612794826137da565b602082019050919050565b60006127ac60118361318e565b91506127b782613803565b602082019050919050565b60006127cf60248361318e565b91506127da8261382c565b604082019050919050565b60006127f260198361318e565b91506127fd8261387b565b602082019050919050565b6000612815601d8361318e565b9150612820826138a4565b602082019050919050565b6000612838601a8361318e565b9150612843826138cd565b602082019050919050565b600061285b600e8361318e565b9150612866826138f6565b602082019050919050565b600061287e60008361318e565b91506128898261391f565b600082019050919050565b60006128a160108361318e565b91506128ac82613922565b602082019050919050565b6060820160008201516128cd6000850182612a71565b5060208201516128e06020850182612a71565b5060408201516128f36040850182612ae2565b50505050565b6000610180830161290d600084018461319f565b61291a6000860182612544565b506129286020840184613230565b6129356020860182612a9e565b5061294360408401846131cd565b8583036040870152612956838284612632565b9250505061296760608401846131cd565b858303606087015261297a838284612632565b9250505061298b6080840184613247565b6129986080860182612b00565b506129a660a0840184613230565b6129b360a0860182612a9e565b506129c160c0840184613247565b6129ce60c0860182612b00565b506129dc60e0840184613247565b6129e960e0860182612b00565b506129f861010084018461319f565b612a06610100860182612544565b50612a156101208401846131b6565b612a236101208601826125fd565b50612a3261014084018461319f565b612a40610140860182612544565b50612a4f6101608401846131cd565b858303610160870152612a63838284612632565b925050508091505092915050565b612a7a81613429565b82525050565b612a8981613429565b82525050565b612a98816134c8565b82525050565b612aa781613463565b82525050565b612ab681613463565b82525050565b612acd612ac882613463565b613604565b82525050565b612adc816134fe565b82525050565b612aeb8161346d565b82525050565b612afa8161346d565b82525050565b612b098161347d565b82525050565b6000612b1b82876125e6565b600182019150612b2b8286612562565b601482019150612b3b8285612abc565b602082019150612b4b828461261b565b60208201915081905095945050505050565b6000612b6a82848661265f565b91508190509392505050565b6000612b8382858761265f565b9150612b8f8284612562565b601482019150819050949350505050565b6000612bac82856126bd565b9150612bb88284612562565b6014820191508190509392505050565b6000602082019050612bdd6000830184612553565b92915050565b6000604082019050612bf86000830185612535565b612c056020830184612aad565b9392505050565b6000606082019050612c216000830186612553565b612c2e6020830185612553565b8181036040830152612c408184612684565b9050949350505050565b60006020820190508181036000830152612c648184612579565b905092915050565b60006020820190508181036000830152612c868184612684565b905092915050565b6000608082019050612ca360008301876126ee565b8181036020830152612cb581866128f9565b9050612cc4604083018561260c565b612cd16060830184612aad565b95945050505050565b60006020820190508181036000830152612cf381612736565b9050919050565b60006020820190508181036000830152612d1381612759565b9050919050565b60006020820190508181036000830152612d338161277c565b9050919050565b60006020820190508181036000830152612d538161279f565b9050919050565b60006020820190508181036000830152612d73816127c2565b9050919050565b60006020820190508181036000830152612d938161282b565b9050919050565b60006020820190508181036000830152612db38161284e565b9050919050565b6000606082019050612dcf60008301846128b7565b92915050565b60006020820190508181036000830152612def81846128f9565b905092915050565b60006080820190508181036000830152612e1181876128f9565b9050612e20602083018661260c565b612e2d6040830185612aad565b612e3a6060830184612aad565b95945050505050565b6000602082019050612e586000830184612a8f565b92915050565b6000606082019050612e736000830186612a80565b612e806020830185612a80565b612e8d6040830184612af1565b949350505050565b6000602082019050612eaa6000830184612aad565b92915050565b6000606082019050612ec56000830186612aad565b612ed26020830185612553565b8181036040830152612ee481846126fd565b9050949350505050565b6000606082019050612f036000830185612aad565b612f106020830184612553565b8181036040830152612f21816127e5565b90509392505050565b6000606082019050612f3f6000830185612aad565b612f4c6020830184612553565b8181036040830152612f5d81612808565b90509392505050565b6000606082019050612f7b6000830185612aad565b612f886020830184612553565b8181036040830152612f9981612871565b90509392505050565b6000606082019050612fb76000830185612aad565b612fc46020830184612553565b8181036040830152612fd581612894565b90509392505050565b6000606082019050612ff36000830186612aad565b6130006020830185612aad565b61300d60408301846125d7565b949350505050565b600060208201905061302a6000830184612ad3565b92915050565b6000808335600160200384360303811261304d5761304c61370a565b5b80840192508235915067ffffffffffffffff82111561306f5761306e6136fb565b5b60208301925060018202360383131561308b5761308a61371e565b5b509250929050565b600082356001610180038336030381126130b0576130af61370a565b5b80830191505092915050565b60006130c66130d7565b90506130d28282613552565b919050565b6000604051905090565b600067ffffffffffffffff8211156130fc576130fb61369b565b5b61310582613737565b9050602081019050919050565b6000819050602082019050919050565b600081519050919050565b600081519050919050565b600081519050919050565b6000602082019050919050565b600082825260208201905092915050565b600082825260208201905092915050565b600082825260208201905092915050565b600081905092915050565b600082825260208201905092915050565b60006131ae6020840184611ef5565b905092915050565b60006131c56020840184611fcb565b905092915050565b600080833560016020038436030381126131ea576131e961372d565b5b83810192508235915060208301925067ffffffffffffffff821115613212576132116136ec565b5b6001820236038413156132285761322761370f565b5b509250929050565b600061323f60208401846121b9565b905092915050565b600061325660208401846121e3565b905092915050565b600061326982613463565b915061327483613463565b9250827fffffffffffffffffffffffffffffffffffffffffffffffffffffffffffffffff038211156132a9576132a861360e565b5b828201905092915050565b60006132bf8261346d565b91506132ca8361346d565b92508263ffffffff038211156132e3576132e261360e565b5b828201905092915050565b60006132f982613463565b915061330483613463565b9250817fffffffffffffffffffffffffffffffffffffffffffffffffffffffffffffffff048311821515161561333d5761333c61360e565b5b828202905092915050565b600061335382613429565b915061335e83613429565b9250828210156133715761337061360e565b5b828203905092915050565b600061338782613463565b915061339283613463565b9250828210156133a5576133a461360e565b5b828203905092915050565b60006133bb82613443565b9050919050565b60006133cd82613443565b9050919050565b60008115159050919050565b60007fff0000000000000000000000000000000000000000000000000000000000000082169050919050565b6000819050919050565b6000819050613424826139e1565b919050565b60006dffffffffffffffffffffffffffff82169050919050565b600073ffffffffffffffffffffffffffffffffffffffff82169050919050565b6000819050919050565b600063ffffffff82169050919050565b600067ffffffffffffffff82169050919050565b600061349c826134da565b9050919050565b60006134ae82613416565b9050919050565b60006134c13683612043565b9050919050565b60006134d382613429565b9050919050565b60006134e5826134ec565b9050919050565b60006134f782613443565b9050919050565b60006135098261346d565b9050919050565b82818337600083830152505050565b60005b8381101561353d578082015181840152602081019050613522565b8381111561354c576000848401525b50505050565b61355b82613737565b810181811067ffffffffffffffff8211171561357a5761357961369b565b5b80604052505050565b600061358e82613463565b91507fffffffffffffffffffffffffffffffffffffffffffffffffffffffffffffffff8214156135c1576135c061360e565b5b600182019050919050565b60006135d7826135f2565b9050919050565b6000819050919050565b6000819050919050565b60006135fd82613748565b9050919050565b6000819050919050565b7f4e487b7100000000000000000000000000000000000000000000000000000000600052601160045260246000fd5b7f4e487b7100000000000000000000000000000000000000000000000000000000600052602160045260246000fd5b7f4e487b7100000000000000000000000000000000000000000000000000000000600052603260045260246000fd5b7f4e487b7100000000000000000000000000000000000000000000000000000000600052604160045260246000fd5b600060033d11156136e95760046000803e6136e6600051613755565b90505b90565b600080fd5b600080fd5b600080fd5b600080fd5b600080fd5b600080fd5b600080fd5b600080fd5b600080fd5b600080fd5b600080fd5b600080fd5b600080fd5b600080fd5b600080fd5b6000601f19601f8301169050919050565b60008160601b9050919050565b60008160e01c9050919050565b7f6d7573742062652063616c6c6564206f66662d636861696e207769746820667260008201527f6f6d3d7a65726f2d616464720000000000000000000000000000000000000000602082015250565b7f616c72656164792070656e64696e670000000000000000000000000000000000600082015250565b7f5769746864726177616c206973206e6f74206475650000000000000000000000600082015250565b7f6e6f20756e6c6f636b6564207374616b65000000000000000000000000000000600082015250565b7f74617267657420646f65736e2774206d6174636820637265617465322061646460008201527f7265737300000000000000000000000000000000000000000000000000000000602082015250565b7f77616c6c6574206469646e2774207061792070726566756e6400000000000000600082015250565b7f686173207061796d6173746572206275742077616c6c65742070616964000000600082015250565b7f61637475616c207072696f7269747946656520746f6f206c6f77000000000000600082015250565b7f63726561746532206661696c6564000000000000000000000000000000000000600082015250565b50565b7f6e6f7420656e6f756768207374616b6500000000000000000000000000000000600082015250565b600060443d101561395b576139de565b6139636130d7565b60043d036004823e80513d602482011167ffffffffffffffff8211171561398b5750506139de565b808201805167ffffffffffffffff8111156139a957505050506139de565b80602083010160043d0385018111156139c65750505050506139de565b6139d582602001850186613552565b82955050505050505b90565b600381106139f2576139f161363d565b5b50565b6139fe816133b0565b8114613a0957600080fd5b50565b613a15816133c2565b8114613a2057600080fd5b50565b613a2c8161340c565b8114613a3757600080fd5b50565b613a4381613463565b8114613a4e57600080fd5b50565b613a5a8161347d565b8114613a6557600080fd5b5056fea2646970667358221220efdc351c3517f3374c90d6016a4fb23d8ea9f87be0c06eaa81e747ae16c11fdb64736f6c63430008070033",
  "linkReferences": {},
  "deployedLinkReferences": {}
}