{
  "_format": "hh-sol-artifact-1",
  "contractName": "Singleton",
  "sourceName": "contracts/Singleton.sol",
  "abi": [
    {
      "anonymous": false,
      "inputs": [
        {
          "indexed": false,
          "internalType": "address",
          "name": "paymaster",
          "type": "address"
        },
        {
          "indexed": false,
          "internalType": "address",
          "name": "target",
          "type": "address"
        },
        {
          "indexed": false,
          "internalType": "bytes",
          "name": "reason",
          "type": "bytes"
        }
      ],
      "name": "PaymasterPostOpFailed",
      "type": "event"
    },
    {
      "anonymous": false,
      "inputs": [
        {
          "indexed": true,
          "internalType": "address",
          "name": "paymaster",
          "type": "address"
        },
        {
          "indexed": false,
          "internalType": "uint256",
          "name": "totalStake",
          "type": "uint256"
        }
      ],
      "name": "StakeAdded",
      "type": "event"
    },
    {
      "anonymous": false,
      "inputs": [
        {
          "indexed": true,
          "internalType": "address",
          "name": "paymaster",
          "type": "address"
        },
        {
          "indexed": false,
          "internalType": "uint256",
          "name": "withdrawBlock",
          "type": "uint256"
        }
      ],
      "name": "StakeUnlocking",
      "type": "event"
    },
    {
      "anonymous": false,
      "inputs": [
        {
          "indexed": true,
          "internalType": "address",
          "name": "paymaser",
          "type": "address"
        },
        {
          "indexed": false,
          "internalType": "address",
          "name": "withdrawAddress",
          "type": "address"
        },
        {
          "indexed": false,
          "internalType": "uint256",
          "name": "amount",
          "type": "uint256"
        }
      ],
      "name": "StakeWithdrawn",
      "type": "event"
    },
    {
      "anonymous": false,
      "inputs": [
        {
          "indexed": true,
          "internalType": "address",
          "name": "account",
          "type": "address"
        },
        {
          "indexed": true,
          "internalType": "address",
          "name": "paymaster",
          "type": "address"
        },
        {
          "indexed": false,
          "internalType": "uint256",
          "name": "actualGasCost",
          "type": "uint256"
        },
        {
          "indexed": false,
          "internalType": "uint256",
          "name": "actualGasPrice",
          "type": "uint256"
        },
        {
          "indexed": false,
          "internalType": "bool",
          "name": "success",
          "type": "bool"
        }
      ],
      "name": "UserOperationEvent",
      "type": "event"
    },
    {
      "anonymous": false,
      "inputs": [
        {
          "indexed": false,
          "internalType": "bytes",
          "name": "revertReason",
          "type": "bytes"
        }
      ],
      "name": "UserOperationRevertReason",
      "type": "event"
    },
    {
      "inputs": [],
      "name": "addStake",
      "outputs": [],
      "stateMutability": "payable",
      "type": "function"
    },
    {
      "inputs": [
        {
          "internalType": "bytes",
          "name": "bytecode",
          "type": "bytes"
        },
        {
          "internalType": "uint256",
          "name": "_salt",
          "type": "uint256"
        },
        {
          "internalType": "address",
          "name": "signer",
          "type": "address"
        }
      ],
      "name": "getAccountAddress",
      "outputs": [
        {
          "internalType": "address",
          "name": "",
          "type": "address"
        }
      ],
      "stateMutability": "view",
      "type": "function"
    },
    {
      "inputs": [
        {
          "internalType": "address[]",
          "name": "paymasters",
          "type": "address[]"
        }
      ],
      "name": "getPaymastersStake",
      "outputs": [
        {
          "internalType": "uint256[]",
          "name": "_stakes",
          "type": "uint256[]"
        }
      ],
      "stateMutability": "view",
      "type": "function"
    },
    {
      "inputs": [
        {
          "internalType": "address",
          "name": "paymaster",
          "type": "address"
        }
      ],
      "name": "getStakeInfo",
      "outputs": [
        {
          "components": [
            {
              "internalType": "uint112",
              "name": "stake",
              "type": "uint112"
            },
            {
              "internalType": "uint112",
              "name": "withdrawStake",
              "type": "uint112"
            },
            {
              "internalType": "uint32",
              "name": "withdrawBlock",
              "type": "uint32"
            }
          ],
          "internalType": "struct StakeManager.StakeInfo",
          "name": "stakeInfo",
          "type": "tuple"
        }
      ],
      "stateMutability": "view",
      "type": "function"
    },
    {
      "inputs": [
        {
          "components": [
            {
              "internalType": "address",
              "name": "target",
              "type": "address"
            },
            {
              "internalType": "uint256",
              "name": "nonce",
              "type": "uint256"
            },
            {
              "internalType": "bytes",
              "name": "initCode",
              "type": "bytes"
            },
            {
              "internalType": "bytes",
              "name": "callData",
              "type": "bytes"
            },
            {
              "internalType": "uint256",
              "name": "callGas",
              "type": "uint256"
            },
            {
              "internalType": "uint256",
              "name": "verificationGas",
              "type": "uint256"
            },
            {
              "internalType": "uint256",
              "name": "maxFeePerGas",
              "type": "uint256"
            },
            {
              "internalType": "uint256",
              "name": "maxPriorityFeePerGas",
              "type": "uint256"
            },
            {
              "internalType": "address",
              "name": "paymaster",
              "type": "address"
            },
            {
              "internalType": "bytes",
              "name": "paymasterData",
              "type": "bytes"
            },
            {
              "internalType": "address",
              "name": "signer",
              "type": "address"
            },
            {
              "internalType": "bytes",
              "name": "signature",
              "type": "bytes"
            }
          ],
          "internalType": "struct UserOperation",
          "name": "op",
          "type": "tuple"
        },
        {
          "internalType": "address payable",
          "name": "redeemer",
          "type": "address"
        }
      ],
      "name": "handleOp",
      "outputs": [],
      "stateMutability": "nonpayable",
      "type": "function"
    },
    {
      "inputs": [
        {
          "components": [
            {
              "internalType": "address",
              "name": "target",
              "type": "address"
            },
            {
              "internalType": "uint256",
              "name": "nonce",
              "type": "uint256"
            },
            {
              "internalType": "bytes",
              "name": "initCode",
              "type": "bytes"
            },
            {
              "internalType": "bytes",
              "name": "callData",
              "type": "bytes"
            },
            {
              "internalType": "uint256",
              "name": "callGas",
              "type": "uint256"
            },
            {
              "internalType": "uint256",
              "name": "verificationGas",
              "type": "uint256"
            },
            {
              "internalType": "uint256",
              "name": "maxFeePerGas",
              "type": "uint256"
            },
            {
              "internalType": "uint256",
              "name": "maxPriorityFeePerGas",
              "type": "uint256"
            },
            {
              "internalType": "address",
              "name": "paymaster",
              "type": "address"
            },
            {
              "internalType": "bytes",
              "name": "paymasterData",
              "type": "bytes"
            },
            {
              "internalType": "address",
              "name": "signer",
              "type": "address"
            },
            {
              "internalType": "bytes",
              "name": "signature",
              "type": "bytes"
            }
          ],
          "internalType": "struct UserOperation[]",
          "name": "ops",
          "type": "tuple[]"
        },
        {
          "internalType": "address payable",
          "name": "redeemer",
          "type": "address"
        }
      ],
      "name": "handleOps",
      "outputs": [],
      "stateMutability": "nonpayable",
      "type": "function"
    },
    {
      "inputs": [
        {
          "components": [
            {
              "internalType": "address",
              "name": "target",
              "type": "address"
            },
            {
              "internalType": "uint256",
              "name": "nonce",
              "type": "uint256"
            },
            {
              "internalType": "bytes",
              "name": "initCode",
              "type": "bytes"
            },
            {
              "internalType": "bytes",
              "name": "callData",
              "type": "bytes"
            },
            {
              "internalType": "uint256",
              "name": "callGas",
              "type": "uint256"
            },
            {
              "internalType": "uint256",
              "name": "verificationGas",
              "type": "uint256"
            },
            {
              "internalType": "uint256",
              "name": "maxFeePerGas",
              "type": "uint256"
            },
            {
              "internalType": "uint256",
              "name": "maxPriorityFeePerGas",
              "type": "uint256"
            },
            {
              "internalType": "address",
              "name": "paymaster",
              "type": "address"
            },
            {
              "internalType": "bytes",
              "name": "paymasterData",
              "type": "bytes"
            },
            {
              "internalType": "address",
              "name": "signer",
              "type": "address"
            },
            {
              "internalType": "bytes",
              "name": "signature",
              "type": "bytes"
            }
          ],
          "internalType": "struct UserOperation",
          "name": "op",
          "type": "tuple"
        },
        {
          "internalType": "bytes",
          "name": "context",
          "type": "bytes"
        },
        {
          "internalType": "uint256",
          "name": "preOpGas",
          "type": "uint256"
        },
        {
          "internalType": "uint256",
          "name": "prefund",
          "type": "uint256"
        }
      ],
      "name": "internalHandleOp",
      "outputs": [
        {
          "internalType": "uint256",
          "name": "valueFromPaymaster",
          "type": "uint256"
        }
      ],
      "stateMutability": "nonpayable",
      "type": "function"
    },
    {
      "inputs": [
        {
          "components": [
            {
              "internalType": "address",
              "name": "target",
              "type": "address"
            },
            {
              "internalType": "uint256",
              "name": "nonce",
              "type": "uint256"
            },
            {
              "internalType": "bytes",
              "name": "initCode",
              "type": "bytes"
            },
            {
              "internalType": "bytes",
              "name": "callData",
              "type": "bytes"
            },
            {
              "internalType": "uint256",
              "name": "callGas",
              "type": "uint256"
            },
            {
              "internalType": "uint256",
              "name": "verificationGas",
              "type": "uint256"
            },
            {
              "internalType": "uint256",
              "name": "maxFeePerGas",
              "type": "uint256"
            },
            {
              "internalType": "uint256",
              "name": "maxPriorityFeePerGas",
              "type": "uint256"
            },
            {
              "internalType": "address",
              "name": "paymaster",
              "type": "address"
            },
            {
              "internalType": "bytes",
              "name": "paymasterData",
              "type": "bytes"
            },
            {
              "internalType": "address",
              "name": "signer",
              "type": "address"
            },
            {
              "internalType": "bytes",
              "name": "signature",
              "type": "bytes"
            }
          ],
          "internalType": "struct UserOperation",
          "name": "userOp",
          "type": "tuple"
        },
        {
          "internalType": "uint256",
          "name": "gasUsedByPayForSelfOp",
          "type": "uint256"
        }
      ],
      "name": "simulatePaymasterValidation",
      "outputs": [
        {
          "internalType": "bytes",
          "name": "context",
          "type": "bytes"
        }
      ],
      "stateMutability": "view",
      "type": "function"
    },
    {
      "inputs": [
        {
          "components": [
            {
              "internalType": "address",
              "name": "target",
              "type": "address"
            },
            {
              "internalType": "uint256",
              "name": "nonce",
              "type": "uint256"
            },
            {
              "internalType": "bytes",
              "name": "initCode",
              "type": "bytes"
            },
            {
              "internalType": "bytes",
              "name": "callData",
              "type": "bytes"
            },
            {
              "internalType": "uint256",
              "name": "callGas",
              "type": "uint256"
            },
            {
              "internalType": "uint256",
              "name": "verificationGas",
              "type": "uint256"
            },
            {
              "internalType": "uint256",
              "name": "maxFeePerGas",
              "type": "uint256"
            },
            {
              "internalType": "uint256",
              "name": "maxPriorityFeePerGas",
              "type": "uint256"
            },
            {
              "internalType": "address",
              "name": "paymaster",
              "type": "address"
            },
            {
              "internalType": "bytes",
              "name": "paymasterData",
              "type": "bytes"
            },
            {
              "internalType": "address",
              "name": "signer",
              "type": "address"
            },
            {
              "internalType": "bytes",
              "name": "signature",
              "type": "bytes"
            }
          ],
          "internalType": "struct UserOperation",
          "name": "userOp",
          "type": "tuple"
        }
      ],
      "name": "simulateWalletValidation",
      "outputs": [
        {
          "internalType": "uint256",
          "name": "gasUsedByPayForSelfOp",
          "type": "uint256"
        }
      ],
      "stateMutability": "nonpayable",
      "type": "function"
    },
    {
      "inputs": [
        {
          "internalType": "address",
          "name": "",
          "type": "address"
        }
      ],
      "name": "stakes",
      "outputs": [
        {
          "internalType": "uint112",
          "name": "stake",
          "type": "uint112"
        },
        {
          "internalType": "uint112",
          "name": "withdrawStake",
          "type": "uint112"
        },
        {
          "internalType": "uint32",
          "name": "withdrawBlock",
          "type": "uint32"
        }
      ],
      "stateMutability": "view",
      "type": "function"
    },
    {
      "inputs": [
        {
          "internalType": "address",
          "name": "paymaster",
          "type": "address"
        }
      ],
      "name": "unlockStake",
      "outputs": [],
      "stateMutability": "nonpayable",
      "type": "function"
    },
    {
      "inputs": [
        {
          "internalType": "address payable",
          "name": "withdrawAddress",
          "type": "address"
        }
      ],
      "name": "withdrawStake",
      "outputs": [],
      "stateMutability": "nonpayable",
      "type": "function"
    },
    {
      "stateMutability": "payable",
      "type": "receive"
    }
  ],
  "bytecode": "0x608060405234801561001057600080fd5b50613b6d806100206000396000f3fe6080604052600436106100ab5760003560e01c8063739b895011610064578063739b8950146101cc5780639984521814610209578063c23a5cea14610232578063c34531531461025b578063d71d622014610298578063ec7d10a8146102d5576100b2565b8063062f8ebd146100b757806311cd0b68146100f457806316934fc41461011d57806334881e3d1461015c5780634a1ce599146101995780635a627dbc146101c2576100b2565b366100b257005b600080fd5b3480156100c357600080fd5b506100de60048036038101906100d9919061265c565b610312565b6040516100eb9190612ded565b60405180910390f35b34801561010057600080fd5b5061011b6004803603810190610116919061255c565b61036e565b005b34801561012957600080fd5b50610144600480360381019061013f9190612354565b6104cf565b60405161015393929190612fc6565b60405180910390f35b34801561016857600080fd5b50610183600480360381019061017e91906124a4565b61053d565b6040516101909190612d49565b60405180910390f35b3480156101a557600080fd5b506101c060048036038101906101bb9190612354565b6105a9565b005b6101ca61075d565b005b3480156101d857600080fd5b506101f360048036038101906101ee91906123ae565b6109c9565b6040516102009190612dcb565b60405180910390f35b34801561021557600080fd5b50610230600480360381019061022b91906123fb565b610af3565b005b34801561023e57600080fd5b5061025960048036038101906102549190612381565b610edb565b005b34801561026757600080fd5b50610282600480360381019061027d9190612354565b6110f2565b60405161028f9190612f0d565b60405180910390f35b3480156102a457600080fd5b506102bf60048036038101906102ba91906125b8565b6111f8565b6040516102cc9190612ffd565b60405180910390f35b3480156102e157600080fd5b506102fc60048036038101906102f79190612513565b6113aa565b6040516103099190612ffd565b60405180910390f35b606061032683610321906135db565b61146b565b61034157604051806020016040528060008152509050610368565b600061035584610350906135db565b6114a9565b905061036460008583866114ca565b9150505b92915050565b600047905060005a90506000806103866000876116bc565b9150915060005a8461039891906134b6565b905060003073ffffffffffffffffffffffffffffffffffffffff1663d71d6220898585886040518563ffffffff1660e01b81526004016103db9493929190612f28565b602060405180830381600087803b1580156103f557600080fd5b505af192505050801561042657506040513d601f19601f8201168201806040525081019061042391906126b8565b60015b61045d576000825a8761043991906134b6565b6104439190613398565b905061045560028a868489600061173c565b915050610462565b809150505b600081874761047191906134b6565b61047b9190613398565b90508773ffffffffffffffffffffffffffffffffffffffff166108fc829081150290604051600060405180830381858888f193505050501580156104c3573d6000803e3d6000fd5b50505050505050505050565b60006020528060005260406000206000915090508060000160009054906101000a90046dffffffffffffffffffffffffffff169080600001600e9054906101000a90046dffffffffffffffffffffffffffff169080600001601c9054906101000a900463ffffffff16905083565b60008060ff60f81b3085878660405160200161055a929190612d21565b604051602081830303815290604052805190602001206040516020016105839493929190612c90565b6040516020818303038152906040528051906020012090508060001c9150509392505050565b60008060008373ffffffffffffffffffffffffffffffffffffffff1673ffffffffffffffffffffffffffffffffffffffff1681526020019081526020016000209050600081600001601c9054906101000a900463ffffffff1663ffffffff1614610648576040517f08c379a000000000000000000000000000000000000000000000000000000000815260040161063f90612e6d565b60405180910390fd5b600061012c4361065891906133ee565b90508082600001601c6101000a81548163ffffffff021916908363ffffffff1602179055508160000160009054906101000a90046dffffffffffffffffffffffffffff1682600001600e6101000a8154816dffffffffffffffffffffffffffff02191690836dffffffffffffffffffffffffffff16021790555060008260000160006101000a8154816dffffffffffffffffffffffffffff02191690836dffffffffffffffffffffffffffff1602179055503373ffffffffffffffffffffffffffffffffffffffff167fab3a43860ac8cdb29929ba1a1f556b4decf9617f4811c190010e1672e55839b182604051610750919061317d565b60405180910390a2505050565b6000803373ffffffffffffffffffffffffffffffffffffffff1673ffffffffffffffffffffffffffffffffffffffff168152602001908152602001600020600001600e9054906101000a90046dffffffffffffffffffffffffffff166dffffffffffffffffffffffffffff16346000803373ffffffffffffffffffffffffffffffffffffffff1673ffffffffffffffffffffffffffffffffffffffff16815260200190815260200160002060000160009054906101000a90046dffffffffffffffffffffffffffff166dffffffffffffffffffffffffffff166108409190613398565b61084a9190613398565b6000803373ffffffffffffffffffffffffffffffffffffffff1673ffffffffffffffffffffffffffffffffffffffff16815260200190815260200160002060000160006101000a8154816dffffffffffffffffffffffffffff02191690836dffffffffffffffffffffffffffff16021790555060008060003373ffffffffffffffffffffffffffffffffffffffff1673ffffffffffffffffffffffffffffffffffffffff168152602001908152602001600020600001601c6101000a81548163ffffffff021916908363ffffffff1602179055503373ffffffffffffffffffffffffffffffffffffffff167f7c717985ac273e663b7f3050f5b15a4388ff6ed952338954f650e2093e13937f6000803373ffffffffffffffffffffffffffffffffffffffff1673ffffffffffffffffffffffffffffffffffffffff16815260200190815260200160002060000160009054906101000a90046dffffffffffffffffffffffffffff166040516109bf9190612fab565b60405180910390a2565b60608282905067ffffffffffffffff8111156109e8576109e76137c1565b5b604051908082528060200260200182016040528015610a165781602001602082028036833780820191505090505b50905060005b83839050811015610aec57600080858584818110610a3d57610a3c613792565b5b9050602002016020810190610a529190612354565b73ffffffffffffffffffffffffffffffffffffffff1673ffffffffffffffffffffffffffffffffffffffff16815260200190815260200160002060000160009054906101000a90046dffffffffffffffffffffffffffff166dffffffffffffffffffffffffffff16828281518110610acd57610acc613792565b5b6020026020010181815250508080610ae4906136a9565b915050610a1c565b5092915050565b6000479050600084849050905060008167ffffffffffffffff811115610b1c57610b1b6137c1565b5b604051908082528060200260200182016040528015610b4a5781602001602082028036833780820191505090505b50905060008267ffffffffffffffff811115610b6957610b686137c1565b5b604051908082528060200260200182016040528015610b975781602001602082028036833780820191505090505b50905060008367ffffffffffffffff811115610bb657610bb56137c1565b5b604051908082528060200260200182016040528015610be45781602001602082028036833780820191505090505b50905060005b84811015610cb55736898983818110610c0657610c05613792565b5b9050602002810190610c1891906131fb565b905060005a905060606000610c2d85856116bc565b878781518110610c4057610c3f613792565b5b6020026020010181945082815250505081905080878681518110610c6757610c66613792565b5b6020026020010181815250505a83610c7f91906134b6565b888681518110610c9257610c91613792565b5b602002602001018181525050505050508080610cad906136a9565b915050610bea565b506000805b89899050811015610e6c5760005a9050368b8b84818110610cde57610cdd613792565b5b9050602002810190610cf091906131fb565b90506000868481518110610d0757610d06613792565b5b60200260200101519050606081905060003073ffffffffffffffffffffffffffffffffffffffff1663d71d622085848d8a81518110610d4957610d48613792565b5b60200260200101518c8b81518110610d6457610d63613792565b5b60200260200101516040518563ffffffff1660e01b8152600401610d8b9493929190612f28565b602060405180830381600087803b158015610da557600080fd5b505af1925050508015610dd657506040513d601f19601f82011682018060405250810190610dd391906126b8565b60015b610e415760008a8781518110610def57610dee613792565b5b60200260200101515a87610e0391906134b6565b610e0d9190613398565b9050610e3960028685848d8c81518110610e2a57610e29613792565b5b6020026020010151600061173c565b915050610e46565b809150505b8087610e529190613398565b965050505050508080610e64906136a9565b915050610cba565b506000818747610e7c91906134b6565b610e869190613398565b90508773ffffffffffffffffffffffffffffffffffffffff166108fc829081150290604051600060405180830381858888f19350505050158015610ece573d6000803e3d6000fd5b5050505050505050505050565b60008060003373ffffffffffffffffffffffffffffffffffffffff1673ffffffffffffffffffffffffffffffffffffffff1681526020019081526020016000209050600081600001600e9054906101000a90046dffffffffffffffffffffffffffff166dffffffffffffffffffffffffffff1611610f8e576040517f08c379a0000000000000000000000000000000000000000000000000000000008152600401610f8590612ead565b60405180910390fd5b4381600001601c9054906101000a900463ffffffff1663ffffffff161115610feb576040517f08c379a0000000000000000000000000000000000000000000000000000000008152600401610fe290612e8d565b60405180910390fd5b600081600001600e9054906101000a90046dffffffffffffffffffffffffffff166dffffffffffffffffffffffffffff169050600082600001600e6101000a8154816dffffffffffffffffffffffffffff02191690836dffffffffffffffffffffffffffff1602179055508273ffffffffffffffffffffffffffffffffffffffff166108fc829081150290604051600060405180830381858888f1935050505015801561109c573d6000803e3d6000fd5b503373ffffffffffffffffffffffffffffffffffffffff167fb7c918e0e249f999e965cafeb6c664271b3f4317d296461500e71da39f0cbda384836040516110e5929190612d64565b60405180910390a2505050565b6110fa611f25565b6000808373ffffffffffffffffffffffffffffffffffffffff1673ffffffffffffffffffffffffffffffffffffffff1681526020019081526020016000206040518060600160405290816000820160009054906101000a90046dffffffffffffffffffffffffffff166dffffffffffffffffffffffffffff166dffffffffffffffffffffffffffff16815260200160008201600e9054906101000a90046dffffffffffffffffffffffffffff166dffffffffffffffffffffffffffff166dffffffffffffffffffffffffffff16815260200160008201601c9054906101000a900463ffffffff1663ffffffff1663ffffffff16815250509050919050565b60003073ffffffffffffffffffffffffffffffffffffffff163373ffffffffffffffffffffffffffffffffffffffff161461123257600080fd5b60005a905060008088600001602081019061124d9190612354565b73ffffffffffffffffffffffffffffffffffffffff1689608001358a80606001906112789190613198565b604051611286929190612cde565b60006040518083038160008787f1925050503d80600081146112c4576040519150601f19603f3d011682016040523d82523d6000602084013e6112c9565b606091505b5091509150811580156112dd575060008151115b1561131a577f4744f445624b2fc392c793c67e1668a611f72a9cb69867656f9915f2463d69b6816040516113119190612ded565b60405180910390a15b60008261132857600161132b565b60005b90506000875a8661133c91906134b6565b6113469190613398565b905061139a828c8c8c8080601f016020809104026020016040519081016040528093929190818152602001838380828437600081840152601f19601f82011690508083019250505050505050848b8961173c565b9550505050505095945050505050565b60008073ffffffffffffffffffffffffffffffffffffffff163373ffffffffffffffffffffffffffffffffffffffff161461141a576040517f08c379a000000000000000000000000000000000000000000000000000000000815260040161141190612e4d565b60405180910390fd5b600061142e83611429906135db565b6114a9565b905060006114448461143f906135db565b61146b565b61144e5781611451565b60005b905061145f60008583611a6a565b50809350505050919050565b60008073ffffffffffffffffffffffffffffffffffffffff1682610100015173ffffffffffffffffffffffffffffffffffffffff1614159050919050565b60008160c001516114b983611c66565b6114c39190613428565b9050919050565b60606114d68484611cba565b61152b5784846101000160208101906114ef9190612354565b6040517efa072b00000000000000000000000000000000000000000000000000000000815260040161152292919061310a565b60405180910390fd5b6000828560a0013561153d91906134b6565b9050846101000160208101906115539190612354565b73ffffffffffffffffffffffffffffffffffffffff1663df3e98178287876040518463ffffffff1660e01b815260040161158e929190612f7b565b60006040518083038187803b1580156115a657600080fd5b5086fa935050505080156115dd57506040513d6000823e3d601f19601f820116820180604052508101906115da919061245b565b60015b6116af576115e96137f0565b806308c379a0141561165c57506115fe613a48565b80611609575061165e565b868661010001602081019061161e9190612354565b826040517efa072b00000000000000000000000000000000000000000000000000000000815260040161165393929190613018565b60405180910390fd5b505b85856101000160208101906116739190612354565b6040517efa072b0000000000000000000000000000000000000000000000000000000081526004016116a69291906130ce565b60405180910390fd5b8092505050949350505050565b600060606116c983611cf4565b60006116dd846116d8906135db565b61146b565b905060006116f3856116ee906135db565b6114a9565b90506000826117025781611705565b60005b90506000611714888884611a6a565b809250819750505083156117315761172e888885846114ca565b94505b505050509250929050565b60008061174887611e64565b905060005a90506000828761175d9190613428565b90506117718961176c906135db565b61146b565b6117d557600089600001602081019061178a9190612354565b73ffffffffffffffffffffffffffffffffffffffff166108fc83896117af91906134b6565b9081150290604051600060405180830381858888f19350505050905060009450506119cf565b6000885111156118f857886101000160208101906117f39190612354565b73ffffffffffffffffffffffffffffffffffffffff1663a9a234098b8a846040518463ffffffff1660e01b815260040161182f93929190612e0f565b600060405180830381600087803b15801561184957600080fd5b505af192505050801561185a575060015b6118f6573d806000811461188a576040519150601f19603f3d011682016040523d82523d6000602084013e61188f565b606091505b507f5f6032b8e84e218db7c512ea2e55828c412cfcba5d42b23d21b42f7e7210b8648a6101000160208101906118c59190612354565b8b60000160208101906118d89190612354565b836040516118e893929190612d8d565b60405180910390a1506118f7565b5b5b825a8361190591906134b6565b61190f9190613428565b8161191a9190613398565b9050806000808b6101000160208101906119349190612354565b73ffffffffffffffffffffffffffffffffffffffff1673ffffffffffffffffffffffffffffffffffffffff16815260200190815260200160002060000160008282829054906101000a90046dffffffffffffffffffffffffffff166119999190613482565b92506101000a8154816dffffffffffffffffffffffffffff02191690836dffffffffffffffffffffffffffff1602179055508093505b886101000160208101906119e39190612354565b73ffffffffffffffffffffffffffffffffffffffff16896000016020810190611a0c9190612354565b73ffffffffffffffffffffffffffffffffffffffff167f87ff8671dda0b81e2f2bec38f9ee39fa8b7c73fa15723e01ea0e39a385981e8f838689604051611a5593929190613146565b60405180910390a35050509695505050505050565b60008060005a90506000479050856000016020810190611a8a9190612354565b73ffffffffffffffffffffffffffffffffffffffff16633a0d58d18760a0013588886040518463ffffffff1660e01b8152600401611ac9929190612f7b565b600060405180830381600088803b158015611ae357600080fd5b5087f193505050508015611af5575060015b611ba357611b016137f0565b806308c379a01415611b625750611b16613a48565b80611b215750611b64565b876000826040517efa072b000000000000000000000000000000000000000000000000000000008152600401611b5993929190613018565b60405180910390fd5b505b8660006040517efa072b000000000000000000000000000000000000000000000000000000008152600401611b9a9291906130ce565b60405180910390fd5b8047611baf91906134b6565b93506000851115611c065784841015611c01578660006040517efa072b000000000000000000000000000000000000000000000000000000008152600401611bf8929190613056565b60405180910390fd5b611c4e565b60008414611c4d578660006040517efa072b000000000000000000000000000000000000000000000000000000008152600401611c44929190613092565b60405180910390fd5b5b5a82611c5a91906134b6565b92505050935093915050565b6000808260800151905060008360400151511115611cb157600083606001515160c8611c929190613428565b617d00611c9f9190613398565b90508082611cad9190613398565b9150505b80915050919050565b6000611cec83610100016020810190611cd39190612354565b83670de0b6b3a7640000611ce79190613398565b611e93565b905092915050565b6000818060400190611d069190613198565b905014611e61576000818060400190611d1f9190613198565b83610140016020810190611d339190612354565b604051602001611d4593929190612cf7565b60405160208183030381529060405290506000826020013590506000818351602085016000f59050600073ffffffffffffffffffffffffffffffffffffffff168173ffffffffffffffffffffffffffffffffffffffff161415611ddd576040517f08c379a0000000000000000000000000000000000000000000000000000000008152600401611dd490612eed565b60405180910390fd5b836000016020810190611df09190612354565b73ffffffffffffffffffffffffffffffffffffffff168173ffffffffffffffffffffffffffffffffffffffff1614611e5d576040517f08c379a0000000000000000000000000000000000000000000000000000000008152600401611e5490612ecd565b60405180910390fd5b5050505b50565b6000611e8c8260c00135611e87488560e00135611e819190613398565b3a611f0c565b611f0c565b9050919050565b6000816000808573ffffffffffffffffffffffffffffffffffffffff1673ffffffffffffffffffffffffffffffffffffffff16815260200190815260200160002060000160009054906101000a90046dffffffffffffffffffffffffffff166dffffffffffffffffffffffffffff161015905092915050565b6000818310611f1b5781611f1d565b825b905092915050565b604051806060016040528060006dffffffffffffffffffffffffffff16815260200160006dffffffffffffffffffffffffffff168152602001600063ffffffff1681525090565b6000611f7f611f7a84613249565b613224565b905082815260208101848484011115611f9b57611f9a613849565b5b611fa6848285613636565b509392505050565b6000611fc1611fbc84613249565b613224565b905082815260208101848484011115611fdd57611fdc613849565b5b611fe8848285613645565b509392505050565b600081359050611fff81613af2565b92915050565b60008135905061201481613b09565b92915050565b60008083601f8401126120305761202f61381c565b5b8235905067ffffffffffffffff81111561204d5761204c613817565b5b6020830191508360208202830111156120695761206861383f565b5b9250929050565b60008083601f8401126120865761208561381c565b5b8235905067ffffffffffffffff8111156120a3576120a2613817565b5b6020830191508360208202830111156120bf576120be61383f565b5b9250929050565b60008083601f8401126120dc576120db61381c565b5b8235905067ffffffffffffffff8111156120f9576120f8613817565b5b6020830191508360018202830111156121155761211461383f565b5b9250929050565b600082601f8301126121315761213061381c565b5b8135612141848260208601611f6c565b91505092915050565b600082601f83011261215f5761215e61381c565b5b815161216f848260208601611fae565b91505092915050565b6000610180828403121561218f5761218e613826565b5b81905092915050565b600061018082840312156121af576121ae61382b565b5b6121ba610180613224565b905060006121ca84828501611ff0565b60008301525060206121de8482850161232a565b602083015250604082013567ffffffffffffffff8111156122025761220161383a565b5b61220e8482850161211c565b604083015250606082013567ffffffffffffffff8111156122325761223161383a565b5b61223e8482850161211c565b60608301525060806122528482850161232a565b60808301525060a06122668482850161232a565b60a08301525060c061227a8482850161232a565b60c08301525060e061228e8482850161232a565b60e0830152506101006122a384828501611ff0565b6101008301525061012082013567ffffffffffffffff8111156122c9576122c861383a565b5b6122d58482850161211c565b610120830152506101406122eb84828501611ff0565b6101408301525061016082013567ffffffffffffffff8111156123115761231061383a565b5b61231d8482850161211c565b6101608301525092915050565b60008135905061233981613b20565b92915050565b60008151905061234e81613b20565b92915050565b60006020828403121561236a57612369613858565b5b600061237884828501611ff0565b91505092915050565b60006020828403121561239757612396613858565b5b60006123a584828501612005565b91505092915050565b600080602083850312156123c5576123c4613858565b5b600083013567ffffffffffffffff8111156123e3576123e261384e565b5b6123ef8582860161201a565b92509250509250929050565b60008060006040848603121561241457612413613858565b5b600084013567ffffffffffffffff8111156124325761243161384e565b5b61243e86828701612070565b9350935050602061245186828701612005565b9150509250925092565b60006020828403121561247157612470613858565b5b600082015167ffffffffffffffff81111561248f5761248e61384e565b5b61249b8482850161214a565b91505092915050565b6000806000606084860312156124bd576124bc613858565b5b600084013567ffffffffffffffff8111156124db576124da61384e565b5b6124e78682870161211c565b93505060206124f88682870161232a565b925050604061250986828701611ff0565b9150509250925092565b60006020828403121561252957612528613858565b5b600082013567ffffffffffffffff8111156125475761254661384e565b5b61255384828501612178565b91505092915050565b6000806040838503121561257357612572613858565b5b600083013567ffffffffffffffff8111156125915761259061384e565b5b61259d85828601612178565b92505060206125ae85828601612005565b9150509250929050565b6000806000806000608086880312156125d4576125d3613858565b5b600086013567ffffffffffffffff8111156125f2576125f161384e565b5b6125fe88828901612178565b955050602086013567ffffffffffffffff81111561261f5761261e61384e565b5b61262b888289016120c6565b9450945050604061263e8882890161232a565b925050606061264f8882890161232a565b9150509295509295909350565b6000806040838503121561267357612672613858565b5b600083013567ffffffffffffffff8111156126915761269061384e565b5b61269d85828601612178565b92505060206126ae8582860161232a565b9150509250929050565b6000602082840312156126ce576126cd613858565b5b60006126dc8482850161233f565b91505092915050565b60006126f18383612c2e565b60208301905092915050565b612706816135b7565b82525050565b612715816134ea565b82525050565b612724816134ea565b82525050565b61273b612736826134ea565b6136f2565b82525050565b600061274c8261328a565b61275681856132b8565b93506127618361327a565b8060005b8381101561279257815161277988826126e5565b9750612784836132ab565b925050600181019050612765565b5085935050505092915050565b6127a88161350e565b82525050565b6127bf6127ba8261351a565b613704565b82525050565b6127d66127d182613546565b61370e565b82525050565b60006127e883856132c9565b93506127f5838584613636565b6127fe8361385d565b840190509392505050565b600061281583856132eb565b9350612822838584613636565b82840190509392505050565b600061283982613295565b61284381856132da565b9350612853818560208601613645565b61285c8161385d565b840191505092915050565b600061287282613295565b61287c81856132eb565b935061288c818560208601613645565b80840191505092915050565b6128a1816135c9565b82525050565b60006128b2826132a0565b6128bc81856132f6565b93506128cc818560208601613645565b6128d58161385d565b840191505092915050565b60006128ed602c836132f6565b91506128f882613888565b604082019050919050565b6000612910600f836132f6565b915061291b826138d7565b602082019050919050565b60006129336015836132f6565b915061293e82613900565b602082019050919050565b60006129566011836132f6565b915061296182613929565b602082019050919050565b60006129796024836132f6565b915061298482613952565b604082019050919050565b600061299c6019836132f6565b91506129a7826139a1565b602082019050919050565b60006129bf601d836132f6565b91506129ca826139ca565b602082019050919050565b60006129e2600e836132f6565b91506129ed826139f3565b602082019050919050565b6000612a056000836132f6565b9150612a1082613a1c565b600082019050919050565b6000612a286010836132f6565b9150612a3382613a1f565b602082019050919050565b606082016000820151612a546000850182612c01565b506020820151612a676020850182612c01565b506040820151612a7a6040850182612c72565b50505050565b60006101808301612a946000840184613307565b612aa1600086018261270c565b50612aaf6020840184613381565b612abc6020860182612c2e565b50612aca604084018461331e565b8583036040870152612add8382846127dc565b92505050612aee606084018461331e565b8583036060870152612b018382846127dc565b92505050612b126080840184613381565b612b1f6080860182612c2e565b50612b2d60a0840184613381565b612b3a60a0860182612c2e565b50612b4860c0840184613381565b612b5560c0860182612c2e565b50612b6360e0840184613381565b612b7060e0860182612c2e565b50612b7f610100840184613307565b612b8d61010086018261270c565b50612b9c61012084018461331e565b858303610120870152612bb08382846127dc565b92505050612bc2610140840184613307565b612bd061014086018261270c565b50612bdf61016084018461331e565b858303610160870152612bf38382846127dc565b925050508091505092915050565b612c0a81613563565b82525050565b612c1981613563565b82525050565b612c28816135ee565b82525050565b612c378161359d565b82525050565b612c468161359d565b82525050565b612c5d612c588261359d565b61372a565b82525050565b612c6c81613624565b82525050565b612c7b816135a7565b82525050565b612c8a816135a7565b82525050565b6000612c9c82876127ae565b600182019150612cac828661272a565b601482019150612cbc8285612c4c565b602082019150612ccc82846127c5565b60208201915081905095945050505050565b6000612ceb828486612809565b91508190509392505050565b6000612d04828587612809565b9150612d10828461272a565b601482019150819050949350505050565b6000612d2d8285612867565b9150612d39828461272a565b6014820191508190509392505050565b6000602082019050612d5e600083018461271b565b92915050565b6000604082019050612d7960008301856126fd565b612d866020830184612c3d565b9392505050565b6000606082019050612da2600083018661271b565b612daf602083018561271b565b8181036040830152612dc1818461282e565b9050949350505050565b60006020820190508181036000830152612de58184612741565b905092915050565b60006020820190508181036000830152612e07818461282e565b905092915050565b6000606082019050612e246000830186612898565b8181036020830152612e36818561282e565b9050612e456040830184612c3d565b949350505050565b60006020820190508181036000830152612e66816128e0565b9050919050565b60006020820190508181036000830152612e8681612903565b9050919050565b60006020820190508181036000830152612ea681612926565b9050919050565b60006020820190508181036000830152612ec681612949565b9050919050565b60006020820190508181036000830152612ee68161296c565b9050919050565b60006020820190508181036000830152612f06816129d5565b9050919050565b6000606082019050612f226000830184612a3e565b92915050565b60006080820190508181036000830152612f428187612a80565b90508181036020830152612f56818661282e565b9050612f656040830185612c3d565b612f726060830184612c3d565b95945050505050565b60006040820190508181036000830152612f958185612a80565b9050612fa46020830184612c3d565b9392505050565b6000602082019050612fc06000830184612c1f565b92915050565b6000606082019050612fdb6000830186612c10565b612fe86020830185612c10565b612ff56040830184612c81565b949350505050565b60006020820190506130126000830184612c3d565b92915050565b600060608201905061302d6000830186612c3d565b61303a602083018561271b565b818103604083015261304c81846128a7565b9050949350505050565b600060608201905061306b6000830185612c3d565b613078602083018461271b565b81810360408301526130898161298f565b90509392505050565b60006060820190506130a76000830185612c3d565b6130b4602083018461271b565b81810360408301526130c5816129b2565b90509392505050565b60006060820190506130e36000830185612c3d565b6130f0602083018461271b565b8181036040830152613101816129f8565b90509392505050565b600060608201905061311f6000830185612c3d565b61312c602083018461271b565b818103604083015261313d81612a1b565b90509392505050565b600060608201905061315b6000830186612c3d565b6131686020830185612c3d565b613175604083018461279f565b949350505050565b60006020820190506131926000830184612c63565b92915050565b600080833560016020038436030381126131b5576131b4613830565b5b80840192508235915067ffffffffffffffff8211156131d7576131d6613821565b5b6020830192506001820236038313156131f3576131f2613844565b5b509250929050565b6000823560016101800383360303811261321857613217613830565b5b80830191505092915050565b600061322e61323f565b905061323a8282613678565b919050565b6000604051905090565b600067ffffffffffffffff821115613264576132636137c1565b5b61326d8261385d565b9050602081019050919050565b6000819050602082019050919050565b600081519050919050565b600081519050919050565b600081519050919050565b6000602082019050919050565b600082825260208201905092915050565b600082825260208201905092915050565b600082825260208201905092915050565b600081905092915050565b600082825260208201905092915050565b60006133166020840184611ff0565b905092915050565b6000808335600160200384360303811261333b5761333a613853565b5b83810192508235915060208301925067ffffffffffffffff82111561336357613362613812565b5b60018202360384131561337957613378613835565b5b509250929050565b6000613390602084018461232a565b905092915050565b60006133a38261359d565b91506133ae8361359d565b9250827fffffffffffffffffffffffffffffffffffffffffffffffffffffffffffffffff038211156133e3576133e2613734565b5b828201905092915050565b60006133f9826135a7565b9150613404836135a7565b92508263ffffffff0382111561341d5761341c613734565b5b828201905092915050565b60006134338261359d565b915061343e8361359d565b9250817fffffffffffffffffffffffffffffffffffffffffffffffffffffffffffffffff048311821515161561347757613476613734565b5b828202905092915050565b600061348d82613563565b915061349883613563565b9250828210156134ab576134aa613734565b5b828203905092915050565b60006134c18261359d565b91506134cc8361359d565b9250828210156134df576134de613734565b5b828203905092915050565b60006134f58261357d565b9050919050565b60006135078261357d565b9050919050565b60008115159050919050565b60007fff0000000000000000000000000000000000000000000000000000000000000082169050919050565b6000819050919050565b600081905061355e82613ade565b919050565b60006dffffffffffffffffffffffffffff82169050919050565b600073ffffffffffffffffffffffffffffffffffffffff82169050919050565b6000819050919050565b600063ffffffff82169050919050565b60006135c282613600565b9050919050565b60006135d482613550565b9050919050565b60006135e73683612198565b9050919050565b60006135f982613563565b9050919050565b600061360b82613612565b9050919050565b600061361d8261357d565b9050919050565b600061362f826135a7565b9050919050565b82818337600083830152505050565b60005b83811015613663578082015181840152602081019050613648565b83811115613672576000848401525b50505050565b6136818261385d565b810181811067ffffffffffffffff821117156136a05761369f6137c1565b5b80604052505050565b60006136b48261359d565b91507fffffffffffffffffffffffffffffffffffffffffffffffffffffffffffffffff8214156136e7576136e6613734565b5b600182019050919050565b60006136fd82613718565b9050919050565b6000819050919050565b6000819050919050565b60006137238261386e565b9050919050565b6000819050919050565b7f4e487b7100000000000000000000000000000000000000000000000000000000600052601160045260246000fd5b7f4e487b7100000000000000000000000000000000000000000000000000000000600052602160045260246000fd5b7f4e487b7100000000000000000000000000000000000000000000000000000000600052603260045260246000fd5b7f4e487b7100000000000000000000000000000000000000000000000000000000600052604160045260246000fd5b600060033d111561380f5760046000803e61380c60005161387b565b90505b90565b600080fd5b600080fd5b600080fd5b600080fd5b600080fd5b600080fd5b600080fd5b600080fd5b600080fd5b600080fd5b600080fd5b600080fd5b600080fd5b600080fd5b600080fd5b6000601f19601f8301169050919050565b60008160601b9050919050565b60008160e01c9050919050565b7f6d7573742062652063616c6c6564206f66662d636861696e207769746820667260008201527f6f6d3d7a65726f2d616464720000000000000000000000000000000000000000602082015250565b7f616c72656164792070656e64696e670000000000000000000000000000000000600082015250565b7f5769746864726177616c206973206e6f74206475650000000000000000000000600082015250565b7f6e6f20756e6c6f636b6564207374616b65000000000000000000000000000000600082015250565b7f74617267657420646f65736e2774206d6174636820637265617465322061646460008201527f7265737300000000000000000000000000000000000000000000000000000000602082015250565b7f77616c6c6574206469646e2774207061792070726566756e6400000000000000600082015250565b7f686173207061796d6173746572206275742077616c6c65742070616964000000600082015250565b7f63726561746532206661696c6564000000000000000000000000000000000000600082015250565b50565b7f6e6f7420656e6f756768207374616b6500000000000000000000000000000000600082015250565b600060443d1015613a5857613adb565b613a6061323f565b60043d036004823e80513d602482011167ffffffffffffffff82111715613a88575050613adb565b808201805167ffffffffffffffff811115613aa65750505050613adb565b80602083010160043d038501811115613ac3575050505050613adb565b613ad282602001850186613678565b82955050505050505b90565b60038110613aef57613aee613763565b5b50565b613afb816134ea565b8114613b0657600080fd5b50565b613b12816134fc565b8114613b1d57600080fd5b50565b613b298161359d565b8114613b3457600080fd5b5056fea2646970667358221220c9d165e7398a481c6ebf86be406e762696fc446e33b9861365a33e98647ef56b64736f6c63430008070033",
  "linkReferences": {},
  "deployedLinkReferences": {}
}